:020000040800F2
:1000000000040020C10100081103000811030008CA
:100010001103000811030008110300081103000870
:10002000110300081103000811030008510D000816
:100030001103000811030008110300081103000850
:100040001103000811030008110300081103000840
:100050001103000811030008110300081103000830
:1000600011030008110300081103000831100008F3
:100070006110000891100008C1100008F11000087C
:100080002111000851110008011700081103000890
:1000900011030008110300081103000811030008F0
:1000A00011030008110300081103000811030008E0
:1000B000611500081103000811030008110300086E
:1000C00011030008110300081103000811030008C0
:1000D0001103000811030008C11A000811030008E9
:1000E00011030008110300081103000811030008A0
:1000F0001103000811030008110300088111000812
:10010000110300081103000811030008110300087F
:10011000110300081103000811030008110300086F
:10012000B1110008E1110008111200084112000885
:1001300071120008110300081103000811030008E0
:10014000110300081103000811030008110300083F
:10015000A1120008D11200080113000811030008C1
:10016000110300081103000811030008110300081F
:10017000110300081103000811030008110300080F
:1001800011030008110300081103000811030008FF
:1001900011030008110300081103000811030008EF
:1001A00011030008110300081103000811030008DF
:1001B00011030008110300081103000811030008CF
:1001C00072B62E4880F3098840F20000CCF200009D
:1001D0004EF63471CEF20001086040F20000C0F229
:1001E000F0004EF68851CEF2000108604FF000009A
:1001F000E1EE100A4EF63C71CEF2000108600620D6
:1002000080F31488BFF36F8F01F04AFD1C481D492D
:100210001D4A91423CBF41F8040BFAE71B49174ABB
:1002200091423CBF41F8040BFAE71949194A1A4BAD
:100230009A423EBF51F8040B42F8040BF8E7002045
:100240001649174A91423CBF41F8040BFAE700F007
:100250004FF8144C144DAC4203DA54F8041B884791
:10026000F9E701F0F5FE114C114DAC4203DA54F8F8
:10027000041B8847F9E700F043B80000000800209D
:1002800055555555000000200004002000040020B2
:100290002823000800080020000800200008002093
:1002A000308B0020C0010008C0010008C001000818
:1002B000C001000800000000000000000000000075
:1002C0002DE9F04F2DED108AC1F80CD0D0F80CD0EC
:1002D000BDEC108ABDE8F08F002383F31188284617
:1002E000A047002000F0DCFA00F04AFA00DFFEE749
:1002F000704700BFAFF30080AFF30080AFF3008022
:10030000FEE700BFAFF30080AFF30080AFF30080E3
:10031000FEE700BFAFF30080AFF30080AFF30080D3
:10032000FEE700BFAFF30080AFF30080AFF30080C3
:10033000204B214A2148F0B500249C60DF68204E04
:10034000204D4FF6FF0139400A43DA60F26842F06F
:100350008072F2600268202142F0010210260260E1
:1003600083B0DE7783F8221000F042F900F078F8CD
:1003700000F016FB00F0A4FC00F0DAFC2846402157
:1003800000F006FAA5F1300301229861027784F3A8
:10039000118862B69B690C49996105F14800009487
:1003A0000A4B4FF4B07100F013FA094B836103B0AC
:1003B000F0BD00BF00ED00E00003FA05001000E012
:1003C000F0ED00E0300800201021000821030008B3
:1003D00000210008AFF30080AFF30080AFF300808E
:1003E0002DE9F0471B4D4FF08047EC69A96A786A08
:1003F000A368421A9A4205F11C091AD300264FF04D
:1004000020082268D4F80CA00B444A45AB62C2F81D
:100410000490EA61E66018D086F311882069D0471D
:1004200088F31188EC69786AA96AA368421A934232
:10043000E7D94C450CD00B441B1A012B98BF022363
:100440001844BDE8F04700F0F3BC00F0E9FCE3E736
:10045000BDE8F08700080020AFF30080AFF3008014
:10046000054B4FF0FF3003F11C02002158629962E6
:10047000DA611A62704700BF00080020AFF3008005
:10048000F8B51C4E3446012998BF022154F81C7F50
:1004900003614FF08043A7420546C260586A1ED0F0
:1004A000B46ABB680844041B9C4215D3F3699A687C
:1004B000944204D91B68A41A9A68A242FAD35A68D3
:1004C0006A602B6015605D60AC609A684FF0FF3128
:1004D000141B9C607162F8BD00F0AAFCE6E7B062F4
:1004E000F561356208442F606F60A960BDE8F8408F
:1004F00000F08EBC00080020AFF30080AFF3008056
:100500001B4BDA69824210B410D0416802680A605D
:1005100002681C3300249A425160C46003D083688F
:1005200091680B4493605DF8044B7047184611685E
:1005300040F81C1F002481424860D46013D09268A8
:1005400088689C6A83184FF080428B60506A021B57
:100550009342E8D99B1A012B98BF022318445DF8F7
:10056000044B00F065BC5DF8044B00F059BC00BFC3
:1005700000080020AFF30080AFF30080AFF30080ED
:1005800010B4202383F31188037F072B0ED8DFE8F4
:1005900003F0270D0D2308040D08026A9368013348
:1005A000936090E80C001A60026853604FF0FF34CB
:1005B000002281680D4B046202771B689A688A42A8
:1005C000FBD25A684260036000211060586081F3DA
:1005D00011885DF8044B7047036A00221A60E5E752
:1005E000002383F311885DF8044B70470008002056
:1005F000034B00221B605B601B615B619A6070476C
:1006000000080020AFF30080AFF30080AFF300805C
:1006100000228168084B10B4044602771B689A6870
:100620008A42FBD25A6862602360204614605C6094
:100630005DF8044B704700BF00080020AFF3008056
:10064000074B99691A6810B408771068186001247C
:100650004360147710465DF8044B9A61FFF730BE93
:1006600000080020AFF30080AFF30080AFF30080FC
:1006700030B54B1C87B012D00C4C0D4AA36905460F
:1006800001A8FFF7FDFE2846FFF7DAFF049B13B130
:1006900001A8FFF735FFA369186A07B030BD034C06
:1006A000FFF7CEFFA369186A07B030BD000800202D
:1006B00081050008AFF30080AFF30080AFF3008046
:1006C000144B70B404469D690162A868A168814218
:1006D0004FF000020BD822771B689A689142FBD931
:1006E0005A686260236014605C6070BC70472A774F
:1006F0001A46126891688842FBD9506868600126E2
:100700002A60056055602677294620469C6170BCAA
:10071000FFF7D6BD00080020AFF30080AFF30080E4
:10072000044B1A689B6990689B68984294BF0020AC
:100730000120704700080020AFF30080AFF3008075
:100740000D4A1068036830B4012194695A6000258D
:100750000177A16813609061257700E01B689A68B3
:100760008A42FBD85A6862602360214614605C604C
:1007700030BCFFF7A5BD00BF00080020AFF300802C
:10078000FFF7DEBFAFF30080AFF30080AFF3008070
:10079000F0B50D4CC16365698160002200F128014C
:1007A0004FF0020E012700F124064561046180F834
:1007B0001CE08777427782634263826128616061CF
:1007C00046628162C162F0BD00080020AFF3008084
:1007D000F8B50446202686F3118864390144134E87
:1007E000134D7769C1600B64069B4B6402230D6651
:1007F00000F1240E00250377012100F12803826017
:10080000817706614761C26345778563456385618A
:1008100029463861C0F824E08362C3627061FFF743
:100820004FFF85F311882046F8BD00BF0008002067
:10083000D9020008AFF30080AFF30080AFF300806F
:1008400008B50146202383F311880820FFF710FF25
:10085000002383F3118808BDAFF30080AFF300805D
:1008600038B50E4B9C69636A206204F124059D42F1
:1008700007D01A6862621846FFF7CAFE636AAB4285
:10088000F7D1637F9B0704D1636922691A612269EA
:1008900053610F20BDE83840FFF7D2BE00080020AA
:1008A000202383F31188FFF7DBBF00BFAFF3008085
:1008B00010B5054CA369036002461A620320FFF7D6
:1008C000BFFEA369186A10BD00080020AFF30080C6
:1008D00003682BB10022026018461962FFF798BE28
:1008E000704700BFAFF30080AFF30080AFF300802C
:1008F00069B1084B10B4024644689B69042083E840
:100900001400236053605DF8044BFFF7B1BE4FF055
:10091000FF30704700080020AFF30080AFF3008085
:10092000026890420AD010B4146804600346636001
:10093000116210465DF8044BFFF76ABE704700BFB6
:10094000014B5B6883607047001000E0AFF30080EC
:100950000F4B10495A688368F0B44F6FC6684168FE
:10096000D0E90445D31ADB1BE41845F10005013634
:100970008B42C6608360C0E9044505D80268934293
:1009800038BF0360F0BC70474360F0BC704700BFE5
:10099000001000E000080020AFF30080AFF30080FB
:1009A000D0B50C4C86B000234FF0FF3268460026CD
:1009B000002763670193029303930092CDE90467D4
:1009C000FFF7BEFF6846FFF7C3FF029B636706B0F1
:1009D000D0BD00BF00080020AFF30080AFF300805F
:1009E0000023006040608360704700BFAFF3008069
:1009F000436B027F19430A2A416309D00B2A00D0B6
:100A00007047036A8B43FBD100230362FFF700BEEC
:100A1000036A1942F8D17047AFF30080AFF300804A
:100A200070B50468A0420FD006460D46E3682B431C
:100A3000E36015B12269134203D0A1686068FFF733
:100A4000D7FF2468A642F1D170BD00BFAFF300808C
:100A500030B4029C046200250A4485600261006093
:100A60004060C16081614161C36130BC704700BFBB
:100A7000836942699A4210B583680FD00133541CD0
:100A8000836044611170426903699A4201D3C3686B
:100A900043610021FFF744FF002010BD002BEDD083
:100AA0006FF0030010BD00BFAFF30080AFF3008014
:100AB00070B520230E46044683F31188C3692BB119
:100AC000984703E0FFF714FF002815DBA5683146BF
:100AD0002046002DF6D0A2692169531C8B4205F1F6
:100AE000FF35A361A56028BFE368107828BFA36124
:100AF000002383F3118870BD85F3118870BD00BF9A
:100B00002DE9F04F044683B0894693461D46D0F840
:100B10001C80202787F3118800260197B246B8F180
:100B2000000F05D02046C04702E0FFF7E1FED8B92C
:100B3000A76829462046002FF7D0A2697B1E511CCA
:100B4000A161A360137809F8013B2369A2699A4265
:100B500024BFE368A3618AF311880136B34505D049
:100B6000019B83F31188DAE787F31188304603B0DD
:100B7000BDE8F08FAFF30080AFF30080AFF30080EB
:100B800030B4029C04628D18056100604060826090
:100B9000C16081614161C36130BC7047AFF30080C7
:100BA000F8B504460F461646202383F3118803E068
:100BB000FFF79EFE002818DBA56831462046002D71
:100BC000F6D06369013D5A1C6261A5601F702369FC
:100BD00062699A4224BFE3686361E3690BB120460E
:100BE0009847002080F31188F8BD85F31188F8BD7F
:100BF00038B582694369934283680ED00569511CF8
:100C0000013383608161A942147801D3C368836191
:100C10000021FFF785FE204638BD002BEED06FF097
:100C2000020038BDAFF30080AFF30080AFF3008067
:100C30002DE9F04F83B004460D4616460193D0F8D7
:100C40001C804FF0200989F311880027BA46A36859
:100C500005F1010B591E2046FBB16369A160591CC7
:100C600061612978197023696169994224BFE36839
:100C70006361B8F1000F00D0C0478AF31188013ECC
:100C800007F1010713D089F31188A3685D46591E47
:100C900005F1010B2046002BDFD10199009320467E
:100CA000FFF726FE009B0028D1D083F31188384639
:100CB00003B0BDE8F08F00BFAFF30080AFF300805A
:100CC000054A064B0648074922F0070223F00703AE
:100CD00002600B60704700BF378B002000000120CE
:100CE000DC090020D8090020AFF30080AFF30080BA
:100CF00010B4202383F31188094C0A4B2268196829
:100D0000C31D23F00703891A8B429DBF9B182360E4
:100D100010460020002383F311885DF8044B7047D0
:100D2000DC090020D8090020AFF30080AFF3008079
:100D3000044B054A1A6003F1100000229A60DA6041
:100D4000FFF74EBEE0090020F10C0008AFF3008071
:100D5000064A536823F001035360EFF309836833B5
:100D600083F30988002383F31188704730EF00E094
:100D7000202383F31188124B5B6813F4006302D1C4
:100D800083F31188704710B5F1EE103AEFF3098440
:100D90000C4B4FF08072DB6844F8083C44F84C2C54
:100DA000A4F1680383F30988FFF7BAFC18B1064B76
:100DB00044F8503C10BD054B44F8503C10BD00BFFA
:100DC00000ED00E030EF00E0E9020008EC0200086E
:100DD00008B500F025FB064800F082FD00F030F871
:100DE00000F0AEF800F064FFBDE8084000F008B87D
:100DF00020220008AFF30080AFF30080AFF3008043
:100E000000F0C6BBAFF30080AFF30080AFF300800B
:100E10004FF080430021022258631961DA60704765
:100E20004FF080430022DA60704700BFAFF30080CC
:100E30004FF0804358637047AFF30080AFF30080FA
:100E400000F0A6BCAFF30080AFF30080AFF30080EA
:100E500000230122027043608360C3600361436129
:100E60001830FFF7BDBD00BFAFF30080AFF30080C7
:100E700010B52023044683F31188416000F0A8FCDC
:100E800002232370002383F3118810BDAFF3008089
:100E900070B5202585F31188054603268260C3605E
:100EA000016105F8146B00F0CBFC2846FFF700FD4C
:100EB000002383F3118870BDAFF30080AFF300808F
:100EC0000C30FFF71DBE00BFAFF30080AFF3008012
:100ED0000C304FF0FF33FFF713BE00BFAFF30080BD
:100EE0003030FFF7A5BE00BFAFF30080AFF3008046
:100EF00030304FF0FF33FFF79BBE00BFAFF30080F1
:100F00000C30FFF7D5BD00BFAFF30080AFF300801A
:100F10000C304FF0FF31FFF7CBBD00BFAFF30080C7
:100F20003030FFF73DBE00BFAFF30080AFF300806D
:100F300030304FF0FF32FFF733BE00BFAFF3008019
:100F400000F04EBEAFF30080AFF30080AFF300803F
:100F500070B50E4B044682B040F8043B0126009465
:100F600015460B46606004F1540104F10C00267232
:100F70001022FFF76DFD00942B4604F1640104F18B
:100F800030001022FFF7FCFD02B070BD30210008D8
:100F900010B52023044683F3118800F031FE0223AC
:100FA0002372002383F3118810BD00BFAFF30080CC
:100FB00038B5436904460D463BB1294604F10C009F
:100FC000FFF756FD00280BDB38BD04210844FFF76E
:100FD00027FD294604F10C00FFF74AFD0028F3DA4B
:100FE000201D8021BDE83840FFF71ABDAFF3008017
:100FF00043099B0010B403F1604300F1604404F521
:10100000614403F56143090100F01F00012202FA67
:1010100000F0C9B284F80013C3F8800118605DF8CD
:10102000044B7047AFF30080AFF30080AFF3008054
:1010300008B5074B074A196801F03D01996013682C
:101040000BB150689847BDE80840FFF791BE00BF5C
:1010500000600240000A0020AFF30080AFF3008080
:10106000084B094819688268890901F03D0110B5EB
:101070008C019C600AB1C0689047BDE81040FFF742
:1010800077BE00BF00600240000A0020AFF300807E
:10109000084B094819680269090C01F03D0110B5B7
:1010A0000C049C600AB140699047BDE81040FFF70E
:1010B0005FBE00BF00600240000A0020AFF3008066
:1010C000084B094819688269890D01F03D0110B586
:1010D0008C059C600AB1C0699047BDE81040FFF7DD
:1010E00047BE00BF00600240000A0020AFF300804E
:1010F00008B5074B07485968026A01F03D01D960FD
:101100000AB1406A9047BDE80840FFF731BE00BF12
:1011100000600240000A0020AFF30080AFF30080BF
:10112000084B09485968826A890901F03D0110B5E8
:101130008C01DC600AB1C06A9047BDE81040FFF73F
:1011400017BE00BF00600240000A0020AFF300801D
:10115000084B09485968026B090C01F03D0110B5B4
:101160000C04DC600AB1406B9047BDE81040FFF70B
:10117000FFBD00BF00600240000A0020AFF3008006
:10118000084B09485968826B890D01F03D0110B583
:101190008C05DC600AB1C06B9047BDE81040FFF7DA
:1011A000E7BD00BF00600240000A0020AFF30080EE
:1011B00008B5074B07481968026C01F03D019960BA
:1011C0000AB1406C9047BDE80840FFF7D1BD00BFB1
:1011D00000640240000A0020AFF30080AFF30080FB
:1011E000084B09481968826C890901F03D0110B566
:1011F0008C019C600AB1C06C9047BDE81040FFF7BD
:10120000B7BD00BF00640240000A0020AFF30080B9
:10121000084B09481968026D090C01F03D0110B531
:101220000C049C600AB1406D9047BDE81040FFF788
:101230009FBD00BF00640240000A0020AFF30080A1
:10124000084B09481968826D890D01F03D0110B500
:101250008C059C600AB1C06D9047BDE81040FFF757
:1012600087BD00BF00640240000A0020AFF3008089
:1012700008B5074B07485968026E01F03D01D96077
:101280000AB1406E9047BDE80840FFF771BD00BF4E
:1012900000640240000A0020AFF30080AFF300803A
:1012A000084B09485968826E890901F03D0110B563
:1012B0008C01DC600AB1C06E9047BDE81040FFF7BA
:1012C00057BD00BF00640240000A0020AFF3008059
:1012D000084B09485968026F090C01F03D0110B52F
:1012E0000C04DC600AB1406F9047BDE81040FFF786
:1012F0003FBD00BF00640240000A0020AFF3008041
:10130000084B09485968826F890D01F03D0110B5FD
:101310008C05DC600AB1C06F9047BDE81040FFF754
:1013200027BD00BF00640240000A0020AFF3008028
:101330000E490F4A0F48002310B40B600E4C19469B
:1013400001E052F80C0C016044F833100133102B0B
:1013500002F10C02F5D10949094A5DF8044B4FF03E
:10136000FF338B60CB609360D3607047800A0020AE
:101370005C21000810600240000A0020006002406A
:1013800000640240AFF30080AFF30080AFF3008051
:10139000F8B51F4F467A3D68012404FA06FE1EEA9E
:1013A000050F31D11B4C4EEA050504EBC60E15F0B6
:1013B000FF0F3D6044F83620CEF8043004D0164CC0
:1013C000236B43F40013236315F47F4F16D1056894
:1013D0002B6823F01F032B602B6813F00104FBD153
:1013E000077A46683D23BB40212733602C606F613C
:1013F00062B1807AFFF7FCFD2046F8BD064C236BF6
:1014000043F480032363E2E72046F8BD1046F8BDAD
:10141000800A0020000A002000380240AFF300805C
:10142000174B4FF0FF311A69002210B419611A618D
:10143000586959615A61186A124C60F080501862FC
:101440001A62586A59625A62196C41F080511964E3
:10145000216841F480712160196F01F44071B1F588
:10146000007F03D04FF4803119671A67054A5DF891
:10147000044B536823F400735360FFF759BF00BF58
:101480000038024000700040AFF30080AFF30080EE
:101490002C492D4B4FF080504FF4004208641A60E5
:1014A0000B6843F001030B600A68264B9007FBD5DD
:1014B0009A6822F003029A609A689A6019468B68CB
:1014C000204A13F00C03FAD1116801F0F901116000
:1014D0009360136843F4803313601168194B8903D8
:1014E000FBD55A6F42F001025A675A6F15499007AF
:1014F000FBD5164B4B600B68134A43F080730B60AF
:1015000053685904FCD50F490A680E4B9201FBD56C
:101510000F4A1049996040F2027111609A6842F0D6
:1015200002029A601A469368064903F00C03082BDE
:10153000F9D14B6C43F480434B644B6E43F48043CE
:101540004B66704700380240007000400854410765
:10155000003C024000100838AFF30080AFF3008079
:101560004FF080431A69920701D4FFF701BC10B510
:1015700000241C61202383F31188FEF731FF84F3DC
:101580001188BDE81040FFF7F3BB00BFAFF3008048
:101590000F4A1048136C70B443F001031364816860
:1015A0004FF080430022012441F0010142F2CF06B6
:1015B0004FF0FF3581609E620821DD621C209A6138
:1015C0005A63DA605A605C611C6070BCFFF710BD42
:1015D00000380240002004E0AFF30080AFF3008049
:1015E00011F00C0F2DE9F04104462ED0C06A0368BB
:1015F0001A6822F01F021A60196811F00101FBD16C
:101600002269077A46689568A36A3D22BA4001209C
:10161000326059609960986045B105232370204677
:10162000A8472378052B04BF0223237000252561DA
:10163000202383F311884FF0FF3104F11400FFF7EA
:1016400047F985F31188BDE8F0810569A5B18A06DF
:1016500010D52B78DBB16B6873B1C268012A47D90A
:1016600069888468520802FB01F104EB4101BDE87E
:10167000F0411847CB0601D4BDE8F0816B68002B20
:10168000FAD0C26881685208BDE8F0411847C06AC4
:101690000268136823F01F031360136813F001033B
:1016A000FBD1077A46686D68A26A3D21B9400120E6
:1016B0003160536093609060ADB104232370E268A1
:1016C000A1682046A8472378042B0CD0202383F35D
:1016D0001188002104F11400FFF7FAF8002383F3C6
:1016E0001188BDE8F0810222002322702361EDE71A
:1016F0008168BDE8F0411847AFF30080AFF3008088
:10170000F8B51E4B1A6800211960930631D51C4CA0
:10171000E16A0A68536863B3256955B3136823F017
:101720001F031360136813F00103FBD1087AAE683E
:101730004F68A26A124D3D2101FA00F00121386084
:1017400053609360916046B105232B702846B047E3
:101750002B78052B04BF02232B7000252561202345
:1017600083F311884FF0FF310648FFF7B1F885F396
:101770001188BDE8F840FFF7FBBA00BF0020014028
:10178000840A0020980A0020AFF30080AFF30080A5
:1017900010B5084C2046FFF75BFB0749074A084B8A
:1017A000A162E262236306211220BDE81040FFF728
:1017B0001FBC00BF840A002000200140E021000877
:1017C000162C0200AFF30080AFF30080AFF300806F
:1017D0000378012B00D07047114B984210B5044696
:1017E0000DD01048A26A436803F44003002143F47B
:1017F00080330124436051609160946010BD0346C2
:10180000094AC06A0621FFF7C3FDE36A074A1B685D
:1018100007499960536C43F480735364E1E700BF58
:10182000840A002000230140E1150008003802402E
:101830004C200140AFF30080AFF30080AFF3008095
:101840000369016B1A78F0B5002A2BD1C268C56A0A
:101850005C882D688668EE6002FB04F26A60DC68D2
:1018600029602E68826A1969D3F814E09F6944F0F0
:10187000806046F001042C600024DD6914601C6A5D
:101880005B6AC2F80CE040F480701761D5621463A3
:1018900053634B0050600DD441F4407141F001019D
:1018A0009160F0BDC268012A94BF41F4807141F497
:1018B0008471CCE721F0804323F0020343F44073AA
:1018C00041F4407143F0030341F0030193609160E0
:1018D000F0BD00BFAFF30080AFF30080AFF3008036
:1018E000F0B43A4E3A4D376B3A4C3B493B4A3C4B8D
:1018F00047F01F073763376D47F01F0737654668A6
:101900006E608668AE60C668EE6006696E614669A4
:101910002E6286696E6206682E60056A6560456A99
:10192000A560856AE560C56A6561056B2562456BE2
:101930006562C5692560C46B4C60046C8C60446C46
:10194000CC60846C4C61C46C0C62046D4C62846B22
:101950000C60816D5160C16D9160016ED160416E0E
:101960005161816E1162C16E5162416D1160426FB1
:101970005A60826F9A60C26FDA60D0F880205A6134
:10198000D0F884201A62D0F888205A62026F1A6058
:10199000D0F89020C3F8042CD0F89420C3F8082C79
:1019A000D0F89820C3F80C2CD0F89C20C3F8142C45
:1019B000D0F8A020C3F8202CD0F8A420C3F8242C01
:1019C000D0F88C20C3F8002CF0BC704700380240DF
:1019D000000002400004024000080240000C0240E7
:1019E00000100240AFF30080AFF30080AFF300803F
:1019F0002DE9F04F4FF00F0C02F0030EC2F38007F9
:101A0000C2F3C106C2F341150024C2F3C3124FF062
:101A100001094FF0030830E0D0F820B02BEA0303AF
:101A200043EA0A030362436809FA04FA23EA0A0351
:101A30003B4343606300D0F808A008FA03F3DB439C
:101A40000AEA030A4AEA060AC0F808A0D0F80CA07D
:101A500003EA0A0A4AEA050AC0F80CA0D0F800A076
:101A600003EA0A0343EA0E030360490819D07F0022
:101A7000B600AD004FEA8E0E013404F007039B0060
:101A800011F0010F02FA03FA0CFA03F3EDD0072C60
:101A9000C2D9D0F824B02BEA030343EA0A03436215
:101AA000C1E7BDE8F08F00BFAFF30080AFF3008067
:101AB000024AD36843F08003D3607047004400407B
:101AC000F8B5434E756FEF682B68DA059CB24FD4BA
:101AD000202383F3118814F02F0F08D129E0A006EA
:101AE00069681DD42C68A4B214F02F0F21D02307ED
:101AF000F5D014F0080F0CBF00218021E00748BF8B
:101B000041F02001A20748BF41F04001630748BFF0
:101B100041F480712F48FEF783FFA0066968E1D584
:101B2000C9B22B48FFF744FA2C68A4B214F02F0F67
:101B3000DDD1002383F31188390601D5220626D48E
:101B4000630611D5202383F31188726CB36C20488F
:101B50009A4229D04FF6BF733B406FF04002EB60D2
:101B600000232A6083F31188BDE8F840FFF700B92D
:101B7000202383F311884FF40071301DFEF750FFCE
:101B80006FF480732B60002383F31188A0E7202378
:101B900083F311881048FFF72BF800280CDB6860EE
:101BA000002383F31188CBE7836B002BD2D0043062
:101BB0001021FEF735FFCDE708210648FEF730FF7C
:101BC0004FF63F733B4043F04003EB60E8E700BF54
:101BD000B80A0020BC0A0020E80A0020AFF3008009
:101BE00010B5044C044A20460021FFF7B1F9034B1D
:101BF000636710BDB80A0020B11A00080044004015
:101C000038B51F4C037A002918BF0C46012B054636
:101C100022D06B6F1B4A93422BD002F58062934215
:101C200027D02168184AB2FBF1F29A60A288E088B6
:101C3000218942F4045240F0400042F02C0241F06D
:101C4000010192B280B289B2002418615961DA6050
:101C50001C601A685B6838BD0C4B9842D9D10C4A9D
:101C6000136C43F4003313640C212620FFF7C0F9F2
:101C7000CFE72168074AB2FBF1F29A60D6E700BFCE
:101C8000102200080010014080DE8002B80A002007
:101C90000038024000BD0105AFF30080AFF30080C3
:101CA000FFF7F6BBAFF30080AFF30080AFF3008027
:101CB000704700BFAFF30080AFF30080AFF3008048
:101CC000F0B400F10B073C460D46B1FBF2F602FB07
:101CD000161101F13003392BC8BF01F13703DBB214
:101CE00004F8013DB5FBF2F53146002DEDD13A1B6C
:101CF000024401E014F8013F00F8013B9042F9D1A1
:101D0000F0BC7047AFF30080AFF30080AFF300800A
:101D10002DE9F04F87B016460DF10D0303AA9B1A6B
:101D200082460D4601934FF00009834629786A1CCC
:101D300069B125290FD0DBF80000154684685846A4
:101D4000A047297809F101096A1C0029F1D1484608
:101D500007B0BDE8F08F69782D2903BFA978AA1CC8
:101D60004FF0010A4FF0000A302903BF51780132C9
:101D70004FF030084FF02008501C002705E0337862
:101D80000436297803EB42070130A1F13003DBB2BE
:101D9000092B054607EB8702F3D92A29EFD02E2914
:101DA0004FF0000043D001F0DF024C2A4ED0A1F1E9
:101DB0004402342A00F2F880DFE812F0ED00F60069
:101DC000F600F600F600ED00F600F600F600F6006C
:101DD000F600EB00F600F600F600F600F600B9009B
:101DE000F600F6006F00F600F600F600F600F600CA
:101DF000F600F600F600F600F600DF00ED00F60053
:101E0000F600F600F600ED00F600F600F600F6002B
:101E1000F600EB00F600F600F600BB00F600B90095
:101E2000F600F6006F003378043603EB420015F835
:101E3000011BA1F13003DBB2092B00EB8002F4D9C6
:101E40002A29F0D001F0DF024C2AB0D12C78002CE6
:101E500000F0AA80A4F144020135342A00F2A380E4
:101E6000DFE802F099A1A1A1A199A1A1A1A1A19747
:101E7000A1A1A1A1A165A1A11BA1A1A1A1A1A1A114
:101E8000A1A1A18B99A1A1A1A199A1A1A1A1A19772
:101E9000A1A1A167A165A1A11B001022316803A81F
:101EA0000436FFF70DFF03ABC01A431E009303ACCB
:101EB0003F1A27EAE777BAF1000F5AD1C7F1000AB3
:101EC000BAF1000F78D021782D297BD05746DBF866
:101ED000003041469B68584698470137F7D1009B30
:101EE000002BCAEB0909FFF621AFDDF800A0DBF8F3
:101EF000003014F8011B9B680AF1FF3A58469847D6
:101F0000BAF1FF3FF3D1009B09F10109002BA8BFF3
:101F10009944002F3FF40AAF3C46DBF800304146BD
:101F20009B6858469847013CF7D1B944FEE60A221F
:101F3000B4E73468374A002C08BF144604362278C8
:101F400000284ED0002A50D00138224601E0431C20
:101F500004D012F8013F0138002BF8D1101B431EAA
:101F60003F1A00934FF0200827EAE777BAF1000FF5
:101F7000A4D0009B002BB8DACBE7019B32688DF828
:101F80000C201846013B043600934FF0200803ACA8
:101F90008EE7082282E73168002906F104062FDB6C
:101FA00003A80A227DE72146019B8DF80C101846F4
:101FB000013B009303AC7BE7009B002BA8BF574677
:101FC00093DAB3E6B8F1300F80D1DBF80020584641
:101FD00092689047009B013B013409F1010900938D
:101FE00074E747F6FE70002AAFD127EAE777BAF127
:101FF000000F0CD14FF0FF3300934FF020085DE746
:102000002D2249428DF80C200DF10D00C9E74FF04B
:1020100020087EE7D0220008AFF30080AFF30080F5
:102020000EB400B582B003AA054852F8041B019211
:10203000FFF76EFE02B05DF804EB03B0704700BF1F
:10204000B80A0020AFF30080AFF30080AFF3008048
:1020500010B5FEF7BDFEFEF76BF9032201211C4807
:102060001C4CFFF7C5FC00211B48FEF701FF0021B7
:102070001A48FEF78DFF40F2823220211848FFF700
:10208000B7FC40F2823240211548FFF7B1FC4FF413
:102090008043104A13491048FEF7FAFE228812497D
:1020A0000E481201FFF7BCFF104B002203F5004061
:1020B00033F8021F83420A44FAD1920A0C490748B6
:1020C000FFF7AEFF41F28830FEF7BAFBDFE700BF53
:1020D00000000240300B0020840A0020B80A0020D3
:1020E0000008024000230008E02200082E0B002018
:1020F000F0220008AFF30080AFF30080AFF3008060
:1021000069646C6500000000000000000000000031
:102110006D61696E00160118040444080C1014184F
:10212000001C1D1E00000000000000000000000058
:10213000F10E0008D10E0008310F0008110F000841
:10214000210F0008010F0008E10E0008C10E000871
:10215000106002400860024000000B00286002404E
:102160000860024006010C00406002400860024026
:1021700010020D00586002400860024016030E0075
:10218000706002400C60024000040F008860024052
:102190000C60024006051000A06002400C60024086
:1021A00010061100B86002400C60024016072F00B4
:1021B00010640240086402400008380028640240AD
:1021C0000864024006093900406402400864024085
:1021D000100A3A005864024008640240160B3B00A3
:1021E000706402400C640240000C3C0088640240B1
:1021F0000C640240060D4400A06402400C640240DE
:10220000100E4500B86402400C640240160F4600F0
:1022100000960000000000400000000000000000E8
:1022200000AAA02A00000000FFABFFFF54000140FD
:10223000FFFF00000000565500AA0A008020080099
:1022400040020000FFFFFFFF15451155FFFF000092
:102250000000000440000000018020020000000097
:10226000FFFFFFFF54154554FFFF00000000006012
:10227000000606000001005500000000FFFFFFFF00
:1022800055505500FF0F0000000000000000000046
:102290004000000000000000FFFFFFFF0000000002
:1022A000FFFF000000000000000000000000000030
:1022B000000000000F00000000000000030000000C
:1022C000000000000000000000000000000000000E
:1022D000286E756C6C2900000000000000000000F2
:1022E0004D656173757265643A2025642020000095
:1022F00025550D0A0000000000000000000000004D
:1023000000000100000000000000000000000000CC
:10231000000000400000000000000000000000007D
:082320000000000000000000B5
:04000005080001C12D
:00000001FF
