:020000040800F2
:1000000000040020C1010008610C0008610C000818
:10001000610C0008610C0008610C0008610C00080C
:10002000610C0008610C0008610C000881160008D2
:10003000610C0008610C0008610C0008610C0008EC
:10004000610C0008610C0008610C0008610C0008DC
:10005000610C0008610C0008610C0008610C0008CC
:10006000610C0008610C0008610C0008711900089F
:10007000A1190008D1190008011A0008311A000856
:10008000611A0008911A000841200008610C00085C
:10009000610C0008610C0008610C0008610C00088C
:1000A000610C0008610C0008610C0008610C00087C
:1000B000A11E0008610C0008610C0008610C00081A
:1000C000610C0008610C0008610C0008610C00085C
:1000D000610C000811240008F1250008610C0008DB
:1000E000610C0008610C0008610C0008610C00083C
:1000F000610C0008610C0008610C0008C11A0008BE
:10010000610C0008610C0008610C0008610C00081B
:10011000610C0008610C0008610C0008610C00080B
:10012000F11A0008211B0008511B0008811B000860
:10013000B11B0008610C0008610C0008610C00088C
:10014000610C0008610C0008610C0008610C0008DB
:10015000E11B0008111C0008411C0008610C00088C
:10016000610C0008610C0008610C0008610C0008BB
:10017000610C0008610C0008610C0008610C0008AB
:10018000610C0008610C0008610C0008610C00089B
:10019000610C0008610C0008610C0008610C00088B
:1001A000610C0008610C0008610C0008610C00087B
:1001B000610C0008610C0008610C0008610C00086B
:1001C00072B62E4880F3098840F20000CCF200009D
:1001D0004EF63471CEF20001086040F20000C0F229
:1001E000F0004EF68851CEF2000108604FF000009A
:1001F000E1EE100A4EF63C71CEF2000108600620D6
:1002000080F31488BFF36F8F02F04AFA1C481D492F
:100210001D4A91423CBF41F8040BFAE71B49174ABB
:1002200091423CBF41F8040BFAE71949194A1A4BAD
:100230009A423EBF51F8040B42F8040BF8E7002045
:100240001649174A91423CBF41F8040BFAE700F007
:10025000F7FC144C144DAC4203DA54F8041B8847E5
:10026000F9E702F075FD114C114DAC4203DA54F878
:10027000041B8847F9E700F0EBBC000000080020F1
:1002800055555555000000200004002000040020B2
:100290009846000800080020340C0020380C00208C
:1002A00060190020C0010008C0010008C00100085A
:1002B000C001000800000000000000000000000075
:1002C0002DE9F04F2DED108AC1F80CD0D0F80CD0EC
:1002D000BDEC108ABDE8F08F002383F31188284617
:1002E000A047002000F084FF00F0F2FE00DFFEE7F0
:1002F00081F0004102E000BF83F0004330B54FEAD7
:1003000041044FEA430594EA050F08BF90EA020F43
:100310001FBF54EA000C55EA020C7FEA645C7FEAD6
:10032000655C00F0E2804FEA5454D4EB5555B8BFF9
:100330006D420CDD2C4480EA020281EA030382EA6A
:10034000000083EA010180EA020281EA0303362DFC
:1003500088BF30BD11F0004F4FEA01314FF4801CCF
:100360004CEA113102D0404261EB410113F0004FE1
:100370004FEA03334CEA133302D0524263EB430398
:1003800094EA050F00F0A780A4F10104D5F1200E36
:100390000DDB02FA0EFC22FA05F2801841F1000191
:1003A00003FA0EF2801843FA05F359410EE0A5F165
:1003B00020050EF1200E012A03FA0EFC28BF4CF096
:1003C000020C43FA05F3C01851EBE37101F000454C
:1003D00007D54FF0000EDCF1000C7EEB00006EEB59
:1003E0000101B1F5801F1BD3B1F5001F0CD34908E3
:1003F0005FEA30004FEA3C0C04F101044FEA44523A
:1004000012F5800F80F09A80BCF1004F08BF5FEAC0
:10041000500C50F1000041EB045141EA050130BDA0
:100420005FEA4C0C404141EB010111F4801FA4F143
:100430000104E9D191F0000F04BF01460020B1FA98
:1004400081F308BF2033A3F10B03B3F120020CDAD0
:100450000C3208DD02F1140CC2F10C0201FA0CF0AE
:1004600021FA02F10CE002F11402D8BFC2F1200C13
:1004700001FA02F120FA0CFCDCBF41EA0C019040C9
:10048000E41AA2BF01EB0451294330BD6FEA040412
:100490001F3C1CDA0C340EDC04F11404C4F12002FD
:1004A00020FA04F001FA02F340EA030021FA04F30F
:1004B00045EA030130BDC4F10C04C4F1200220FA66
:1004C00002F001FA04F340EA0300294630BD21FAA4
:1004D00004F0294630BD94F0000F83F4801306BF6A
:1004E00081F480110134013D4EE77FEA645C18BF5E
:1004F0007FEA655C29D094EA050F08BF90EA020FF5
:1005000005D054EA000C04BF1946104630BD91EAEC
:10051000030F1EBF0021002030BD5FEA545C05D1EF
:100520004000494128BF41F0004130BD14F580042E
:100530003CBF01F5801130BD01F0004545F0FE41A2
:1005400041F470014FF0000030BD7FEA645C1ABFD7
:10055000194610467FEA655C1CBF0B46024650EA0E
:10056000013406BF52EA033591EA030F41F400213A
:1005700030BD00BF90F0000F04BF0021704730B5C0
:100580004FF4806404F132044FF000054FF0000195
:1005900050E700BF90F0000F04BF0021704730B556
:1005A0004FF4806404F1320410F0004548BF40422B
:1005B0004FF000013EE700BF42004FEAE2014FEA80
:1005C00031014FEA02701FBF12F07F4393F07F4F5B
:1005D00081F06051704792F0000F14BF93F07F4F8D
:1005E000704730B54FF4607401F0004521F00041D0
:1005F00020E700BF50EA010208BF704730B54FF056
:1006000000050AE050EA010208BF704730B511F05A
:10061000004502D5404261EB41014FF4806404F192
:1006200032045FEA915C3FF4DCAE4FF003025FEA14
:10063000DC0C18BF03325FEADC0C18BF033202EB9C
:10064000DC02C2F1200300FA03FC20FA02F001FAF6
:1006500003FE40EA0E0021FA02F11444C1E600BF95
:1006600070B54FF0FF0C4CF4E06C1CEA11541DBF48
:100670001CEA135594EA0C0F95EA0C0F00F0DEF813
:100680002C4481EA030621EA4C5123EA4C5350EAF8
:10069000013518BF52EA033541F4801143F4801349
:1006A00038D0A0FB02CE4FF00005E1FB02E506F0DA
:1006B0000042E0FB03E54FF00006E1FB03569CF02F
:1006C000000F18BF4EF0010EA4F1FF04B6F5007F35
:1006D00064F5407404D25FEA4E0E6D4146EB0606A7
:1006E00042EAC62141EA55514FEAC52040EA5E5030
:1006F0004FEACE2EB4F1FD0C88BFBCF5E06F1ED8DA
:10070000BEF1004F08BF5FEA500E50F1000041EB10
:10071000045170BD06F0004646EA010140EA0200BD
:1007200081EA0301B4EB5C04C2BFD4EB0C0541EADF
:10073000045170BD41F480114FF0000E013C00F3F4
:10074000AB8014F1360FDEBF002001F0004170BD18
:10075000C4F10004203C35DA0C341BDC04F1140431
:10076000C4F1200500FA05F320FA04F001FA05F2BD
:1007700040EA020001F0004221F0004110EBD3708A
:1007800021FA04F642EB06015EEA430E08BF20EAB6
:10079000D37070BDC4F10C04C4F1200500FA04F359
:1007A00020FA05F001FA04F240EA020001F00041EB
:1007B00010EBD37041F100015EEA430E08BF20EA5E
:1007C000D37070BDC4F1200500FA05F24EEA020EA6
:1007D00020FA04F301FA05F243EA020321FA04F0D5
:1007E00001F0004121FA04F220EA020000EBD3708C
:1007F0005EEA430E08BF20EAD37070BD94F0000F8C
:100800000FD101F00046400041EB010111F4801FBF
:1008100008BF013CF7D041EA060195F0000F18BF70
:10082000704703F00046520043EB030313F4801FAC
:1008300008BF013DF7D043EA0603704794EA0C0F66
:100840000CEA135518BF95EA0C0F0CD050EA41067C
:1008500018BF52EA4306D1D181EA030101F00041F9
:100860004FF0000070BD50EA410606BF1046194621
:1008700052EA430619D094EA0C0F02D150EA01362D
:1008800013D195EA0C0F05D152EA03361CBF10466E
:1008900019460AD181EA030101F0004141F0FE410D
:1008A00041F470014FF0000070BD41F0FE4141F491
:1008B000780170BD70B54FF0FF0C4CF4E06C1CEA91
:1008C00011541DBF1CEA135594EA0C0F95EA0C0F46
:1008D00000F0A7F8A4EB050481EA030E52EA033501
:1008E0004FEA013100F088804FEA03334FF0805522
:1008F00045EA131343EA12634FEA022245EA11154F
:1009000045EA10654FEA00260EF000419D4208BFFF
:10091000964244F1FD0404F5407402D25B084FEAAC
:100920003202B61A65EB03055B084FEA32024FF458
:1009300080104FF4002CB6EB020E75EB030E22BFB5
:10094000B61A754640EA0C005B084FEA3202B6EB75
:10095000020E75EB030E22BFB61A754640EA5C0024
:100960005B084FEA3202B6EB020E75EB030E22BFB4
:10097000B61A754640EA9C005B084FEA3202B6EBB5
:10098000020E75EB030E22BFB61A754640EADC0074
:1009900055EA060E18D04FEA051545EA16754FEAD6
:1009A00006164FEAC30343EA52734FEAC2025FEAF4
:1009B0001C1CC0D111F4801F0BD141EA00014FF083
:1009C00000004FF0004CB6E711F4801F04BF014354
:1009D0000020B4F1FD0C88BFBCF5E06F3FF6AFAE70
:1009E000B5EB030C04BFB6EB020C5FEA500C50F100
:1009F000000041EB045170BD0EF0004E4EEA113183
:100A000014EB5C04C2BFD4EB0C0541EA045170BD89
:100A100041F480114FF0000E013C90E645EA060ECD
:100A20008DE60CEA135594EA0C0F08BF95EA0C0FFB
:100A30003FF43BAF94EA0C0F0AD150EA01347FF443
:100A400034AF95EA0C0F7FF425AF104619462CE71A
:100A500095EA0C0F06D152EA03353FF4FDAE10467D
:100A6000194622E750EA410618BF52EA43067FF4CE
:100A7000C5AE50EA41047FF40DAF52EA43057FF45E
:100A8000EBAE12E7000000000000000000000000D4
:100A90004FF0FF3C06E000BF4FF0010C02E000BF4A
:100AA0004FF0010C4DF804CD4FEA410C7FEA6C5C2D
:100AB0004FEA430C18BF7FEA6C5C1BD001B050EAD0
:100AC000410C0CBF52EA430C91EA030F02BF90EABB
:100AD000020F0020704710F1000F91EA030F58BF7A
:100AE000994208BF90422CBFD8176FEAE37040F0DC
:100AF000010070474FEA410C7FEA6C5C02D150EA7A
:100B0000013C07D14FEA430C7FEA6C5CD6D152EA34
:100B1000033CD3D05DF8040B704700BF84461046F9
:100B200062468C461946634600E000BF01B5FFF7F8
:100B3000B7FF002848BF10F1000F01BD4DF808EDC8
:100B4000FFF7F4FF0CBF012000205DF808FB00BF99
:100B50004DF808EDFFF7EAFF34BF012000205DF8F3
:100B600008FB00BF4DF808EDFFF7E0FF94BF012040
:100B700000205DF808FB00BF4DF808EDFFF7CEFF41
:100B800094BF012000205DF808FB00BF4DF808ED80
:100B9000FFF7C4FF34BF012000205DF808FB00BF51
:100BA0004FEA4102B2F1E04324BFB3F5001CDCF18F
:100BB000FE5C0DD901F0004C4FEAC0024CEA5070C7
:100BC000B2F1004F40EB830008BF20F001007047F6
:100BD00011F0804F21D113F13872BCBF01F00040F9
:100BE000704741F480114FEA5252C2F11802C2F12B
:100BF000200C10FA0CF320FA02F018BF40F00100AC
:100C00004FEAC1234FEAD32303FA0CFC40EA0C005D
:100C100023FA02F34FEA4303CCE77FEA625307D19A
:100C200050EA01331EBF4FF0FE4040F440007047D1
:100C300001F0004040F0FE4040F40000704700BF6B
:100C4000704700BFAFF30080AFF30080AFF30080C8
:100C5000FEE700BFAFF30080AFF30080AFF300808A
:100C6000FEE700BFAFF30080AFF30080AFF300807A
:100C7000FEE700BFAFF30080AFF30080AFF300806A
:100C8000204B214A2148F0B500249C60DF68204EAB
:100C9000204D4FF6FF0139400A43DA60F26842F016
:100CA0008072F2600268202142F001021026026088
:100CB00083B0DE7783F8221000F042F900F078F874
:100CC00000F006FB00F094FC00F0CAFC284640212E
:100CD00000F006FAA5F1300301229861027784F34F
:100CE000118862B69B690C49996105F1480000942E
:100CF0000A4B4FF4B07100F013FA094B836103B053
:100D0000F0BD00BF00ED00E00003FA05001000E0B8
:100D1000F0ED00E0680C0020D0430008710C0008E2
:100D2000C0430008AFF30080AFF30080AFF3008052
:100D30002DE9F0471B4D4FF08047EC69A96A786AAE
:100D4000A368421A9A4205F11C091AD300264FF0F3
:100D500020082268D4F80CA00B444A45AB62C2F8C4
:100D60000490EA61E66018D086F311882069D047C4
:100D700088F31188EC69786AA96AA368421A9342D9
:100D8000E7D94C450CD00B441B1A012B98BF02230A
:100D90001844BDE8F04700F0E3BC00F0D9FCE3E7FD
:100DA000BDE8F087380C0020AFF30080AFF300807F
:100DB000054B4FF0FF3003F11C020021586299628D
:100DC000DA611A62704700BF380C0020AFF3008070
:100DD000F8B51C4E3446012998BF022154F81C7FF7
:100DE00003614FF08043A7420546C260586A1ED097
:100DF000B46ABB680844041B9C4215D3F3699A6823
:100E0000944204D91B68A41A9A68A242FAD35A6879
:100E10006A602B6015605D60AC609A684FF0FF31CE
:100E2000141B9C607162F8BD00F09AFCE6E7B062AA
:100E3000F561356208442F606F60A960BDE8F84035
:100E400000F07EBC380C0020AFF30080AFF30080D0
:100E50001B4BDA69824210B410D0416802680A6004
:100E600002681C3300249A425160C46003D0836836
:100E700091680B4493605DF8044B70471846116805
:100E800040F81C1F002481424860D46013D092684F
:100E900088689C6A83184FF080428B60506A021BFE
:100EA0009342E8D99B1A012B98BF022318445DF89E
:100EB000044B00F055BC5DF8044B00F049BC00BF8A
:100EC000380C0020AFF30080AFF30080AFF3008058
:100ED00010B4202383F31188037F072B0ED8DFE89B
:100EE00003F0270D0D2308040D08026A93680133EF
:100EF000936090E80C001A60026853604FF0FF3472
:100F0000002281680D4B046202771B689A688A424E
:100F1000FBD25A684260036000211060586081F380
:100F200011885DF8044B7047036A00221A60E5E7F8
:100F3000002383F311885DF8044B7047380C0020C0
:100F4000034B00221B605B601B615B619A60704712
:100F5000380C0020AFF30080AFF30080AFF30080C7
:100F600000228168084B10B4044602771B689A6817
:100F70008A42FBD25A6862602360204614605C603B
:100F80005DF8044B704700BF380C0020AFF30080C1
:100F9000074B99691A6810B4087710681860012423
:100FA0004360147710465DF8044B9A61FFF788B9E7
:100FB000380C0020AFF30080AFF30080AFF3008067
:100FC00030B54B1C87B012D00C4C0D4AA3690546B6
:100FD00001A8FFF7FDFE2846FFF7DAFF049B13B1D7
:100FE00001A8FFF735FFA369186A07B030BD034CAD
:100FF000FFF7CEFFA369186A07B030BD380C002098
:10100000D10E0008AFF30080AFF30080AFF3008093
:10101000144B70B404469D690162A868A1688142BE
:101020004FF000020BD822771B689A689142FBD9D7
:101030005A686260236014605C6070BC70472A77F5
:101040001A46126891688842FBD950686860012688
:101050002A60056055602677294620469C6170BC51
:10106000FFF72EB9380C0020AFF30080AFF30080FB
:10107000044B1A689B6990689B68984294BF002053
:1010800001207047380C0020AFF30080AFF30080E0
:101090000D4A1068036830B4012194695A60002534
:1010A0000177A16813609061257700E01B689A685A
:1010B0008A42FBD85A6862602360214614605C60F3
:1010C00030BCFFF7FDB800BF380C0020AFF3008044
:1010D000FFF7DEBFAFF30080AFF30080AFF3008017
:1010E000F0B50D4CC16365698160002200F12801F3
:1010F0004FF0020E012700F124064561046180F8DB
:101100001CE0877742778263426382612861606175
:1011100046628162C162F0BD380C0020AFF30080EE
:10112000F8B50446202686F3118864390144134E2D
:10113000134D7769C1600B64069B4B6402230D66F7
:1011400000F1240E00250377012100F128038260BD
:10115000817706614761C263457785634563856131
:1011600029463861C0F824E08362C3627061FFF7EA
:101170004FFF85F311882046F8BD00BF380C0020D2
:10118000D9020008AFF30080AFF30080AFF3008016
:1011900008B50146202383F311880820FFF710FFCC
:1011A000002383F3118808BDAFF30080AFF3008004
:1011B00038B50E4B9C69636A206204F124059D4298
:1011C00007D01A6862621846FFF7CAFE636AAB422C
:1011D000F7D1637F9B0704D1636922691A61226991
:1011E00053610F20BDE83840FFF7D2BE380C002015
:1011F000202383F31188FFF7DBBF00BFAFF300802C
:1012000003682BB10022026018461962FFF7A8BEDE
:10121000704700BFAFF30080AFF30080AFF30080F2
:1012200069B1084B10B4024644689B69042083E806
:101230001400236053605DF8044BFFF7C1BE4FF00C
:10124000FF307047380C0020AFF30080AFF3008010
:10125000026890420AD010B41468046003466360C8
:10126000116210465DF8044BFFF77ABE704700BF6D
:10127000014B5B6883607047001000E0AFF30080B3
:101280000F4B10495A688368F0B44F6FC6684168C5
:10129000D0E90445D31ADB1BE41845F100050136FB
:1012A0008B42C6608360C0E9044505D8026893425A
:1012B00038BF0360F0BC70474360F0BC704700BFAC
:1012C000001000E0380C0020AFF30080AFF3008086
:1012D000D0B50C4C86B000234FF0FF326846002694
:1012E000002763670193029303930092CDE904679B
:1012F000FFF7BEFF6846FFF7C3FF029B636706B0B8
:10130000D0BD00BF380C0020AFF30080AFF30080E9
:101310000023006040608360704700BFAFF300802F
:10132000436B027F19430A2A416309D00B2A00D07C
:101330007047036A8B43FBD100230362FFF710BEA3
:10134000036A1942F8D17047AFF30080AFF3008011
:1013500070B50468A0420FD006460D46E3682B43E3
:10136000E36015B12269134203D0A1686068FFF7FA
:10137000D7FF2468A642F1D170BD00BFAFF3008053
:1013800030B4029C046200250A448560026100605A
:101390004060C16081614161C36130BC704700BF82
:1013A000836942699A4210B583680FD00133541C97
:1013B000836044611170426903699A4201D3C36832
:1013C00043610021FFF744FF002010BD002BEDD04A
:1013D0006FF0030010BD00BFAFF30080AFF30080DB
:1013E00070B520230E46044683F31188C3692BB1E0
:1013F000984703E0FFF714FF002815DBA568314686
:101400002046002DF6D0A2692169531C8B4205F1BC
:10141000FF35A361A56028BFE368107828BFA361EA
:10142000002383F3118870BD85F3118870BD00BF60
:101430002DE9F04F044683B0894693461D46D0F807
:101440001C80202787F3118800260197B246B8F147
:10145000000F05D02046C04702E0FFF7E1FED8B9F3
:10146000A76829462046002FF7D0A2697B1E511C91
:10147000A161A360137809F8013B2369A2699A422C
:1014800024BFE368A3618AF311880136B34505D010
:10149000019B83F31188DAE787F31188304603B0A4
:1014A000BDE8F08FAFF30080AFF30080AFF30080B2
:1014B00030B4029C04628D18056100604060826057
:1014C000C16081614161C36130BC7047AFF300808E
:1014D000F8B504460F461646202383F3118803E02F
:1014E000FFF79EFE002818DBA56831462046002D38
:1014F000F6D06369013D5A1C6261A5601F702369C3
:1015000062699A4224BFE3686361E3690BB12046D4
:101510009847002080F31188F8BD85F31188F8BD45
:1015200038B582694369934283680ED00569511CBE
:10153000013383608161A942147801D3C368836158
:101540000021FFF785FE204638BD002BEED06FF05E
:10155000020038BDAFF30080AFF30080AFF300802E
:101560002DE9F04F83B004460D4616460193D0F89E
:101570001C804FF0200989F311880027BA46A36820
:1015800005F1010B591E2046FBB16369A160591C8E
:1015900061612978197023696169994224BFE36800
:1015A0006361B8F1000F00D0C0478AF31188013E93
:1015B00007F1010713D089F31188A3685D46591E0E
:1015C00005F1010B2046002BDFD101990093204645
:1015D000FFF726FE009B0028D1D083F31188384600
:1015E00003B0BDE8F08F00BFAFF30080AFF3008021
:1015F000054A064B0648074922F0070223F0070375
:1016000002600B60704700BF6719002000000120D6
:10161000140E0020100E0020AFF30080AFF3008006
:1016200010B4202383F31188094C0A4B22681968EF
:10163000C31D23F00703891A8B429DBF9B182360AB
:1016400010460020002383F311885DF8044B704797
:10165000140E0020100E0020AFF30080AFF30080C6
:10166000044B054A1A6003F1100000229A60DA6008
:10167000FFF74EBE180E002021160008AFF30080C1
:10168000064A536823F001035360EFF3098368337C
:1016900083F30988002383F31188704730EF00E05B
:1016A000202383F31188124B5B6813F4006302D18B
:1016B00083F31188704710B5F1EE103AEFF3098407
:1016C0000C4B4FF08072DB6844F8083C44F84C2C1B
:1016D000A4F1680383F30988FFF7CAFC18B1064B2D
:1016E00044F8503C10BD054B44F8503C10BD00BFC1
:1016F00000ED00E030EF00E0E9020008EC02000835
:1017000008B500F02DFB074800F092FD00F030F81E
:1017100000F0A6F800F0FCF800F0CAFFBDE80840B1
:1017200000F006B8E0440008AFF30080AFF300809B
:1017300000F0CEBBAFF30080AFF30080AFF30080CA
:101740004FF080430021022258631961DA6070472C
:101750004FF080430022DA60704700BFAFF3008093
:101760004FF0804358637047AFF30080AFF30080C1
:1017700000F0AEBCAFF30080AFF30080AFF30080A9
:1017800000230122027043608360C36003614361F0
:101790001830FFF7BDBD00BFAFF30080AFF300808E
:1017A00010B52023044683F31188416000F0B0FC9B
:1017B00002232370002383F3118810BDAFF3008050
:1017C00038B5202585F311880325C3608260016147
:1017D000057000F0D5FC002383F3118838BD00BFED
:1017E0000C30FFF725BE00BFAFF30080AFF30080E1
:1017F0000C304FF0FF33FFF71BBE00BFAFF300808C
:101800003030FFF7ADBE00BFAFF30080AFF3008014
:1018100030304FF0FF33FFF7A3BE00BFAFF30080BF
:101820000C30FFF7DDBD00BFAFF30080AFF30080E9
:101830000C304FF0FF31FFF7D3BD00BFAFF3008096
:101840003030FFF745BE00BFAFF30080AFF300803C
:1018500030304FF0FF32FFF73BBE00BFAFF30080E8
:1018600000F066BEAFF30080AFF30080AFF30080FE
:1018700070B50E4B044682B040F8043B012600943C
:1018800015460B46606004F1540104F10C00267209
:101890001022FFF775FD00942B4604F1640104F15A
:1018A00030001022FFF704FE02B070BDF0430008C4
:1018B00010B52023044683F3118800F049FE02236B
:1018C0002372002383F3118810BD00BFAFF30080A3
:1018D00038B5436904460D463BB1294604F10C0076
:1018E000FFF75EFD00280BDB38BD04210844FFF73D
:1018F0002FFD294604F10C00FFF752FD0028F3DA12
:10190000201D8021BDE83840FFF722BDAFF30080E5
:1019100000F0AEBEAFF30080AFF30080AFF3008005
:10192000002301220270437083704360704700BF40
:1019300043099B0010B403F1604300F1604404F5D7
:10194000614403F56143090100F01F00012202FA1E
:1019500000F0C9B284F80013C3F8800118605DF884
:10196000044B7047AFF30080AFF30080AFF300800B
:1019700008B5074B074A196801F03D0199601368E3
:101980000BB150689847BDE80840FFF789BE00BF1B
:1019900000600240380E0020AFF30080AFF30080FB
:1019A000084B094819688268890901F03D0110B5A2
:1019B0008C019C600AB1C0689047BDE81040FFF7F9
:1019C0006FBE00BF00600240380E0020AFF3008001
:1019D000084B094819680269090C01F03D0110B56E
:1019E0000C049C600AB140699047BDE81040FFF7C5
:1019F00057BE00BF00600240380E0020AFF30080E9
:101A0000084B094819688269890D01F03D0110B53C
:101A10008C059C600AB1C0699047BDE81040FFF793
:101A20003FBE00BF00600240380E0020AFF30080D0
:101A300008B5074B07485968026A01F03D01D960B3
:101A40000AB1406A9047BDE80840FFF729BE00BFD1
:101A500000600240380E0020AFF30080AFF300803A
:101A6000084B09485968826A890901F03D0110B59F
:101A70008C01DC600AB1C06A9047BDE81040FFF7F6
:101A80000FBE00BF00600240380E0020AFF30080A0
:101A9000084B09485968026B090C01F03D0110B56B
:101AA0000C04DC600AB1406B9047BDE81040FFF7C2
:101AB000F7BD00BF00600240380E0020AFF3008089
:101AC000084B09485968826B890D01F03D0110B53A
:101AD0008C05DC600AB1C06B9047BDE81040FFF791
:101AE000DFBD00BF00600240380E0020AFF3008071
:101AF00008B5074B07481968026C01F03D01996071
:101B00000AB1406C9047BDE80840FFF7C9BD00BF6F
:101B100000640240380E0020AFF30080AFF3008075
:101B2000084B09481968826C890901F03D0110B51C
:101B30008C019C600AB1C06C9047BDE81040FFF773
:101B4000AFBD00BF00640240380E0020AFF300803C
:101B5000084B09481968026D090C01F03D0110B5E8
:101B60000C049C600AB1406D9047BDE81040FFF73F
:101B700097BD00BF00640240380E0020AFF3008024
:101B8000084B09481968826D890D01F03D0110B5B7
:101B90008C059C600AB1C06D9047BDE81040FFF70E
:101BA0007FBD00BF00640240380E0020AFF300800C
:101BB00008B5074B07485968026E01F03D01D9602E
:101BC0000AB1406E9047BDE80840FFF769BD00BF0D
:101BD00000640240380E0020AFF30080AFF30080B5
:101BE000084B09485968826E890901F03D0110B51A
:101BF0008C01DC600AB1C06E9047BDE81040FFF771
:101C00004FBD00BF00640240380E0020AFF30080DB
:101C1000084B09485968026F090C01F03D0110B5E5
:101C20000C04DC600AB1406F9047BDE81040FFF73C
:101C300037BD00BF00640240380E0020AFF30080C3
:101C4000084B09485968826F890D01F03D0110B5B4
:101C50008C05DC600AB1C06F9047BDE81040FFF70B
:101C60001FBD00BF00640240380E0020AFF30080AB
:101C70000E490F4A0F48002310B40B600E4C194652
:101C800001E052F80C0C016044F833100133102BC2
:101C900002F10C02F5D10949094A5DF8044B4FF0F5
:101CA000FF338B60CB609360D3607047B80E002029
:101CB0001C44000810600240380E00200060024002
:101CC00000640240AFF30080AFF30080AFF3008008
:101CD000F8B51F4F467A3D68012404FA06FE1EEA55
:101CE000050F31D11B4C4EEA050504EBC60E15F06D
:101CF000FF0F3D6044F83620CEF8043004D0164C77
:101D0000236B43F40013236315F47F4F16D105684A
:101D10002B6823F01F032B602B6813F00104FBD109
:101D2000077A46683D23BB40212733602C606F61F2
:101D300062B1807AFFF7FCFD2046F8BD064C236BAC
:101D400043F480032363E2E72046F8BD1046F8BD64
:101D5000B80E0020380E002000380240AFF300809B
:101D6000174B4FF0FF311A69002210B419611A6144
:101D7000586959615A61186A124C60F080501862B3
:101D80001A62586A59625A62196C41F0805119649A
:101D9000216841F480712160196F01F44071B1F53F
:101DA000007F03D04FF4803119671A67054A5DF848
:101DB000044B536823F400735360FFF759BF00BF0F
:101DC0000038024000700040AFF30080AFF30080A5
:101DD0002C492D4B4FF080504FF4004208641A609C
:101DE0000B6843F001030B600A68264B9007FBD594
:101DF0009A6822F003029A609A689A6019468B6882
:101E0000204A13F00C03FAD1116801F0F9011160B6
:101E10009360136843F4803313601168194B89038E
:101E2000FBD55A6F42F001025A675A6F1549900765
:101E3000FBD5164B4B600B68134A43F080730B6065
:101E400053685904FCD50F490A680E4B9201FBD523
:101E50000F4A1049996040F2027111609A6842F08D
:101E600002029A601A469368064903F00C03082B95
:101E7000F9D14B6C43F480434B644B6E43F4804385
:101E80004B66704700380240007000400C54410718
:101E9000003C024000100838AFF30080AFF3008030
:101EA0004FF080431A69920701D4FFF7F9BB10B5D0
:101EB00000241C61202383F31188FEF739FF84F38B
:101EC0001188BDE81040FFF7EBBB00BFAFF3008007
:101ED0000F4A1048136C70B443F001031364816817
:101EE0004FF080430022012441F0010142F2CF066D
:101EF0004FF0FF3581609E620821DD621C209A61EF
:101F00005A63DA605A605C611C6070BCFFF710BDF8
:101F100000380240002004E0AFF30080AFF30080FF
:101F200011F00C0F2DE9F04104462ED0C06A036871
:101F30001A6822F01F021A60196811F00101FBD122
:101F40002269077A46689568A36A3D22BA40012053
:101F5000326059609960986045B10523237020462E
:101F6000A8472378052B04BF022323700025256191
:101F7000202383F311884FF0FF3104F11400FFF7A1
:101F80003FF985F31188BDE8F0810569A5B18A069E
:101F900010D52B78DBB16B6873B1C268012A47D9C1
:101FA00069888468520802FB01F104EB4101BDE835
:101FB000F0411847CB0601D4BDE8F0816B68002BD7
:101FC000FAD0C26881685208BDE8F0411847C06A7B
:101FD0000268136823F01F031360136813F00103F2
:101FE000FBD1077A46686D68A26A3D21B94001209D
:101FF0003160536093609060ADB104232370E26858
:10200000A1682046A8472378042B0CD0202383F313
:102010001188002104F11400FFF7F2F8002383F384
:102020001188BDE8F0810222002322702361EDE7D0
:102030008168BDE8F0411847AFF30080AFF300803E
:10204000F8B51E4B1A6800211960930631D51C4C57
:10205000E16A0A68536863B3256955B3136823F0CE
:102060001F031360136813F00103FBD1087AAE68F5
:102070004F68A26A124D3D2101FA00F0012138603B
:1020800053609360916046B105232B702846B0479A
:102090002B78052B04BF02232B70002525612023FC
:1020A00083F311884FF0FF310648FFF7A9F885F355
:1020B0001188BDE8F840FFF7F3BA00BF00200140E7
:1020C000BC0E0020D00E0020AFF30080AFF30080E4
:1020D00010B5084C2046FFF753FB0749074A084B49
:1020E000A162E262236306211220BDE81040FFF7DF
:1020F0001FBC00BFBC0E002000200140A04400080F
:10210000162C0200AFF30080AFF30080AFF3008025
:102110000378012B00D07047114B984210B504464C
:102120000DD01048A26A436803F44003002143F431
:1021300080330124436051609160946010BD034678
:10214000094AC06A0621FFF7C3FDE36A074A1B6814
:1021500007499960536C43F480735364E1E700BF0F
:10216000BC0E002000230140211F0008003802405F
:102170004C200140AFF30080AFF30080AFF300804C
:102180000369016B1A78F0B5002A2BD1C268C56AC1
:102190005C882D688668EE6002FB04F26A60DC6889
:1021A00029602E68826A1969D3F814E09F6944F0A7
:1021B000806046F001042C600024DD6914601C6A14
:1021C0005B6AC2F80CE040F480701761D56214635A
:1021D00053634B0050600DD441F4407141F0010154
:1021E0009160F0BDC268012A94BF41F4807141F44E
:1021F0008471CCE721F0804323F0020343F4407361
:1022000041F4407143F0030341F003019360916096
:10221000F0BD00BFAFF30080AFF30080AFF30080EC
:10222000024A536843F4000353607047002301409F
:10223000F0B43A4E3A4D376B3A4C3B493B4A3C4B33
:1022400047F01F073763376D47F01F07376546684C
:102250006E608668AE60C668EE6006696E6146694B
:102260002E6286696E6206682E60056A6560456A40
:10227000A560856AE560C56A6561056B2562456B89
:102280006562C5692560C46B4C60046C8C60446CED
:10229000CC60846C4C61C46C0C62046D4C62846BC9
:1022A0000C60816D5160C16D9160016ED160416EB5
:1022B0005161816E1162C16E5162416D1160426F58
:1022C0005A60826F9A60C26FDA60D0F880205A61DB
:1022D000D0F884201A62D0F888205A62026F1A60FF
:1022E000D0F89020C3F8042CD0F89420C3F8082C20
:1022F000D0F89820C3F80C2CD0F89C20C3F8142CEC
:10230000D0F8A020C3F8202CD0F8A420C3F8242CA7
:10231000D0F88C20C3F8002CF0BC70470038024085
:10232000000002400004024000080240000C02408D
:1023300000100240AFF30080AFF30080AFF30080E5
:102340002DE9F04F4FF00F0C02F0030EC2F380079F
:10235000C2F3C106C2F341150024C2F3C3124FF009
:1023600001094FF0030830E0D0F820B02BEA030356
:1023700043EA0A030362436809FA04FA23EA0A03F8
:102380003B4343606300D0F808A008FA03F3DB4343
:102390000AEA030A4AEA060AC0F808A0D0F80CA024
:1023A00003EA0A0A4AEA050AC0F80CA0D0F800A01D
:1023B00003EA0A0343EA0E030360490819D07F00C9
:1023C000B600AD004FEA8E0E013404F007039B0007
:1023D00011F0010F02FA03FA0CFA03F3EDD0072C07
:1023E000C2D9D0F824B02BEA030343EA0A034362BC
:1023F000C1E7BDE8F08F00BFAFF30080AFF300800E
:10240000024AD36843F08003D36070470010014054
:10241000F8B5434E756FEF682B68DA059CB24FD460
:10242000202383F3118814F02F0F08D129E0A00690
:1024300069681DD42C68A4B214F02F0F21D0230793
:10244000F5D014F0080F0CBF00218021E00748BF31
:1024500041F02001A20748BF41F04001630748BF97
:1024600041F480712F48FEF773FFA0066968E1D53B
:10247000C9B22B48FFF72CFA2C68A4B214F02F0F26
:10248000DDD1002383F31188390601D5220626D435
:10249000630611D5202383F31188726CB36C204836
:1024A0009A4229D04FF6BF733B406FF04002EB6079
:1024B00000232A6083F31188BDE8F840FFF7F0B8E5
:1024C000202383F311884FF40071301DFEF740FF85
:1024D0006FF480732B60002383F31188A0E720231F
:1024E00083F311881048FFF71BF800280CDB6860A5
:1024F000002383F31188CBE7836B002BD2D0043009
:102500001021FEF725FFCDE708210648FEF720FF42
:102510004FF63F733B4043F04003EB60E8E700BFFA
:10252000F00E0020F40E0020200F0020AFF30080FA
:1025300010B5044C044A20460021FFF799F9034BDB
:10254000636710BDF00E0020012400080010014058
:1025500038B51F4C037A002918BF0C46012B0546DD
:1025600022D06B6F1B4A93422BD002F580629342BC
:1025700027D02168184AB2FBF1F29A60A288E0885D
:10258000218942F4045240F0400042F02C0241F014
:10259000010192B280B289B2002418615961DA60F7
:1025A0001C601A685B6838BD0C4B9842D9D10C4A44
:1025B000536C43F0100353640C212520FFF7B8F946
:1025C000CFE72168074AB2FBF1F29A60D6E700BF75
:1025D000D04400080010014080DE8002F00E002090
:1025E0000038024000BD0105AFF30080AFF300806A
:1025F000F8B51D4EB468E7682568636840F20F13AC
:102600002B40EBB173681A696FF480732360BAB121
:10261000ABB213F0080F0CBF00211021D80748BF40
:1026200041F00401980748BF41F00801580748BF2E
:1026300041F02001D80548BF41F040010A489047C9
:102640006A060CD57B060AD573685B6827F04007DD
:102650006FF040022260E7600BB103489847BDE885
:10266000F840FFF71DB800BF680F0020AFF30080EF
:1026700010B5074C2046FFF753F9064B064AA260F7
:10268000062103F10C02E1602361626110BD00BF0D
:10269000680F00204C44000800440040AFF3008065
:1026A000FFF796BBAFF30080AFF30080AFF300807D
:1026B000704700BFAFF30080AFF30080AFF300803E
:1026C000F0B400F10B073C460D46B1FBF2F602FBFD
:1026D000161101F13003392BC8BF01F13703DBB20A
:1026E00004F8013DB5FBF2F53146002DEDD13A1B62
:1026F000024401E014F8013F00F8013B9042F9D197
:10270000F0BC7047AFF30080AFF30080AFF3008000
:102710002DE9F04F87B016460DF10D0303AA9B1A61
:1027200082460D4601934FF00009834629786A1CC2
:1027300069B125290FD0DBF800001546846858469A
:10274000A047297809F101096A1C0029F1D14846FE
:1027500007B0BDE8F08F69782D2903BFA978AA1CBE
:102760004FF0010A4FF0000A302903BF51780132BF
:102770004FF030084FF02008501C002705E0337858
:102780000436297803EB42070130A1F13003DBB2B4
:10279000092B054607EB8702F3D92A29EFD02E290A
:1027A0004FF0000043D001F0DF024C2A4ED0A1F1DF
:1027B0004402342A00F2F880DFE812F0ED00F6005F
:1027C000F600F600F600ED00F600F600F600F60062
:1027D000F600EB00F600F600F600F600F600B90091
:1027E000F600F6006F00F600F600F600F600F600C0
:1027F000F600F600F600F600F600DF00ED00F60049
:10280000F600F600F600ED00F600F600F600F60021
:10281000F600EB00F600F600F600BB00F600B9008B
:10282000F600F6006F003378043603EB420015F82B
:10283000011BA1F13003DBB2092B00EB8002F4D9BC
:102840002A29F0D001F0DF024C2AB0D12C78002CDC
:1028500000F0AA80A4F144020135342A00F2A380DA
:10286000DFE802F099A1A1A1A199A1A1A1A1A1973D
:10287000A1A1A1A1A165A1A11BA1A1A1A1A1A1A10A
:10288000A1A1A18B99A1A1A1A199A1A1A1A1A19768
:10289000A1A1A167A165A1A11B001022316803A815
:1028A0000436FFF70DFF03ABC01A431E009303ACC1
:1028B0003F1A27EAE777BAF1000F5AD1C7F1000AA9
:1028C000BAF1000F78D021782D297BD05746DBF85C
:1028D000003041469B68584698470137F7D1009B26
:1028E000002BCAEB0909FFF621AFDDF800A0DBF8E9
:1028F000003014F8011B9B680AF1FF3A58469847CC
:10290000BAF1FF3FF3D1009B09F10109002BA8BFE9
:102910009944002F3FF40AAF3C46DBF800304146B3
:102920009B6858469847013CF7D1B944FEE60A2215
:10293000B4E73468374A002C08BF144604362278BE
:1029400000284ED0002A50D00138224601E0431C16
:1029500004D012F8013F0138002BF8D1101B431EA0
:102960003F1A00934FF0200827EAE777BAF1000FEB
:10297000A4D0009B002BB8DACBE7019B32688DF81E
:102980000C201846013B043600934FF0200803AC9E
:102990008EE7082282E73168002906F104062FDB62
:1029A00003A80A227DE72146019B8DF80C101846EA
:1029B000013B009303AC7BE7009B002BA8BF57466D
:1029C00093DAB3E6B8F1300F80D1DBF80020584637
:1029D00092689047009B013B013409F10109009383
:1029E00074E747F6FE70002AAFD127EAE777BAF11D
:1029F000000F0CD14FF0FF3300934FF020085DE73C
:102A00002D2249428DF80C200DF10D00C9E74FF041
:102A100020087EE790450008AFF30080AFF3008008
:102A2000704700BFAFF30080AFF30080AFF30080CA
:102A300008B5094B094A9B69094C9A614FF4005546
:102A40002E46268342F21070FEF7A2FB658342F207
:102A50001070FEF79DFBF4E7380C0020A04500083D
:102A600000080240AFF30080AFF30080AFF30080B6
:102A70000EB400B582B003AA054852F8041B0192B7
:102A8000FFF746FE02B05DF804EB03B0704700BFED
:102A9000F00E0020AFF30080AFF30080AFF30080B2
:102AA000F0B50346A0B31C4F4D1E002087FB034624
:102AB000DC17C4EBA60404EB8406A3EB4603303317
:102AC00005F8013F01302346002CEFD1904206DA91
:102AD0000B1830240130824203F8014BFADC421E0D
:102AE000002AD8BF034610DD4E1E374603460D1898
:102AF00000240134013A17F801EF15F801CC06F86B
:102B000001CF944205F801EDF3DB0022CA54F0BD79
:102B1000002ADDDCF9E700BF67666666AFF3008078
:102B200070B52DED028BBDEEC08A06460D4682B013
:102B300018EE100A31460022FFF7B2FF1DB902B0AD
:102B4000BDEC028B70BD2E23335404462846F0EEB4
:102B5000408AFDF71FFD9FED140B41EC110B00F0B7
:102B600047FAB8EEC88A53EC102B78EEC87ACDE954
:102B7000002317EE900AFDF71FFDDDE90023FDF7A6
:102B80006FFDFEF70DF807EE900AFDEEE77A0134CF
:102B9000344417EE900A2A46214602B0BDEC028B5F
:102BA000BDE87040FFF77CBF00000000000024403B
:102BB00010B5114C012211462046FFF7C1FB01223E
:102BC00020210E48FFF7BCFB204601220221FFF71F
:102BD000B7FB204601220421FFF7B2FB2046012269
:102BE0000821FFF7ADFB204601221021FFF7A8FBCB
:102BF0000023636110BD00BF0010024000040240CA
:102C000038B5064D012420462C83FEF7C1FA6C83AB
:102C10002046BDE83840FEF7BBBA00BF00100240B6
:102C200038B5074D044603095B0004F00F046B61DF
:102C30006400FFF7E5FF6C61BDE83840FFF7E0BFD7
:102C400000100240AFF30080AFF30080AFF30080CC
:102C500038B5224C20254FF47A70FEF799FA658337
:102C60003320FFF7DDFF0120FEF792FA3220FEF756
:102C70008FFA65833220FFF7D3FF0120FEF788FA31
:102C80003220FEF785FA65832820FFF7C9FF01206F
:102C9000FEF77EFA65830820FFF7C2FF0120FEF7EA
:102CA00077FA65830120FFF7BBFF0120FEF770FA7A
:102CB0001E20FEF76DFA65830620FFF7B1FF0120A5
:102CC000FEF766FA65830F20FFF7AAFF0120FEF7E3
:102CD0005FFA3220BDE83840FEF75ABA00040240DD
:102CE000F8B50446007868B12026074D37462F8393
:102CF000FFF796FF0120FEF74BFA6E8314F8010FE1
:102D00000028F4D1F8BD00BF00040240AFF30080FA
:102D100038B5441E451D03E02E2B0AD0AC420CD022
:102D200014F8013F05490648A3F13002092A1A4662
:102D3000F2D8FFF79DFEAC42F2D138BDA84500089D
:102D4000F00E0020AFF30080AFF30080AFF30080FF
:102D50002DE9F04F2DED028B93B0FEF7D1FC00264C
:102D6000FDF78EFF86F3118862B601224FF4005101
:102D70008548864C864DDFED878AFFF7E1FA3146BC
:102D80008548FEF795FD40F2823240218348FFF7E7
:102D9000D7FA40F2823280218048FFF7D1FA804B87
:102DA000009640224FF4E8717E48FEF7B9F9FEF72D
:102DB000DFFC31467C48FEF7F3FCFFF731FA0322D3
:102DC00002217A48FFF7BCFAFFF7F2FEFFF740FF57
:102DD0007748784EFFF784FF06F5006704236B4AB7
:102DE00075497148FEF7ECFC0120FEF7D1F9208807
:102DF0006388A188E28803440B4413449B1026F89F
:102E0000023FB742EAD16D496348DFF8DCA1FFF722
:102E10002FFE44F62060FEF7BBF969495E48FFF7D4
:102E200027FE44F62060FEF7B3F90AF5936B53468C
:102E3000002233F8021F9B450A44FAD1614BD01798
:102E400083FB0232C0EB2220FDF7A4FB4AA3D3E9A7
:102E5000002380468946FDF703FC00225A4BFDF70C
:102E6000FFFBFDF79DFE022100EE100A02A8FFF70E
:102E700057FE02A8FFF734FF5448FFF731FF002642
:102E800000273AF8020FFDF785FB42464B46FDF757
:102E900033FA39A3D3E90023FDF7E2FB00224A4BC2
:102EA000FDF7DEFB02460B46FDF7DAFB02460B465A
:102EB00030463946FDF722FAD34506460F46E0D1A3
:102EC0000022434B9FED438AFDF7F4FC41EC100BCD
:102ED00000F036FA2AA3D3E9002351EC100BFDF7DA
:102EE000BFFBFDF75DFE022100EE100A02A8FFF70E
:102EF00017FE02A8FFF7F4FE37492748FFF7B8FD91
:102F00002B88234D00EE103AB8EE400A02A820EEBE
:102F1000280A012120EE080AFFF702FE02A82E4629
:102F200005F1A807FFF7F4FE2C491B48FFF7A0FDA9
:102F300036F8023F00EE103AB8EE400A012120EECA
:102F4000280A02A820EE080AFFF7EAFD02A8FFF708
:102F5000DFFEB742E8D122490F48FFF789FD21483B
:102F6000FEF716F90D4B20225A830220FFF758FE78
:102F70000120FEF70DF92BE70000006066660A40AD
:102F80000000004033B367400008024058110020A1
:102F90006011002033335340F00E00200004024043
:102FA000312A0008880F0020BC0E002000000240DB
:102FB000AC4500085E11002030460008B04500080E
:102FC000D845000827AE746F0000303FEC4500087C
:102FD0000060824000008039F04500082C4600085F
:102FE0001C460008F049020006120020AFF30080E2
:102FF0002DE9F0432DED068BB0EE40AAF0EE60AA6D
:10300000B0EE419AF0EE619AB54C8BB000F0F8F951
:1030100094F90030B0EE408AF0EE608A013306D0B9
:10302000B0EE490AF0EE690A01F052F840B9B0EE8C
:10303000480AF0EE680A0BB0BDEC068BBDE8F083E1
:10304000B0EE4A0AF0EE6A0A01F042F8054648BBC3
:103050000022002351EC190BFDF770FD0028E6D08B
:10306000A04A94F9003008959FED9B0B01218DE853
:1030700006005A1C8DED02AB8DED049B8DED060B09
:10308000D9D0022BD7D0684601F052F8002800F0C2
:103090009480089B1BB101F08BF9089B03609DEDA8
:1030A000060BC8E70026002751EC1A0B32463B46B8
:1030B000FDF744FDD8B132463B4651EC190BFDF704
:1030C0003DFD054600284FD0864A94F90030019214
:1030D000012100228DED02AB8DED049BCDE9066749
:1030E00000910892002BCED09FED7B0BA3E7B0EEB2
:1030F000480AF0EE680A00F0E3FF0546002861D0B8
:103100000026002751EC180B32463B46FDF716FD12
:1031100000288CD0B0EE4A0AF0EE6A0A00F0D0FF28
:10312000002884D0B0EE490AF0EE690A00F0C8FF2A
:1031300000283FF47CAF94F900306A4A01920421E0
:103140000022022B8DED02AB8DED049BCDE90667CD
:10315000009108926BD0684600F0EAFF002866D024
:10316000089B002B9BD096E7B0EE490AF0EE690A67
:1031700000F0A6FF00283FF45AAF32463B4651EC20
:10318000190BFDF7E5FC00283FF451AF554A2378B1
:10319000089501218DED02AB8DED049B8DE80600B5
:1031A000002B41D050490020022BCDE9060135D13A
:1031B00001F0FEF821230360D2E701F0F9F82123A2
:1031C000036066E7B0EE4A0AF0EE6A0A00F078FFA4
:1031D000002895D0B0EE490AF0EE690A00F070FFC1
:1031E00000288DD0B0EE480AF0EE680A00F070FFBB
:1031F00010BB3C4B2478089001228DED02AB8DED85
:10320000049B8DE80C007CB132463B463046394683
:10321000FDF750FB022CCDE90601C9D0684600F04D
:1032200087FF00289CD1C3E7CDE90667F6E701F0E8
:10323000BFF82223036093E72A4A94F900300895E7
:1032400003218DED02AB8DED049B8DE80600BBB92B
:10325000DFF8A0904FF0604832463B4651EC1A0B25
:10326000CDE90689FDF774FCE0B9684600F060FF1F
:1032700000287FF40EAF01F09BF82223036008E7DB
:10328000DFF874904FF0000832463B4651EC1A0BC1
:10329000CDE90689FDF75CFC80BB94F90030022B78
:1032A000E3D1E8E70022114B51EC190BFDF7D8F9F7
:1032B00006460F4647EC106B00F04AFF304653ECD1
:1032C000102B3946FDF73AFC0028E6D1084B4FF0A9
:1032D0006042CDE90623E0E7000000000000F03F77
:1032E00000080020604600080000F0FF0000E03FFA
:1032F000FFFFEFC7FFFFEF470000F07F00220C4BFE
:1033000051EC190BFDF7ACF906460F4647EC106B74
:1033100000F01EFF304653EC102B3946FDF70EFC33
:103320000028BAD1034B0022CDE90623B5E700BF40
:103330000000E03F0000F0FF00000000000000007F
:10334000D0B52DED048BB0EE409AF0EE609A294C8A
:103350008AB000F0DDFD94F90030B0EE408AF0EE66
:10336000608A01330FD0B0EE490AF0EE690A00F02E
:10337000AFFE40B10026002751EC190B32463B4608
:10338000FDF7E6FB38B9B0EE480AF0EE680A0AB07D
:10339000BDEC048BD0BD184B24780193012200238F
:1033A0008DED049B8DED029B009208936CB9CDE9E5
:1033B0000667684600F0BCFE88B1089BA3B99DED86
:1033C000060B0AB0BDEC048BD0BD32463B463046FE
:1033D0003946FDF76FFA022CCDE90601E9D100F07C
:1033E000E7FF21230360E8E700F0E2FF089B0360AA
:1033F000E5E700BF0008002070460008000000005C
:103400002DE9F04F51EC110B21F0004858EA00046F
:1034100093B03CD053EC102B6D4E23F00044B442DB
:1034200010EE10AA1D462BDC894611EE10EA26D0BC
:10343000B04525DC664EB04577D0002D16461F46B8
:10344000CDE9000175DB4FF0000BBEF1000F2DD16F
:103450005F4B984500F089805E4B98455ED0B9F18E
:10346000804F00F0DE835C4B99451FD1002D1DDBA2
:1034700047EC106B13B0BDE8F04F00F049BD5AB1F6
:1034800004F1404404F5801454EA0A0306D19FED88
:103490004A0B13B0BDE8F08FA045CBDD4F4813B009
:1034A000BDE8F04F00F04CBE4FF0000B47EC106B46
:1034B00000F0FEFD51EC100BBAF1000F1ED0ED0F25
:1034C00005F1FF3A5BEA0A0363D0454B984540F3A8
:1034D0008D8003F10473984540F33884414B9C423E
:1034E00062DDB9F1000F62DD35A3D3E90023104698
:1034F0001946FDF7B5F841EC100BCAE724B1354B7E
:1035000025F040429A42DAD1B9F1000FC0F2CB83E4
:10351000002DC0F2748341EC100BBAE7B9F1000F33
:10352000C0F27A8447EC106BB3E7BEF1000F84D091
:10353000A6E72D4B984529DCA3F15473984582DD0D
:103540004FEA2853A3F2FF33142B40F37F84C3F1D7
:1035500034032EFA03F202FA03F39E457FF473AFAD
:1035600002F00102C2F1020B6FE704F1404303F5E0
:10357000801353EA0A038AD01A4B9C4240F3858396
:10358000B9F1000F13DB9DED000B82E74FF0020B4A
:103590005BE732463B4610461946FCF7ADFE024655
:1035A0000B46FDF787F9B6E7B9F1000F9CDB9FEDFD
:1035B000060B6EE7AFF30080000000000000F03F54
:1035C0009C7500883CE4377E00000000000000008D
:1035D0000000F07F0000F03F0000E03FE8450008F9
:1035E0000000E041FFFFEF3FFFFF3F43B4F5801FC6
:1035F0004FF0000205DAD64BFDF732F86FF03402D7
:103600000C462315D34EC4F31304A3F2FF33134423
:1036100044F07F55B4421A460D9345F4401540F3EB
:103620004983CD4B9C4240F32D849FEDB37B8DEDC0
:10363000087B8DED0E7B9FEDB27B13468DED067BF7
:1036400001330D93A5F580154FF00008DDE9062341
:103650002946CDE90A01FCF74FFEDDE906230646BF
:103660000F46DDE90A01FCF749FE02460B46002041
:10367000BA49FDF71FF903460C46CDE9103402465E
:103680000B4630463946FCF7EBFF6B1043F0005316
:1036900003F5002303EB08050A4600230146CDE9A4
:1036A00002120293DDE902890024CDE904122B46BF
:1036B000224640464946FCF7D3FF02460B463046B9
:1036C0003946FCF719FEDDE9062306460F4620467B
:1036D0002946FCF711FE02460B46DDE90A01FCF71C
:1036E0000BFE42464B46FCF7BBFF02460B463046FC
:1036F0003946FCF701FEDDE91023FCF7B1FFDDE9F7
:103700000445CDE9060122462B4620462946FCF712
:10371000A7FF7DA3D3E9002304460D46FCF7A0FFD5
:103720007BA3D3E90023FCF7E9FD22462B46FCF7F7
:1037300097FF79A3D3E90023FCF7E0FD22462B464F
:10374000FCF78EFF76A3D3E90023FCF7D7FD2246D2
:103750002B46FCF785FF74A3D3E90023FCF7CEFDCD
:1037600022462B46FCF77CFF71A3D3E90023FCF72C
:10377000C5FD224606460F462B4620462946FCF745
:103780006FFF02460B4630463946FCF769FF42465A
:1037900004460D464B46DDE90401FCF7AFFDDDE9CB
:1037A0000623FCF75DFF22462B46FCF7A7FD4246A9
:1037B00006460F464B4640464946FCF751FF00225D
:1037C000674BCDE90A01FCF799FD32463B46FCF711
:1037D00095FD02980D46044622462B464046494632
:1037E000FCF73EFF0022804689465D4B2046294675
:1037F000FCF782FDDDE90A23FCF77EFD02460B465D
:1038000030463946FCF778FDDDE90423FCF728FF54
:10381000224606460F462B46DDE90601FCF720FF4F
:1038200002460B4630463946FCF768FD06460F4611
:1038300002460B4640464946CDE90489FCF75EFD49
:1038400002983DA3D3E9002304460D46FCF708FF88
:10385000DDE904238046894620462946FCF74CFDD5
:1038600002460B4630463946FCF746FD34A3D3E901
:103870000023FCF7F5FE34A3D3E9002306460F46E8
:1038800020462946FCF7ECFE02460B4630463946F8
:10389000FCF734FDDDE90E23FCF730FD06460D98FC
:1038A0000F46FCF777FE324604460D463B4640463F
:1038B0004946FCF723FDDDE90823FCF71FFD2246FE
:1038C0002B46FCF71BFD029822462B46CDE9020150
:1038D000FCF712FDDDE90823FCF70EFD42464B46DE
:1038E000FCF70AFD02460B4630463946FCF704FD5C
:1038F0008046894636E000BF00000000000000005E
:10390000000000000000F03FEF4E454A287ECA3F0D
:1039100065DBC9934A86CD3F01411DA96074D13F43
:103920004D268F515555D53FFFAB6FDBB66DDB3F55
:10393000033333333333E33F000000E009C7EE3F86
:10394000FD033ADC09C7EE3FF5015B14E02F3EBEF4
:10395000000040438E98030079B60B000000F03F52
:10396000000008400BF1FF3353EA0A0300F088819E
:103970009FEDD77B8DED067BDDE900AB53465C46C2
:10398000CDE9003400230093DDE90045504622468E
:103990002B465946FCF7B0FCDDE90223FCF760FE3C
:1039A000524606460F465B4640464946FCF758FEDF
:1039B00002460B4630463946FCF7A0FC22468046BC
:1039C00089462B46DDE90201CDE90489FCF748FE72
:1039D0000B46024606460F4640464946FCF78EFC1B
:1039E000D54B994204460D468A4640F3238101F1A6
:1039F0003F4303F5E003034340F01882B6A3D3E945
:103A00000023DDE90401FCF779FC32468046894653
:103A10003B4620462946FCF76FFC02460B464046D3
:103A20004946FDF7B3F8002840F00082A8464FEA67
:103A300028534FF48012A3F2FE3342FA03F35344A7
:103A4000C3F30A52BD4DA2F2FF321541C3F3130B6B
:103A50000020C2F1140423EA05014BF4801BBAF1E3
:103A6000000F02460B464BFA04FB30463946B8BFFE
:103A7000CBF1000BFCF740FC02460B4606460F4616
:103A8000DDE90401FCF73AFC4FEA0B5A002494A349
:103A9000D3E9002320460D46FCF7E2FD324680467E
:103AA00089463B4620462946FCF726FC02460B4643
:103AB000DDE90401FCF720FC8BA3D3E90023FCF72C
:103AC000CFFD8BA3D3E9002306460F4620462946A7
:103AD000FCF7C6FD02460B4630463946FCF70EFCA5
:103AE00006460F4602460B4640464946FCF706FC92
:103AF00042464B4604460D46FCF7FEFB02460B468B
:103B000030463946FCF7F8FB2246804689462B466C
:103B100020462946FCF7A4FD77A3D3E900230646F7
:103B20000F46FCF79DFD76A3D3E90023FCF7E4FBE9
:103B300032463B46FCF794FD73A3D3E90023FCF720
:103B4000DDFB32463B46FCF78BFD71A3D3E9002336
:103B5000FCF7D2FB32463B46FCF782FD6EA3D3E96D
:103B60000023FCF7CBFB32463B46FCF779FD0246CF
:103B70000B4620462946FCF7BFFB06460F46024689
:103B80000B4620462946FCF76BFD0022CDE90001DB
:103B90004FF0804330463946FCF7AEFB02460B46F9
:103BA000DDE90001FCF786FE424606460F464B461D
:103BB00020462946FCF754FD42464B46FCF79EFB47
:103BC00002460B4630463946FCF796FB22462B460A
:103BD000FCF792FB02460B4600205949FCF78CFB90
:103BE0008A44BAF5801F02460B46C0F25B815146FB
:103BF000DDE90623FCF734FD41EC100B49E404F148
:103C0000404404F5801454EA0B0300F03781BBF103
:103C1000010F7FF480AC024601F1004343EC102B0E
:103C200037E432463B4630463946FCF719FD41EC55
:103C3000100B2EE4434B21F00048984540F31581CA
:103C4000414B0B4403430CD132463B46FCF754FB3B
:103C500002460B46DDE90401FCF784FF00283FF42F
:103C6000E6AE2FA3D3E90023DDE90601FCF7F8FC5B
:103C70002BA3D3E90023FCF7F3FC41EC100B08E481
:103C80009FED297B8DED067B76E6B9F1000FBFF63F
:103C90008EACDDE9003400EE103A04F1004300EE92
:103CA000903AFFF7F6BB02460B4600202449FCF78A
:103CB00001FE2DE49FED1E7B8DED087B8DED0E7BCF
:103CC0009FED037B4FF000088DED067BBEE400BF47
:103CD000000000000000F03FFE822B654715973C76
:103CE00000000000432EE63FEF39FAFE422EE63F89
:103CF000396CA80C615C20BED0A4BE726937663EE8
:103D0000F16BD2C541BDBB3E2CDE25AF6A56113FDB
:103D100093BDBE166CC1663F3E5555555555C53FC2
:103D200059F3F8C21F6EA501000000000000F0BFAB
:103D30000000000000000000FFFF8F40FFFF0F00A9
:103D40000000F03FFFCB904000346F3F6C4B9C4233
:103D50007FF72AAC6B4B9C423FF7C3AB0022694B09
:103D6000FCF7CAFA56A3D3E9002304460D46FCF734
:103D700077FC55A3D3E9002380468946204629468F
:103D8000FCF76EFC0022CDE902015F4B204629467C
:103D9000FCF766FC02460B464DA1D1E90001FCF799
:103DA000ABFA22462B46FCF75BFC02460B46002092
:103DB0005649FCF7A1FA22462B4606460F462046F6
:103DC0002946FCF74DFC02460B4630463946FCF7C7
:103DD00047FC41A3D3E90023FCF742FC02460B4613
:103DE000DDE90201FCF788FA02460B4604460D465F
:103DF00040464946FCF782FA42464B460020CDE950
:103E00000201FCF779FA02460B4620462946FCF7E8
:103E100073FA80468946A5E532463B46002039497B
:103E2000FCF748FD41EC100BFFF733BB2CA3D3E9A3
:103E30000023DDE90601FCF713FC29A3D3E90023E5
:103E4000FCF70EFC41EC100BFFF723BBBEF1000F9B
:103E50007FF42AABC3F1140348FA03F202FA03F326
:103E6000984527D0F346FFF7F7BA284B98453FF718
:103E7000DEADDDE900349A469B4607E602460B4676
:103E8000FFF789BB9FED187B8DED087B9FED187BBD
:103E90008DED0E7B9FED187B4FF480288DED067B1A
:103EA000FFF7D4BB584643EC102B00F0E9F951EC76
:103EB000100B9DE602F00102C2F1020BFFF7CCBA33
:103EC000000000604715F73F44DF5DF80BAE543E3D
:103ED000555555555555D53FFE822B654715F73F2E
:103EE0009C7500883CE4377E0000004003B8E23F48
:103EF00006D0CF43EBFD4C3E000000000000F83F31
:103F0000FEFFEF3F0000F03F0000D03F0000E03F29
:103F10002DE9F041654955EC104B0E462940B14260
:103F200000F09780002D2B4610EE102A73DD2E1521
:103F30007ED0A6F2FF36C3F31303F10743F48013D8
:103F400064D45B00002503EBD27357007610AE46B5
:103F500016214FF400120EEB0200984203DC1B1AEC
:103F600000EB020E15445B00013903EBD7734FEAF7
:103F700052024FEA4707EED18C4620204FF0004214
:103F800009E020D05B00013803EBD7734FEA5202FF
:103F90004FEA470720D09E4502EB0C04F1DA002CD3
:103FA00004EB020C09DBF046BC42CEEB030300D964
:103FB000013B3F1B1144C646E4E7BCF1000FF2DBB6
:103FC0000EF10108F0E7BC421ED8002C04EB020CF5
:103FD00051DB98460023ECE73B4304D04A1C4ED00B
:103FE00001F00103194449086810EB0700F17F5004
:103FF00000F5001048BF41F0004100EB06530A46AF
:1040000043EC102BBDE8F0817346BBE75B0003EB8C
:10401000D273520095E725F00041214329D0ADBB72
:104020002E46D30A153E5205002BFAD0DD0229D4C4
:10403000002100E001465B00DC0201F10100F9D53E
:104040004942C0F1200422FA04F423430E44824082
:104050006FE710EE102A2B4610EE100A2946FCF7E7
:10406000FFFA22462B46FCF749F941EC100BBDE85C
:10407000F081BDE8F081BCF1000FAADBA0E70135BB
:104080000146B1E7202401210020DCE710EE102AD0
:104090002B4620462946FCF72FF902460B46FCF733
:1040A00009FC41EC100BBDE8F08100BF0000F07F7F
:1040B00053EC102B23F0004343EC102B704700BF50
:1040C00010EE903A43F0004000F58010C00F7047AA
:1040D00053EC102B33F0004110B408D01148A3F575
:1040E0008014844208D804205DF8044B70471AB944
:1040F00002205DF8044B704703F1FF43094803F5C4
:10410000E0038342EFD9B1F5801F01D20320EBE732
:10411000054B994201D00020E6E7B2FA82F040094F
:10412000E2E700BFFFFFDF7F0000F07F000000003C
:1041300000207047000000000000000000000000A8
:104140009FED010B704700BF000000000000F87FEA
:10415000F0B553EC102BC3F30A56A6F2FF30132828
:1041600083B019464FEAD37410EE105A2FDC0028A2
:1041700049DB3F4E064103EA060717432CD0760879
:1041800033401D430CD04FF48023132821EA060648
:1041900043FA00F141EA06010CBF4FF0004500254B
:1041A000344800EBC4042A46D4E9004510462B46A7
:1041B0002246FCF7A3F8CDE9000122462B46DDE9B3
:1041C0000001FCF799F841EC100B03B0F0BD332867
:1041D00006DDB0F5806F42D043EC102B03B0F0BD8C
:1041E000A6F213464FF0FF30F0400242F4D04008F0
:1041F0000242D5D04FF0804325EA000043FA06F68C
:1042000046EA0005CCE723F00040104310EE107A98
:10421000E2D0C3F313000743784207431548590C13
:104220003F0B490407F4002700EBC40047EA0103F1
:10423000D0E90067194610463B463246FCF75EF867
:10424000CDE900013B463246DDE90001FCF754F8B8
:1042500021F0004343EAC47141EC100BBEE710EEBD
:10426000100A1946FCF74AF841EC100BB6E700BFFC
:10427000FFFF0F0080460008000000000000000063
:1042800053EC102B70B5C3F30A541946054614BB02
:1042900023F0004111432AD019460022384B394EF1
:1042A00010EE100AFCF7DCF9B54202460B461FDBA4
:1042B000C1F30A54363C2C4440F2FE7084421FDCA9
:1042C000002C2DDD21F0FF4121F4E00141EA0453EF
:1042D00043EC102B70BD40F2FF708442EBD110EE26
:1042E000100A1946FCF70AF841EC100B70BD70BDBE
:1042F0001FA3D3E90023FCF7B3F941EC100B70BD09
:1043000043EC112B9FED1C0B00F042F81AA3D3E9EC
:10431000002351EC100BFCF7A3F941EC100B70BD1E
:1043200014F1350F13DA4CF250318D4243EC112B5E
:10433000E8DC9FED0F0B00F02BF80DA3D3E9002371
:1043400051EC100BFCF78CF941EC100B70BD21F017
:10435000FF4121F4E001363441EA04531046194686
:104360000022094BFCF77CF941EC100B70BD00BF3B
:1043700059F3F8C21F6EA5019C7500883CE4377E96
:1043800000005043B03CFFFF0000903CAFF30080C2
:1043900053EC102B11EE900A23F0004100F0004086
:1043A00041EA000343EC102B704700BF00000000FF
:1043B000014B1868704700BF300C0020000000005F
:1043C00069646C650000000000000000000000004F
:1043D0006D61696E00160118040444080C1014186D
:1043E000001C1D1E00000000000000000000000076
:1043F00011180008F11700085118000831180008BA
:10440000411800082118000801180008E1170008E9
:10441000106002400860024000000B00286002406B
:104420000860024006010C00406002400860024043
:1044300010020D00586002400860024016030E0092
:10444000706002400C60024000040F00886002406F
:104450000C60024006051000A06002400C600240A3
:1044600010061100B86002400C60024016072F00D1
:1044700010640240086402400008380028640240CA
:1044800008640240060939004064024008640240A2
:10449000100A3A005864024008640240160B3B00C0
:1044A000706402400C640240000C3C0088640240CE
:1044B0000C640240060D4400A06402400C640240FB
:1044C000100E4500B86402400C640240160F46000E
:1044D00000C20100000000400000000000000000D9
:1044E00000AAA02A00000000FFABFFFF540001401B
:1044F000FFFF00000000565500AA0A0080200800B7
:1045000040020000FFFFFFFF15451155FFFF0000AF
:1045100000000004400000000180200200000000B4
:10452000FFFFFFFF54154554FFFF0000000000602F
:10453000000606000001005500000000FFFFFFFF1D
:1045400055505500FF0F0000000000000000000063
:104550004000000000000000FFFFFFFF000000001F
:10456000FFFF00000000000000000000000000004D
:10457000000000000F000000000000000300000029
:10458000000000000000000000000000000000002B
:10459000286E756C6C29000000000000000000000F
:1045A000626C696E6B65720025630000200000007C
:1045B00041542B43495053544152543D225443508B
:1045C000222C223139322E3136382E302E313522FE
:1045D0002C38300D0A00000041542B4349505345FC
:1045E0004E443D3339350D0A000000002020000004
:1045F000474554202F7E737373696C7661722F5711
:1046000065625F506C6174666F726D2F7068702F99
:1046100064622E7068703F76613D5B005D20485497
:1046200054502F312E300D0A0D0A00002C000000CE
:104630000000010000000000212A00080000000026
:10464000000000400000000000000000000000002A
:104650000000000001000000000000000000000059
:10466000706F7700000000000000000000000000F4
:104670007371727400000000000000000000000070
:10468000000000000000304300000000000030C3C4
:0446900043000000E3
:10469800010000000000000000000000F40A0020F3
:1046A8005C0B0020C40B002000000000000000008C
:1046B80000000000000000000000000000000000F2
:1046C8000000000000000000000000009046000804
:1046D80000000000000000000000000000000000D2
:1046E80000000000000000000000000000000000C2
:1046F80000000000000000000000000000000000B2
:1047080000000000000000000000000000000000A1
:104718000000000000000000000000000000000091
:104728000000000000000000000000000000000081
:104738000000000000000000000000000000000071
:1047480001000000000000000E33CDAB34126DE60E
:10475800ECDE05000B000000000000000000000077
:104768000000000000000000000000000000000041
:104778000000000000000000000000000000000031
:104788000000000000000000000000000000000021
:104798000000000000000000000000000000000011
:044AC80008080020BA
:04000005080001C12D
:00000001FF
