:020000040800F2
:1000000000040020C1010008610C0008610C000818
:10001000610C0008610C0008610C0008610C00080C
:10002000610C0008610C0008610C000861160008F2
:10003000610C0008610C0008610C0008610C0008EC
:10004000610C0008610C0008610C0008610C0008DC
:10005000610C0008610C0008610C0008610C0008CC
:10006000610C0008610C0008610C0008610C0008BC
:10007000610C0008610C0008610C0008610C0008AC
:10008000610C0008610C0008610C0008610C00089C
:10009000610C0008610C0008610C0008610C00088C
:1000A000610C0008610C0008610C0008610C00087C
:1000B000D1190008610C0008610C0008610C0008EF
:1000C000610C0008610C0008610C0008610C00085C
:1000D000610C0008610C0008311C0008610C00086C
:1000E000610C0008610C0008610C0008610C00083C
:1000F000610C0008610C0008610C0008610C00082C
:10010000610C0008610C0008610C0008610C00081B
:10011000610C0008610C0008610C0008610C00080B
:10012000610C0008610C0008610C0008610C0008FB
:10013000610C0008610C0008610C0008610C0008EB
:10014000610C0008610C0008610C0008610C0008DB
:10015000610C0008610C0008610C0008610C0008CB
:10016000610C0008610C0008610C0008610C0008BB
:10017000610C0008610C0008610C0008610C0008AB
:10018000610C0008610C0008610C0008610C00089B
:10019000610C0008610C0008610C0008610C00088B
:1001A000610C0008610C0008610C0008610C00087B
:1001B000610C0008610C0008610C0008610C00086B
:1001C00072B62E4880F3098840F20000CCF200009D
:1001D0004EF63471CEF20001086040F20000C0F229
:1001E000F0004EF68851CEF2000108604FF000009A
:1001F000E1EE100A4EF63C71CEF2000108600620D6
:1002000080F31488BFF36F8F01F0B2FD1C481D49C5
:100210001D4A91423CBF41F8040BFAE71B49174ABB
:1002200091423CBF41F8040BFAE71949194A1A4BAD
:100230009A423EBF51F8040B42F8040BF8E7002045
:100240001649174A91423CBF41F8040BFAE700F007
:10025000F7FC144C144DAC4203DA54F8041B8847E5
:10026000F9E701F0EDFE114C114DAC4203DA54F800
:10027000041B8847F9E700F0EBBC000000080020F1
:1002800055555555000000200004002000040020B2
:10029000E834000800080020340C0020380C00204E
:1002A00080100020C0010008C0010008C001000843
:1002B000C001000800000000000000000000000075
:1002C0002DE9F04F2DED108AC1F80CD0D0F80CD0EC
:1002D000BDEC108ABDE8F08F002383F31188284617
:1002E000A047002000F084FF00F0F2FE00DFFEE7F0
:1002F00081F0004102E000BF83F0004330B54FEAD7
:1003000041044FEA430594EA050F08BF90EA020F43
:100310001FBF54EA000C55EA020C7FEA645C7FEAD6
:10032000655C00F0E2804FEA5454D4EB5555B8BFF9
:100330006D420CDD2C4480EA020281EA030382EA6A
:10034000000083EA010180EA020281EA0303362DFC
:1003500088BF30BD11F0004F4FEA01314FF4801CCF
:100360004CEA113102D0404261EB410113F0004FE1
:100370004FEA03334CEA133302D0524263EB430398
:1003800094EA050F00F0A780A4F10104D5F1200E36
:100390000DDB02FA0EFC22FA05F2801841F1000191
:1003A00003FA0EF2801843FA05F359410EE0A5F165
:1003B00020050EF1200E012A03FA0EFC28BF4CF096
:1003C000020C43FA05F3C01851EBE37101F000454C
:1003D00007D54FF0000EDCF1000C7EEB00006EEB59
:1003E0000101B1F5801F1BD3B1F5001F0CD34908E3
:1003F0005FEA30004FEA3C0C04F101044FEA44523A
:1004000012F5800F80F09A80BCF1004F08BF5FEAC0
:10041000500C50F1000041EB045141EA050130BDA0
:100420005FEA4C0C404141EB010111F4801FA4F143
:100430000104E9D191F0000F04BF01460020B1FA98
:1004400081F308BF2033A3F10B03B3F120020CDAD0
:100450000C3208DD02F1140CC2F10C0201FA0CF0AE
:1004600021FA02F10CE002F11402D8BFC2F1200C13
:1004700001FA02F120FA0CFCDCBF41EA0C019040C9
:10048000E41AA2BF01EB0451294330BD6FEA040412
:100490001F3C1CDA0C340EDC04F11404C4F12002FD
:1004A00020FA04F001FA02F340EA030021FA04F30F
:1004B00045EA030130BDC4F10C04C4F1200220FA66
:1004C00002F001FA04F340EA0300294630BD21FAA4
:1004D00004F0294630BD94F0000F83F4801306BF6A
:1004E00081F480110134013D4EE77FEA645C18BF5E
:1004F0007FEA655C29D094EA050F08BF90EA020FF5
:1005000005D054EA000C04BF1946104630BD91EAEC
:10051000030F1EBF0021002030BD5FEA545C05D1EF
:100520004000494128BF41F0004130BD14F580042E
:100530003CBF01F5801130BD01F0004545F0FE41A2
:1005400041F470014FF0000030BD7FEA645C1ABFD7
:10055000194610467FEA655C1CBF0B46024650EA0E
:10056000013406BF52EA033591EA030F41F400213A
:1005700030BD00BF90F0000F04BF0021704730B5C0
:100580004FF4806404F132044FF000054FF0000195
:1005900050E700BF90F0000F04BF0021704730B556
:1005A0004FF4806404F1320410F0004548BF40422B
:1005B0004FF000013EE700BF42004FEAE2014FEA80
:1005C00031014FEA02701FBF12F07F4393F07F4F5B
:1005D00081F06051704792F0000F14BF93F07F4F8D
:1005E000704730B54FF4607401F0004521F00041D0
:1005F00020E700BF50EA010208BF704730B54FF056
:1006000000050AE050EA010208BF704730B511F05A
:10061000004502D5404261EB41014FF4806404F192
:1006200032045FEA915C3FF4DCAE4FF003025FEA14
:10063000DC0C18BF03325FEADC0C18BF033202EB9C
:10064000DC02C2F1200300FA03FC20FA02F001FAF6
:1006500003FE40EA0E0021FA02F11444C1E600BF95
:1006600070B54FF0FF0C4CF4E06C1CEA11541DBF48
:100670001CEA135594EA0C0F95EA0C0F00F0DEF813
:100680002C4481EA030621EA4C5123EA4C5350EAF8
:10069000013518BF52EA033541F4801143F4801349
:1006A00038D0A0FB02CE4FF00005E1FB02E506F0DA
:1006B0000042E0FB03E54FF00006E1FB03569CF02F
:1006C000000F18BF4EF0010EA4F1FF04B6F5007F35
:1006D00064F5407404D25FEA4E0E6D4146EB0606A7
:1006E00042EAC62141EA55514FEAC52040EA5E5030
:1006F0004FEACE2EB4F1FD0C88BFBCF5E06F1ED8DA
:10070000BEF1004F08BF5FEA500E50F1000041EB10
:10071000045170BD06F0004646EA010140EA0200BD
:1007200081EA0301B4EB5C04C2BFD4EB0C0541EADF
:10073000045170BD41F480114FF0000E013C00F3F4
:10074000AB8014F1360FDEBF002001F0004170BD18
:10075000C4F10004203C35DA0C341BDC04F1140431
:10076000C4F1200500FA05F320FA04F001FA05F2BD
:1007700040EA020001F0004221F0004110EBD3708A
:1007800021FA04F642EB06015EEA430E08BF20EAB6
:10079000D37070BDC4F10C04C4F1200500FA04F359
:1007A00020FA05F001FA04F240EA020001F00041EB
:1007B00010EBD37041F100015EEA430E08BF20EA5E
:1007C000D37070BDC4F1200500FA05F24EEA020EA6
:1007D00020FA04F301FA05F243EA020321FA04F0D5
:1007E00001F0004121FA04F220EA020000EBD3708C
:1007F0005EEA430E08BF20EAD37070BD94F0000F8C
:100800000FD101F00046400041EB010111F4801FBF
:1008100008BF013CF7D041EA060195F0000F18BF70
:10082000704703F00046520043EB030313F4801FAC
:1008300008BF013DF7D043EA0603704794EA0C0F66
:100840000CEA135518BF95EA0C0F0CD050EA41067C
:1008500018BF52EA4306D1D181EA030101F00041F9
:100860004FF0000070BD50EA410606BF1046194621
:1008700052EA430619D094EA0C0F02D150EA01362D
:1008800013D195EA0C0F05D152EA03361CBF10466E
:1008900019460AD181EA030101F0004141F0FE410D
:1008A00041F470014FF0000070BD41F0FE4141F491
:1008B000780170BD70B54FF0FF0C4CF4E06C1CEA91
:1008C00011541DBF1CEA135594EA0C0F95EA0C0F46
:1008D00000F0A7F8A4EB050481EA030E52EA033501
:1008E0004FEA013100F088804FEA03334FF0805522
:1008F00045EA131343EA12634FEA022245EA11154F
:1009000045EA10654FEA00260EF000419D4208BFFF
:10091000964244F1FD0404F5407402D25B084FEAAC
:100920003202B61A65EB03055B084FEA32024FF458
:1009300080104FF4002CB6EB020E75EB030E22BFB5
:10094000B61A754640EA0C005B084FEA3202B6EB75
:10095000020E75EB030E22BFB61A754640EA5C0024
:100960005B084FEA3202B6EB020E75EB030E22BFB4
:10097000B61A754640EA9C005B084FEA3202B6EBB5
:10098000020E75EB030E22BFB61A754640EADC0074
:1009900055EA060E18D04FEA051545EA16754FEAD6
:1009A00006164FEAC30343EA52734FEAC2025FEAF4
:1009B0001C1CC0D111F4801F0BD141EA00014FF083
:1009C00000004FF0004CB6E711F4801F04BF014354
:1009D0000020B4F1FD0C88BFBCF5E06F3FF6AFAE70
:1009E000B5EB030C04BFB6EB020C5FEA500C50F100
:1009F000000041EB045170BD0EF0004E4EEA113183
:100A000014EB5C04C2BFD4EB0C0541EA045170BD89
:100A100041F480114FF0000E013C90E645EA060ECD
:100A20008DE60CEA135594EA0C0F08BF95EA0C0FFB
:100A30003FF43BAF94EA0C0F0AD150EA01347FF443
:100A400034AF95EA0C0F7FF425AF104619462CE71A
:100A500095EA0C0F06D152EA03353FF4FDAE10467D
:100A6000194622E750EA410618BF52EA43067FF4CE
:100A7000C5AE50EA41047FF40DAF52EA43057FF45E
:100A8000EBAE12E7000000000000000000000000D4
:100A90004FF0FF3C06E000BF4FF0010C02E000BF4A
:100AA0004FF0010C4DF804CD4FEA410C7FEA6C5C2D
:100AB0004FEA430C18BF7FEA6C5C1BD001B050EAD0
:100AC000410C0CBF52EA430C91EA030F02BF90EABB
:100AD000020F0020704710F1000F91EA030F58BF7A
:100AE000994208BF90422CBFD8176FEAE37040F0DC
:100AF000010070474FEA410C7FEA6C5C02D150EA7A
:100B0000013C07D14FEA430C7FEA6C5CD6D152EA34
:100B1000033CD3D05DF8040B704700BF84461046F9
:100B200062468C461946634600E000BF01B5FFF7F8
:100B3000B7FF002848BF10F1000F01BD4DF808EDC8
:100B4000FFF7F4FF0CBF012000205DF808FB00BF99
:100B50004DF808EDFFF7EAFF34BF012000205DF8F3
:100B600008FB00BF4DF808EDFFF7E0FF94BF012040
:100B700000205DF808FB00BF4DF808EDFFF7CEFF41
:100B800094BF012000205DF808FB00BF4DF808ED80
:100B9000FFF7C4FF34BF012000205DF808FB00BF51
:100BA0004FEA4102B2F1E04324BFB3F5001CDCF18F
:100BB000FE5C0DD901F0004C4FEAC0024CEA5070C7
:100BC000B2F1004F40EB830008BF20F001007047F6
:100BD00011F0804F21D113F13872BCBF01F00040F9
:100BE000704741F480114FEA5252C2F11802C2F12B
:100BF000200C10FA0CF320FA02F018BF40F00100AC
:100C00004FEAC1234FEAD32303FA0CFC40EA0C005D
:100C100023FA02F34FEA4303CCE77FEA625307D19A
:100C200050EA01331EBF4FF0FE4040F440007047D1
:100C300001F0004040F0FE4040F40000704700BF6B
:100C4000704700BFAFF30080AFF30080AFF30080C8
:100C5000FEE700BFAFF30080AFF30080AFF300808A
:100C6000FEE700BFAFF30080AFF30080AFF300807A
:100C7000FEE700BFAFF30080AFF30080AFF300806A
:100C8000204B214A2148F0B500249C60DF68204EAB
:100C9000204D4FF6FF0139400A43DA60F26842F016
:100CA0008072F2600268202142F001021026026088
:100CB00083B0DE7783F8221000F042F900F078F874
:100CC00000F0F6FA00F084FC00F0BAFC284640215F
:100CD00000F006FAA5F1300301229861027784F34F
:100CE000118862B69B690C49996105F1480000942E
:100CF0000A4B4FF4B07100F013FA094B836103B053
:100D0000F0BD00BF00ED00E00003FA05001000E0B8
:100D1000F0ED00E0680C0020C0330008710C000802
:100D2000B0330008AFF30080AFF30080AFF3008072
:100D30002DE9F0471B4D4FF08047EC69A96A786AAE
:100D4000A368421A9A4205F11C091AD300264FF0F3
:100D500020082268D4F80CA00B444A45AB62C2F8C4
:100D60000490EA61E66018D086F311882069D047C4
:100D700088F31188EC69786AA96AA368421A9342D9
:100D8000E7D94C450CD00B441B1A012B98BF02230A
:100D90001844BDE8F04700F0CBBC00F0C1FCE3E72D
:100DA000BDE8F087380C0020AFF30080AFF300807F
:100DB000054B4FF0FF3003F11C020021586299628D
:100DC000DA611A62704700BF380C0020AFF3008070
:100DD000F8B51C4E3446012998BF022154F81C7FF7
:100DE00003614FF08043A7420546C260586A1ED097
:100DF000B46ABB680844041B9C4215D3F3699A6823
:100E0000944204D91B68A41A9A68A242FAD35A6879
:100E10006A602B6015605D60AC609A684FF0FF31CE
:100E2000141B9C607162F8BD00F082FCE6E7B062C2
:100E3000F561356208442F606F60A960BDE8F84035
:100E400000F066BC380C0020AFF30080AFF30080E8
:100E50001B4BDA69824210B410D0416802680A6004
:100E600002681C3300249A425160C46003D0836836
:100E700091680B4493605DF8044B70471846116805
:100E800040F81C1F002481424860D46013D092684F
:100E900088689C6A83184FF080428B60506A021BFE
:100EA0009342E8D99B1A012B98BF022318445DF89E
:100EB000044B00F03DBC5DF8044B00F031BC00BFBA
:100EC000380C0020AFF30080AFF30080AFF3008058
:100ED00010B4202383F31188037F072B0ED8DFE89B
:100EE00003F0270D0D2308040D08026A93680133EF
:100EF000936090E80C001A60026853604FF0FF3472
:100F0000002281680D4B046202771B689A688A424E
:100F1000FBD25A684260036000211060586081F380
:100F200011885DF8044B7047036A00221A60E5E7F8
:100F3000002383F311885DF8044B7047380C0020C0
:100F4000034B00221B605B601B615B619A60704712
:100F5000380C0020AFF30080AFF30080AFF30080C7
:100F600000228168084B10B4044602771B689A6817
:100F70008A42FBD25A6862602360204614605C603B
:100F80005DF8044B704700BF380C0020AFF30080C1
:100F9000074B99691A6810B4087710681860012423
:100FA0004360147710465DF8044B9A61FFF788B9E7
:100FB000380C0020AFF30080AFF30080AFF3008067
:100FC00030B54B1C87B012D00C4C0D4AA3690546B6
:100FD00001A8FFF7FDFE2846FFF7DAFF049B13B1D7
:100FE00001A8FFF735FFA369186A07B030BD034CAD
:100FF000FFF7CEFFA369186A07B030BD380C002098
:10100000D10E0008AFF30080AFF30080AFF3008093
:10101000144B70B404469D690162A868A1688142BE
:101020004FF000020BD822771B689A689142FBD9D7
:101030005A686260236014605C6070BC70472A77F5
:101040001A46126891688842FBD950686860012688
:101050002A60056055602677294620469C6170BC51
:10106000FFF72EB9380C0020AFF30080AFF30080FB
:10107000044B1A689B6990689B68984294BF002053
:1010800001207047380C0020AFF30080AFF30080E0
:101090000D4A1068036830B4012194695A60002534
:1010A0000177A16813609061257700E01B689A685A
:1010B0008A42FBD85A6862602360214614605C60F3
:1010C00030BCFFF7FDB800BF380C0020AFF3008044
:1010D000FFF7DEBFAFF30080AFF30080AFF3008017
:1010E000F0B50D4CC16365698160002200F12801F3
:1010F0004FF0020E012700F124064561046180F8DB
:101100001CE0877742778263426382612861606175
:1011100046628162C162F0BD380C0020AFF30080EE
:10112000F8B50446202686F3118864390144134E2D
:10113000134D7769C1600B64069B4B6402230D66F7
:1011400000F1240E00250377012100F128038260BD
:10115000817706614761C263457785634563856131
:1011600029463861C0F824E08362C3627061FFF7EA
:101170004FFF85F311882046F8BD00BF380C0020D2
:10118000D9020008AFF30080AFF30080AFF3008016
:1011900008B50146202383F311880820FFF710FFCC
:1011A000002383F3118808BDAFF30080AFF3008004
:1011B00038B50E4B9C69636A206204F124059D4298
:1011C00007D01A6862621846FFF7CAFE636AAB422C
:1011D000F7D1637F9B0704D1636922691A61226991
:1011E00053610F20BDE83840FFF7D2BE380C002015
:1011F000202383F31188FFF7DBBF00BFAFF300802C
:1012000069B1084B10B4024644689B69042083E826
:101210001400236053605DF8044BFFF7D1BE4FF01C
:10122000FF307047380C0020AFF30080AFF3008030
:10123000026890420AD010B41468046003466360E8
:10124000116210465DF8044BFFF78ABE704700BF7D
:10125000014B5B6883607047001000E0AFF30080D3
:101260000F4B10495A688368F0B44F6FC6684168E5
:10127000D0E90445D31ADB1BE41845F1000501361B
:101280008B42C6608360C0E9044505D8026893427A
:1012900038BF0360F0BC70474360F0BC704700BFCC
:1012A000001000E0380C0020AFF30080AFF30080A6
:1012B000D0B50C4C86B000234FF0FF3268460026B4
:1012C000002763670193029303930092CDE90467BB
:1012D000FFF7BEFF6846FFF7C3FF029B636706B0D8
:1012E000D0BD00BF380C0020AFF30080AFF300800A
:1012F0000023006040608360704700BFAFF3008050
:10130000436B027F19430A2A416309D00B2A00D09C
:101310007047036A8B43FBD100230362FFF720BEB3
:10132000036A1942F8D17047AFF30080AFF3008031
:1013300070B50468A0420FD006460D46E3682B4303
:10134000E36015B12269134203D0A1686068FFF71A
:10135000D7FF2468A642F1D170BD00BFAFF3008073
:1013600030B4029C046200250A448560026100607A
:101370004060C16081614161C36130BC704700BFA2
:10138000836942699A4210B583680FD00133541CB7
:10139000836044611170426903699A4201D3C36852
:1013A00043610021FFF744FF002010BD002BEDD06A
:1013B0006FF0030010BD00BFAFF30080AFF30080FB
:1013C00070B520230E46044683F31188C3692BB100
:1013D000984703E0FFF714FF002815DBA5683146A6
:1013E0002046002DF6D0A2692169531C8B4205F1DD
:1013F000FF35A361A56028BFE368107828BFA3610B
:10140000002383F3118870BD85F3118870BD00BF80
:101410002DE9F04F044683B0894693461D46D0F827
:101420001C80202787F3118800260197B246B8F167
:10143000000F05D02046C04702E0FFF7E1FED8B913
:10144000A76829462046002FF7D0A2697B1E511CB1
:10145000A161A360137809F8013B2369A2699A424C
:1014600024BFE368A3618AF311880136B34505D030
:10147000019B83F31188DAE787F31188304603B0C4
:10148000BDE8F08FAFF30080AFF30080AFF30080D2
:1014900030B4029C04628D18056100604060826077
:1014A000C16081614161C36130BC7047AFF30080AE
:1014B000F8B504460F461646202383F3118803E04F
:1014C000FFF79EFE002818DBA56831462046002D58
:1014D000F6D06369013D5A1C6261A5601F702369E3
:1014E00062699A4224BFE3686361E3690BB12046F5
:1014F0009847002080F31188F8BD85F31188F8BD66
:1015000038B582694369934283680ED00569511CDE
:10151000013383608161A942147801D3C368836178
:101520000021FFF785FE204638BD002BEED06FF07E
:10153000020038BDAFF30080AFF30080AFF300804E
:101540002DE9F04F83B004460D4616460193D0F8BE
:101550001C804FF0200989F311880027BA46A36840
:1015600005F1010B591E2046FBB16369A160591CAE
:1015700061612978197023696169994224BFE36820
:101580006361B8F1000F00D0C0478AF31188013EB3
:1015900007F1010713D089F31188A3685D46591E2E
:1015A00005F1010B2046002BDFD101990093204665
:1015B000FFF726FE009B0028D1D083F31188384620
:1015C00003B0BDE8F08F00BFAFF30080AFF3008041
:1015D000054A064B0648074922F0070223F0070395
:1015E00002600B60704700BF8710002000000120E0
:1015F000140E0020100E0020AFF30080AFF3008027
:1016000010B4202383F31188094C0A4B226819680F
:10161000C31D23F00703891A8B429DBF9B182360CB
:1016200010460020002383F311885DF8044B7047B7
:10163000140E0020100E0020AFF30080AFF30080E6
:10164000044B054A1A6003F1100000229A60DA6028
:10165000FFF74EBE180E002001160008AFF3008001
:10166000064A536823F001035360EFF3098368339C
:1016700083F30988002383F31188704730EF00E07B
:10168000202383F31188124B5B6813F4006302D1AB
:1016900083F31188704710B5F1EE103AEFF3098427
:1016A0000C4B4FF08072DB6844F8083C44F84C2C3B
:1016B000A4F1680383F30988FFF7DAFC18B1064B3D
:1016C00044F8503C10BD054B44F8503C10BD00BFE1
:1016D00000ED00E030EF00E0E9020008EC02000855
:1016E00008B500F0D5F8054800F0B2F900F068F848
:1016F00000F046FBBDE8084000F002B800340008E6
:1017000000F07EB9AFF30080AFF30080AFF300804C
:101710004FF080430021022258631961DA6070475C
:101720004FF080430022DA60704700BFAFF30080C3
:101730004FF0804358637047AFF30080AFF30080F1
:101740000C30FFF765BE00BFAFF30080AFF3008041
:101750000C304FF0FF33FFF75BBE00BFAFF30080EC
:101760003030FFF7EDBE00BFAFF30080AFF3008075
:1017700030304FF0FF33FFF7E3BE00BFAFF3008020
:101780000C30FFF71DBE00BFAFF30080AFF3008049
:101790000C304FF0FF31FFF713BE00BFAFF30080F6
:1017A0003030FFF785BE00BFAFF30080AFF300809D
:1017B00030304FF0FF32FFF77BBE00BFAFF3008049
:1017C00000F0C6BAAFF30080AFF30080AFF3008043
:1017D00070B50E4B044682B040F8043B01260094DD
:1017E00015460B46606004F1540104F10C002672AA
:1017F0001022FFF7B5FD00942B4604F1640104F1BB
:1018000030001022FFF744FE02B070BDE033000844
:1018100038B5436904460D463BB1294604F10C0036
:10182000FFF7AEFD00280BDB38BD04210844FFF7AD
:101830007FFD294604F10C00FFF7A2FD0028F3DA32
:10184000201D8021BDE83840FFF772BDAFF3008056
:1018500043099B0010B403F1604300F1604404F5B8
:10186000614403F56143090100F01F00012202FAFF
:1018700000F0C9B284F80013C3F8800118605DF865
:10188000044B7047AFF30080AFF30080AFF30080EC
:10189000164B4FF0FF311A69002210B419611A611A
:1018A000586959615A61186A114C60F08050186289
:1018B0001A62586A59625A62196C41F0805119646F
:1018C000216841F480712160196F01F44071B1F514
:1018D000007F03D04FF4803119671A67044A5DF81E
:1018E000044B536823F40073536070470038024080
:1018F00000700040AFF30080AFF30080AFF30080D2
:101900002C492D4B4FF080504FF4004208641A6070
:101910000B6843F001030B600A68264B9007FBD568
:101920009A6822F003029A609A689A6019468B6856
:10193000204A13F00C03FAD1116801F0F90111608B
:101940009360136843F4803313601168194B890363
:10195000FBD55A6F42F001025A675A6F154990073A
:10196000FBD5164B4B600B68134A43F080730B603A
:1019700053685904FCD50F490A680E4B9201FBD5F8
:101980000F4A1049996040F2027111609A6842F062
:1019900002029A601A469368064903F00C03082B6A
:1019A000F9D14B6C43F480434B644B6E43F480435A
:1019B0004B66704700380240007000400C544107ED
:1019C000003C024000100838AFF30080AFF3008005
:1019D0004FF080431A69920701D4FFF751BE10B54A
:1019E00000241C61202383F31188FFF7A1F984F3FD
:1019F0001188BDE81040FFF743BE00BFAFF3008081
:101A00000F4A1048136C70B443F0010313648168EB
:101A10004FF080430022012441F0010142F2CF0641
:101A20004FF0FF3581609E620821DD621C209A61C3
:101A30005A63DA605A605C611C6070BCFFF708BFD3
:101A400000380240002004E0AFF30080AFF30080D4
:101A5000F0B43A4E3A4D376B3A4C3B493B4A3C4B1B
:101A600047F01F073763376D47F01F073765466834
:101A70006E608668AE60C668EE6006696E61466933
:101A80002E6286696E6206682E60056A6560456A28
:101A9000A560856AE560C56A6561056B2562456B71
:101AA0006562C5692560C46B4C60046C8C60446CD5
:101AB000CC60846C4C61C46C0C62046D4C62846BB1
:101AC0000C60816D5160C16D9160016ED160416E9D
:101AD0005161816E1162C16E5162416D1160426F40
:101AE0005A60826F9A60C26FDA60D0F880205A61C3
:101AF000D0F884201A62D0F888205A62026F1A60E7
:101B0000D0F89020C3F8042CD0F89420C3F8082C07
:101B1000D0F89820C3F80C2CD0F89C20C3F8142CD3
:101B2000D0F8A020C3F8202CD0F8A420C3F8242C8F
:101B3000D0F88C20C3F8002CF0BC7047003802406D
:101B4000000002400004024000080240000C024075
:101B500000100240AFF30080AFF30080AFF30080CD
:101B60002DE9F04F4FF00F0C02F0030EC2F3800787
:101B7000C2F3C106C2F341150024C2F3C3124FF0F1
:101B800001094FF0030830E0D0F820B02BEA03033E
:101B900043EA0A030362436809FA04FA23EA0A03E0
:101BA0003B4343606300D0F808A008FA03F3DB432B
:101BB0000AEA030A4AEA060AC0F808A0D0F80CA00C
:101BC00003EA0A0A4AEA050AC0F80CA0D0F800A005
:101BD00003EA0A0343EA0E030360490819D07F00B1
:101BE000B600AD004FEA8E0E013404F007039B00EF
:101BF00011F0010F02FA03FA0CFA03F3EDD0072CEF
:101C0000C2D9D0F824B02BEA030343EA0A034362A3
:101C1000C1E7BDE8F08F00BFAFF30080AFF30080F5
:101C2000024AD36843F08003D36070470044004009
:101C3000F8B5434E756FEF682B68DA059CB24FD448
:101C4000202383F3118814F02F0F08D129E0A00678
:101C500069681DD42C68A4B214F02F0F21D023077B
:101C6000F5D014F0080F0CBF00218021E00748BF19
:101C700041F02001A20748BF41F04001630748BF7F
:101C800041F480712F48FFF753FBA0066968E1D546
:101C9000C9B22B48FFF7BCFD2C68A4B214F02F0F7B
:101CA000DDD1002383F31188390601D5220626D41D
:101CB000630611D5202383F31188726CB36C20481E
:101CC0009A4229D04FF6BF733B406FF04002EB6061
:101CD00000232A6083F31188BDE8F840FFF7D0BCE9
:101CE000202383F311884FF40071301DFFF720FB90
:101CF0006FF480732B60002383F31188A0E7202307
:101D000083F311881048FFF7FBFB00280CDB6860A9
:101D1000002383F31188CBE7836B002BD2D00430F0
:101D20001021FFF705FBCDE708210648FFF700FB70
:101D30004FF63F733B4043F04003EB60E8E700BFE2
:101D4000380E00203C0E0020680E0020AFF300800B
:101D500010B5044C044A20460021FFF739FD034B1F
:101D6000636710BD380E0020211C000800440040AD
:101D7000FFF7C6BDAFF30080AFF30080AFF3008084
:101D8000704700BFAFF30080AFF30080AFF3008077
:101D900008B5094B094A9B69094C9A614FF40055F3
:101DA0002E46268342F21070FFF7F2F9658342F265
:101DB0001070FFF7EDF9F4E7380C0020B03400089C
:101DC00000080240AFF30080AFF30080AFF3008063
:101DD000F0B50346A0B31C4F4D1E002087FB034601
:101DE000DC17C4EBA60404EB8406A3EB46033033F4
:101DF00005F8013F01302346002CEFD1904206DA6E
:101E00000B1830240130824203F8014BFADC421EE9
:101E1000002AD8BF034610DD4E1E374603460D1874
:101E200000240134013A17F801EF15F801CC06F847
:101E300001CF944205F801EDF3DB0022CA54F0BD56
:101E4000002ADDDCF9E700BF67666666AFF3008055
:101E500070B52DED028BBDEEC08A06460D4682B0F0
:101E600018EE100A31460022FFF7B2FF1DB902B08A
:101E7000BDEC028B70BD2E23335404462846F0EE91
:101E8000408AFEF787FB9FED140B41EC110B00F02D
:101E900007F9B8EEC88A53EC102B78EEC87ACDE972
:101EA000002317EE900AFEF787FBDDE90023FEF71B
:101EB000D7FBFEF775FE07EE900AFDEEE77A0134D8
:101EC000344417EE900A2A46214602B0BDEC028B3C
:101ED000BDE87040FFF77CBF000000000000244018
:101EE00010B5114C012211462046FFF739FE0122A0
:101EF00020210E48FFF734FE204601220221FFF781
:101F00002FFE204601220421FFF72AFE204601224F
:101F10000821FFF725FE204601221021FFF720FEB1
:101F20000023636110BD00BF0010024000040240A6
:101F300038B5064D012420462C83FFF729F96C8320
:101F40002046BDE83840FFF723B900BF001002402B
:101F500038B5074D044603095B0004F00F046B61BC
:101F60006400FFF7E5FF6C61BDE83840FFF7E0BFB4
:101F700000100240AFF30080AFF30080AFF30080A9
:101F800038B5224C20254FF47A70FFF701F96583AC
:101F90003320FFF7DDFF0120FFF7FAF83220FFF7CB
:101FA000F7F865833220FFF7D3FF0120FFF7F0F841
:101FB0003220FFF7EDF865832820FFF7C9FF0120E5
:101FC000FFF7E6F865830820FFF7C2FF0120FFF75F
:101FD000DFF865830120FFF7BBFF0120FFF7D8F88A
:101FE0001E20FFF7D5F865830620FFF7B1FF01201B
:101FF000FFF7CEF865830F20FFF7AAFF0120FFF758
:10200000C7F83220BDE83840FFF7C2B800040240EC
:10201000F8B50446007868B12026074D37462F836F
:10202000FFF796FF0120FFF7B3F86E8314F8010F56
:102030000028F4D1F8BD00BF00040240AFF30080D7
:1020400000B593B0FFF74CFBFEF71AFE01224FF4E8
:1020500000510F48FFF784FDFFF742FFFFF790FFA5
:102060000023009340220B4B0B484FF4E871FFF71D
:1020700057F802A804219FED090AFFF7E9FE02A81C
:10208000FFF7C6FF42F21070FFF782F8FAE700BFD1
:1020900000080240911D0008B00E0020FEB4054368
:1020A0002DE9F0432DED068BB0EE40AAF0EE60AACC
:1020B000B0EE419AF0EE619AB54C8BB000F098F911
:1020C00094F90030B0EE408AF0EE608A013306D019
:1020D000B0EE490AF0EE690A00F0F2FF40B9B0EE46
:1020E000480AF0EE680A0BB0BDEC068BBDE8F08341
:1020F000B0EE4A0AF0EE6A0A00F0E2FF054648BB7D
:102100000022002351EC190BFEF718FD0028E6D041
:10211000A04A94F9003008959FED9B0B01218DE8B2
:1021200006005A1C8DED02AB8DED049B8DED060B68
:10213000D9D0022BD7D0684600F0F2FF002800F07B
:102140009480089B1BB101F02BF9089B03609DED67
:10215000060BC8E70026002751EC1A0B32463B4617
:10216000FEF7ECFCD8B132463B4651EC190BFEF7BA
:10217000E5FC054600284FD0864A94F900300192CC
:10218000012100228DED02AB8DED049BCDE90667A8
:1021900000910892002BCED09FED7B0BA3E7B0EE11
:1021A000480AF0EE680A00F083FF0546002861D077
:1021B0000026002751EC180B32463B46FEF7BEFCCA
:1021C00000288CD0B0EE4A0AF0EE6A0A00F070FFE8
:1021D000002884D0B0EE490AF0EE690A00F068FFEA
:1021E00000283FF47CAF94F900306A4A0192042140
:1021F0000022022B8DED02AB8DED049BCDE906672D
:10220000009108926BD0684600F08AFF002866D0E3
:10221000089B002B9BD096E7B0EE490AF0EE690AC6
:1022200000F046FF00283FF45AAF32463B4651ECDF
:10223000190BFEF78DFC00283FF451AF554A237867
:10224000089501218DED02AB8DED049B8DE8060014
:10225000002B41D050490020022BCDE9060135D199
:1022600001F09EF821230360D2E701F099F82123C1
:10227000036066E7B0EE4A0AF0EE6A0A00F018FF63
:10228000002895D0B0EE490AF0EE690A00F010FF80
:1022900000288DD0B0EE480AF0EE680A00F010FF7A
:1022A00010BB3C4B2478089001228DED02AB8DEDE4
:1022B000049B8DE80C007CB132463B4630463946E3
:1022C000FEF7F8FA022CCDE90601C9D0684600F005
:1022D00027FF00289CD1C3E7CDE90667F6E701F0A8
:1022E0005FF82223036093E72A4A94F900300895A7
:1022F00003218DED02AB8DED049B8DE80600BBB98B
:10230000DFF8A0904FF0604832463B4651EC1A0B84
:10231000CDE90689FEF71CFCE0B9684600F000FF35
:1023200000287FF40EAF01F03BF82223036008E79A
:10233000DFF874904FF0000832463B4651EC1A0B20
:10234000CDE90689FEF704FC80BB94F90030022B2E
:10235000E3D1E8E70022114B51EC190BFEF780F9AD
:1023600006460F4647EC106B00F0EAFE304653EC91
:10237000102B3946FEF7E2FB0028E6D1084B4FF060
:102380006042CDE90623E0E7000000000000F03FD6
:1023900000080020C03400080000F0FF0000E03F0B
:1023A000FFFFEFC7FFFFEF470000F07F00220C4B5D
:1023B00051EC190BFEF754F906460F4647EC106B2B
:1023C00000F0BEFE304653EC102B3946FEF7B6FB4C
:1023D0000028BAD1034B0022CDE90623B5E700BFA0
:1023E0000000E03F0000F0FF0000000000000000DF
:1023F0002DE9F04F51EC110B21F0004858EA000490
:1024000093B03CD053EC102B6D4E23F00044B442FB
:1024100010EE10AA1D462BDC894611EE10EA26D0DC
:10242000B04525DC664EB04577D0002D16461F46D8
:10243000CDE9000175DB4FF0000BBEF1000F2DD18F
:102440005F4B984500F089805E4B98455ED0B9F1AE
:10245000804F00F0DE835C4B99451FD1002D1DDBC2
:1024600047EC106B13B0BDE8F04F00F049BD5AB116
:1024700004F1404404F5801454EA0A0306D19FEDA8
:102480004A0B13B0BDE8F08FA045CBDD4F4813B029
:10249000BDE8F04F00F04CBE4FF0000B47EC106B66
:1024A00000F0FEFD51EC100BBAF1000F1ED0ED0F45
:1024B00005F1FF3A5BEA0A0363D0454B984540F3C8
:1024C0008D8003F10473984540F33884414B9C425E
:1024D00062DDB9F1000F62DD35A3D3E900231046B8
:1024E0001946FEF7BDF841EC100BCAE724B1354B95
:1024F00025F040429A42DAD1B9F1000FC0F2CB8305
:10250000002DC0F2748341EC100BBAE7B9F1000F53
:10251000C0F27A8447EC106BB3E7BEF1000F84D0B1
:10252000A6E72D4B984529DCA3F15473984582DD2D
:102530004FEA2853A3F2FF33142B40F37F84C3F1F7
:1025400034032EFA03F202FA03F39E457FF473AFCD
:1025500002F00102C2F1020B6FE704F1404303F500
:10256000801353EA0A038AD01A4B9C4240F38583B6
:10257000B9F1000F13DB9DED000B82E74FF0020B6A
:102580005BE732463B4610461946FDF7B5FE02466C
:102590000B46FEF78FF9B6E7B9F1000F9CDB9FED14
:1025A000060B6EE7AFF30080000000000000F03F74
:1025B0009C7500883CE4377E0000000000000000AD
:1025C0000000F07F0000F03F0000E03FB43300085F
:1025D0000000E041FFFFEF3FFFFF3F43B4F5801FE6
:1025E0004FF0000205DAD64BFEF73AF86FF03402EE
:1025F0000C462315D34EC4F31304A3F2FF33134444
:1026000044F07F55B4421A460D9345F4401540F30B
:102610004983CD4B9C4240F32D849FEDB37B8DEDE0
:10262000087B8DED0E7B9FEDB27B13468DED067B17
:1026300001330D93A5F580154FF00008DDE9062361
:102640002946CDE90A01FDF757FEDDE906230646D6
:102650000F46DDE90A01FDF751FE02460B46002058
:10266000BA49FEF727F903460C46CDE91034024675
:102670000B4630463946FDF7F3FF6B1043F000532D
:1026800003F5002303EB08050A4600230146CDE9C4
:1026900002120293DDE902890024CDE904122B46DF
:1026A000224640464946FDF7DBFF02460B463046D0
:1026B0003946FDF721FEDDE9062306460F46204692
:1026C0002946FDF719FE02460B46DDE90A01FDF732
:1026D00013FE42464B46FDF7C3FF02460B4630460B
:1026E0003946FDF709FEDDE91023FDF7B9FFDDE905
:1026F0000445CDE9060122462B4620462946FDF732
:10270000AFFF7DA3D3E9002304460D46FDF7A8FFE4
:102710007BA3D3E90023FDF7F1FD22462B46FDF70D
:102720009FFF79A3D3E90023FDF7E8FD22462B465E
:10273000FDF796FF76A3D3E90023FDF7DFFD2246E0
:102740002B46FDF78DFF74A3D3E90023FDF7D6FDDB
:1027500022462B46FDF784FF71A3D3E90023FDF742
:10276000CDFD224606460F462B4620462946FDF75C
:1027700077FF02460B4630463946FDF771FF424669
:1027800004460D464B46DDE90401FDF7B7FDDDE9E2
:102790000623FDF765FF22462B46FDF7AFFD4246B7
:1027A00006460F464B4640464946FDF759FF002274
:1027B000674BCDE90A01FDF7A1FD32463B46FDF727
:1027C0009DFD02980D46044622462B46404649464A
:1027D000FDF746FF0022804689465D4B204629468C
:1027E000FDF78AFDDDE90A23FDF786FD02460B466B
:1027F00030463946FDF780FDDDE90423FDF730FF63
:10280000224606460F462B46DDE90601FDF728FF66
:1028100002460B4630463946FDF770FD06460F4628
:1028200002460B4640464946CDE90489FDF766FD60
:1028300002983DA3D3E9002304460D46FDF710FF9F
:10284000DDE904238046894620462946FDF754FDEC
:1028500002460B4630463946FDF74EFD34A3D3E918
:102860000023FDF7FDFE34A3D3E9002306460F46FF
:1028700020462946FDF7F4FE02460B46304639460F
:10288000FDF73CFDDDE90E23FDF738FD06460D980A
:102890000F46FDF77FFE324604460D463B46404656
:1028A0004946FDF72BFDDDE90823FDF727FD22460C
:1028B0002B46FDF723FD029822462B46CDE9020167
:1028C000FDF71AFDDDE90823FDF716FD42464B46EC
:1028D000FDF712FD02460B4630463946FDF70CFD6A
:1028E0008046894636E000BF00000000000000007E
:1028F000000000000000F03FEF4E454A287ECA3F2E
:1029000065DBC9934A86CD3F01411DA96074D13F63
:102910004D268F515555D53FFFAB6FDBB66DDB3F75
:10292000033333333333E33F000000E009C7EE3FA6
:10293000FD033ADC09C7EE3FF5015B14E02F3EBE14
:10294000000040438E98030079B60B000000F03F72
:10295000000008400BF1FF3353EA0A0300F08881BE
:102960009FEDD77B8DED067BDDE900AB53465C46E2
:10297000CDE9003400230093DDE9004550462246AE
:102980002B465946FDF7B8FCDDE90223FDF768FE4A
:10299000524606460F465B4640464946FDF760FEF6
:1029A00002460B4630463946FDF7A8FC22468046D3
:1029B00089462B46DDE90201CDE90489FDF750FE89
:1029C0000B46024606460F4640464946FDF796FC32
:1029D000D54B994204460D468A4640F3238101F1C6
:1029E0003F4303F5E003034340F01882B6A3D3E965
:1029F0000023DDE90401FDF781FC3246804689466B
:102A00003B4620462946FDF777FC02460B464046EA
:102A10004946FEF7BBF8002840F00082A8464FEA7E
:102A200028534FF48012A3F2FE3342FA03F35344C7
:102A3000C3F30A52BD4DA2F2FF321541C3F3130B8B
:102A40000020C2F1140423EA05014BF4801BBAF103
:102A5000000F02460B464BFA04FB30463946B8BF1E
:102A6000CBF1000BFDF748FC02460B4606460F462D
:102A7000DDE90401FDF742FC4FEA0B5A002494A360
:102A8000D3E9002320460D46FDF7EAFD3246804695
:102A900089463B4620462946FDF72EFC02460B465A
:102AA000DDE90401FDF728FC8BA3D3E90023FDF742
:102AB000D7FD8BA3D3E9002306460F4620462946BF
:102AC000FDF7CEFD02460B4630463946FDF716FCB3
:102AD00006460F4602460B4640464946FDF70EFCA9
:102AE00042464B4604460D46FDF706FC02460B46A1
:102AF00030463946FDF700FC2246804689462B4683
:102B000020462946FDF7ACFD77A3D3E9002306460E
:102B10000F46FDF7A5FD76A3D3E90023FDF7ECFBF7
:102B200032463B46FDF79CFD73A3D3E90023FDF736
:102B3000E5FB32463B46FDF793FD71A3D3E9002345
:102B4000FDF7DAFB32463B46FDF78AFD6EA3D3E97B
:102B50000023FDF7D3FB32463B46FDF781FD0246DD
:102B60000B4620462946FDF7C7FB06460F460246A0
:102B70000B4620462946FDF773FD0022CDE90001F2
:102B80004FF0804330463946FDF7B6FB02460B4610
:102B9000DDE90001FDF78EFE424606460F464B4634
:102BA00020462946FDF75CFD42464B46FDF7A6FB55
:102BB00002460B4630463946FDF79EFB22462B4621
:102BC000FDF79AFB02460B4600205949FDF794FB9E
:102BD0008A44BAF5801F02460B46C0F25B8151461B
:102BE000DDE90623FDF73CFD41EC100B49E404F15F
:102BF000404404F5801454EA0B0300F03781BBF124
:102C0000010F7FF480AC024601F1004343EC102B2E
:102C100037E432463B4630463946FDF721FD41EC6C
:102C2000100B2EE4434B21F00048984540F31581EA
:102C3000414B0B4403430CD132463B46FDF75CFB52
:102C400002460B46DDE90401FDF78CFF00283FF446
:102C5000E6AE2FA3D3E90023DDE90601FDF700FD71
:102C60002BA3D3E90023FDF7FBFC41EC100B08E498
:102C70009FED297B8DED067B76E6B9F1000FBFF65F
:102C80008EACDDE9003400EE103A04F1004300EEB2
:102C9000903AFFF7F6BB02460B4600202449FDF7A9
:102CA00009FE2DE49FED1E7B8DED087B8DED0E7BE7
:102CB0009FED037B4FF000088DED067BBEE400BF67
:102CC000000000000000F03FFE822B654715973C96
:102CD00000000000432EE63FEF39FAFE422EE63FA9
:102CE000396CA80C615C20BED0A4BE726937663E08
:102CF000F16BD2C541BDBB3E2CDE25AF6A56113FFC
:102D000093BDBE166CC1663F3E5555555555C53FE2
:102D100059F3F8C21F6EA501000000000000F0BFCB
:102D20000000000000000000FFFF8F40FFFF0F00C9
:102D30000000F03FFFCB904000346F3F6C4B9C4253
:102D40007FF72AAC6B4B9C423FF7C3AB0022694B29
:102D5000FDF7D2FA56A3D3E9002304460D46FDF74A
:102D60007FFC55A3D3E900238046894620462946A7
:102D7000FDF776FC0022CDE902015F4B2046294693
:102D8000FDF76EFC02460B464DA1D1E90001FDF7AF
:102D9000B3FA22462B46FDF763FC02460B460020A1
:102DA0005649FDF7A9FA22462B4606460F4620460D
:102DB0002946FDF755FC02460B4630463946FDF7DD
:102DC0004FFC41A3D3E90023FDF74AFC02460B4622
:102DD000DDE90201FDF790FA02460B4604460D4676
:102DE00040464946FDF78AFA42464B460020CDE967
:102DF0000201FDF781FA02460B4620462946FDF7FF
:102E00007BFA80468946A5E532463B460020394993
:102E1000FDF750FD41EC100BFFF733BB2CA3D3E9BA
:102E20000023DDE90601FDF71BFC29A3D3E90023FC
:102E3000FDF716FC41EC100BFFF723BBBEF1000FB2
:102E40007FF42AABC3F1140348FA03F202FA03F346
:102E5000984527D0F346FFF7F7BA284B98453FF738
:102E6000DEADDDE900349A469B4607E602460B4696
:102E7000FFF789BB9FED187B8DED087B9FED187BDD
:102E80008DED0E7B9FED187B4FF480288DED067B3A
:102E9000FFF7D4BB584643EC102B00F0E9F951EC96
:102EA000100B9DE602F00102C2F1020BFFF7CCBA53
:102EB000000000604715F73F44DF5DF80BAE543E5D
:102EC000555555555555D53FFE822B654715F73F4E
:102ED0009C7500883CE4377E0000004003B8E23F68
:102EE00006D0CF43EBFD4C3E000000000000F83F51
:102EF000FEFFEF3F0000F03F0000D03F0000E03F4A
:102F00002DE9F041654955EC104B0E462940B14280
:102F100000F09780002D2B4610EE102A73DD2E1541
:102F20007ED0A6F2FF36C3F31303F10743F48013F8
:102F300064D45B00002503EBD27357007610AE46D5
:102F400016214FF400120EEB0200984203DC1B1A0C
:102F500000EB020E15445B00013903EBD7734FEA17
:102F600052024FEA4707EED18C4620204FF0004234
:102F700009E020D05B00013803EBD7734FEA52021F
:102F80004FEA470720D09E4502EB0C04F1DA002CF3
:102F900004EB020C09DBF046BC42CEEB030300D984
:102FA000013B3F1B1144C646E4E7BCF1000FF2DBD6
:102FB0000EF10108F0E7BC421ED8002C04EB020C15
:102FC00051DB98460023ECE73B4304D04A1C4ED02B
:102FD00001F00103194449086810EB0700F17F5024
:102FE00000F5001048BF41F0004100EB06530A46CF
:102FF00043EC102BBDE8F0817346BBE75B0003EBAD
:10300000D273520095E725F00041214329D0ADBB92
:103010002E46D30A153E5205002BFAD0DD0229D4E4
:10302000002100E001465B00DC0201F10100F9D55E
:103030004942C0F1200422FA04F423430E448240A2
:103040006FE710EE102A2B4610EE100A2946FDF706
:1030500007FB22462B46FDF751F941EC100BBDE86A
:10306000F081BDE8F081BCF1000FAADBA0E70135DB
:103070000146B1E7202401210020DCE710EE102AF0
:103080002B4620462946FDF737F902460B46FDF749
:1030900011FC41EC100BBDE8F08100BF0000F07F97
:1030A00053EC102B23F0004343EC102B704700BF70
:1030B00010EE903A43F0004000F58010C00F7047CA
:1030C00053EC102B33F0004110B408D01148A3F595
:1030D0008014844208D804205DF8044B70471AB964
:1030E00002205DF8044B704703F1FF43094803F5E4
:1030F000E0038342EFD9B1F5801F01D20320EBE753
:10310000054B994201D00020E6E7B2FA82F040096F
:10311000E2E700BFFFFFDF7F0000F07F000000005C
:1031200000207047000000000000000000000000C8
:103130009FED010B704700BF000000000000F87F0A
:10314000F0B553EC102BC3F30A56A6F2FF30132848
:1031500083B019464FEAD37410EE105A2FDC0028C2
:1031600049DB3F4E064103EA060717432CD0760899
:1031700033401D430CD04FF48023132821EA060668
:1031800043FA00F141EA06010CBF4FF0004500256B
:10319000344800EBC4042A46D4E9004510462B46C7
:1031A0002246FDF7ABF8CDE9000122462B46DDE9CA
:1031B0000001FDF7A1F841EC100B03B0F0BD33287E
:1031C00006DDB0F5806F42D043EC102B03B0F0BDAC
:1031D000A6F213464FF0FF30F0400242F4D0400810
:1031E0000242D5D04FF0804325EA000043FA06F6AC
:1031F00046EA0005CCE723F00040104310EE107AB9
:10320000E2D0C3F313000743784207431548590C33
:103210003F0B490407F4002700EBC40047EA010311
:10322000D0E90067194610463B463246FDF766F87E
:10323000CDE900013B463246DDE90001FDF75CF8CF
:1032400021F0004343EAC47141EC100BBEE710EEDD
:10325000100A1946FDF752F841EC100BB6E700BF13
:10326000FFFF0F00D0340008000000000000000045
:1032700053EC102B70B5C3F30A541946054614BB22
:1032800023F0004111432AD019460022384B394E11
:1032900010EE100AFDF7E4F9B54202460B461FDBBB
:1032A000C1F30A54363C2C4440F2FE7084421FDCC9
:1032B000002C2DDD21F0FF4121F4E00141EA04530F
:1032C00043EC102B70BD40F2FF708442EBD110EE46
:1032D000100A1946FDF712F841EC100B70BD70BDD5
:1032E0001FA3D3E90023FDF7BBF941EC100B70BD20
:1032F00043EC112B9FED1C0B00F042F81AA3D3E90D
:10330000002351EC100BFDF7ABF941EC100B70BD35
:1033100014F1350F13DA4CF250318D4243EC112B7E
:10332000E8DC9FED0F0B00F02BF80DA3D3E9002391
:1033300051EC100BFDF794F941EC100B70BD21F02E
:10334000FF4121F4E001363441EA045310461946A6
:103350000022094BFDF784F941EC100B70BD00BF52
:1033600059F3F8C21F6EA5019C7500883CE4377EB6
:1033700000005043B03CFFFF0000903CAFF30080E2
:1033800053EC102B11EE900A23F0004100F00040A6
:1033900041EA000343EC102B704700BF000000001F
:1033A000014B1868704700BF300C0020000000007F
:1033B00069646C650000000000000000000000006F
:1033C0006D61696E00160118040444080C1014188D
:1033D000001C1D1E00000000000000000000000096
:1033E0007117000851170008B1170008911700085D
:1033F000A11700088117000861170008411700088D
:1034000000AAA02A00000000FFABFFFF540001400B
:10341000FFFF00000000565500AA0A0080200800A7
:1034200040020000FFFFFFFF15451155FFFF0000A0
:1034300000000004400000000180200200000000A5
:10344000FFFFFFFF54154554FFFF00000000006020
:10345000000606000001005500000000FFFFFFFF0E
:1034600055505500FF0F0000000000000000000054
:103470004000000000000000FFFFFFFF0000000010
:10348000FFFF00000000000000000000000000003E
:10349000000000000F00000000000000030000001A
:1034A000000000000000000000000000000000001C
:1034B000626C696E6B657200000000000000000025
:1034C000706F7700000000000000000000000000A6
:1034D000000000000000304300000000000030C386
:0434E00043000000A5
:1034E800010000000000000000000000F40A0020B5
:1034F8005C0B0020C40B002000000000000000004E
:1035080000000000000000000000000000000000B3
:10351800000000000000000000000000E034000887
:103528000000000000000000000000000000000093
:103538000000000000000000000000000000000083
:103548000000000000000000000000000000000073
:103558000000000000000000000000000000000063
:103568000000000000000000000000000000000053
:103578000000000000000000000000000000000043
:103588000000000000000000000000000000000033
:1035980001000000000000000E33CDAB34126DE6D0
:1035A800ECDE05000B000000000000000000000039
:1035B8000000000000000000000000000000000003
:1035C80000000000000000000000000000000000F3
:1035D80000000000000000000000000000000000E3
:1035E80000000000000000000000000000000000D3
:04391800080800207B
:04000005080001C12D
:00000001FF
