:020000040800F2
:1000000000040020C10100081103000811030008CA
:100010001103000811030008110300081103000870
:10002000110300081103000811030008511F000804
:100030001103000811030008110300081103000850
:100040001103000811030008110300081103000840
:100050001103000811030008110300081103000830
:100060001103000811030008110300081103000820
:100070001103000811030008110300081103000810
:100080001103000811030008110300081103000800
:1000900011030008110300081103000811030008F0
:1000A00011030008110300081103000811030008E0
:1000B000E1220008110300081103000811030008E1
:1000C00011030008110300081103000811030008C0
:1000D000110300081103000841250008110300085E
:1000E00011030008110300081103000811030008A0
:1000F0001103000811030008110300081103000890
:10010000110300081103000811030008110300087F
:10011000110300081103000811030008110300086F
:10012000110300081103000811030008110300085F
:10013000110300081103000811030008110300084F
:10014000110300081103000811030008110300083F
:10015000110300081103000811030008110300082F
:10016000110300081103000811030008110300081F
:10017000110300081103000811030008110300080F
:1001800011030008110300081103000811030008FF
:1001900011030008110300081103000811030008EF
:1001A00011030008110300081103000811030008DF
:1001B00011030008110300081103000811030008CF
:1001C00072B62E4880F3098840F20000CCF200009D
:1001D0004EF63471CEF20001086040F20000C0F229
:1001E000F0004EF68851CEF2000108604FF000009A
:1001F000E1EE100A4EF63C71CEF2000108600620D6
:1002000080F31488BFF36F8F02F08AFA1C481D49EF
:100210001D4A91423CBF41F8040BFAE71B49174ABB
:1002200091423CBF41F8040BFAE71949194A1A4BAD
:100230009A423EBF51F8040B42F8040BF8E7002045
:100240001649174A91423CBF41F8040BFAE700F007
:100250004FF8144C144DAC4203DA54F8041B884791
:10026000F9E705F035FF114C114DAC4203DA54F8B3
:10027000041B8847F9E700F043B80000000800209D
:1002800055555555000000200004002000040020B2
:10029000C86E000800080020B8080020B808002038
:1002A00028170020C0010008C0010008C001000894
:1002B000C001000800000000000000000000000075
:1002C0002DE9F04F2DED108AC1F80CD0D0F80CD0EC
:1002D000BDEC108ABDE8F08F002383F31188284617
:1002E000A047002000F014FC00F0FAFA00DFFEE75F
:1002F000704700BFAFF30080AFF30080AFF3008022
:10030000FEE700BFAFF30080AFF30080AFF30080E3
:10031000FEE700BFAFF30080AFF30080AFF30080D3
:10032000FEE700BFAFF30080AFF30080AFF30080C3
:10033000204B214A2148F0B500249C60DF68204E04
:10034000204D4FF6FF0139400A43DA60F26842F06F
:100350008072F2600268202142F0010210260260E1
:1003600083B0DE7783F8221000F0C2F900F0F8F8CD
:1003700000F066FC01F07CFC01F0C2FC2846402144
:1003800000F0B6FAA5F1300301229861027784F3F8
:10039000118862B69B690C49996105F14800009487
:1003A0000A4B4FF4B07100F0EBFA094B836103B0D4
:1003B000F0BD00BF00ED00E00003FA05001000E012
:1003C000F0ED00E0E808002060610008210300086B
:1003D00050610008AFF30080AFF30080AFF30080FE
:1003E000C20710B412D52D4A1168914244D000239F
:1003F0000968914203F10103FAD14C688C4237D06D
:100400006468944203F1FF33FAD18BBB830714D5A0
:10041000224A144654F81C1FA14233D00023096815
:10042000A14203F10103FAD1126A8A4220D0526834
:10043000A24203F1FF33FAD1D3B910F0040014D073
:10044000164A1369934223D000201B69934200F19E
:100450000100FAD1596999420AD04969914200F1E3
:10046000FF30FAD1003018BF01205DF8044B70470F
:1004700001205DF8044B70475468944218BF002374
:10048000BED1C3E7126AA24218BF0023CFD1D4E77E
:10049000596999424FF00000E7D0DEE7B808002024
:1004A0002DE9F0471B4D4FF08047EC69A96A786A47
:1004B000A368421A9A4205F11C091AD300264FF08C
:1004C00020082268D4F80CA00B444A45AB62C2F85D
:1004D0000490EA61E66018D086F311882069D0475D
:1004E00088F31188EC69786AA96AA368421A934272
:1004F000E7D94C450CD00B441B1A012B98BF0223A3
:100500001844BDE8F04701F08BBD01F081FDE3E741
:10051000BDE8F087B8080020AFF30080AFF300809B
:10052000EFF3128020B9EFF30583202383F31188C2
:10053000704700BFAFF30080AFF30080AFF30080DF
:1005400068B910B5EFF30584C4F3080414B180F35F
:10055000118810BD00F0B4F984F3118810BD704704
:10056000054B4FF0FF3003F11C02002158629962E5
:10057000DA611A62704700BFB8080020AFF300804C
:10058000F8B51C4E3446012998BF022154F81C7F4F
:1005900003614FF08043A7420546C260586A1ED0EF
:1005A000B46ABB680844041B9C4215D3F3699A687B
:1005B000944204D91B68A41A9A68A242FAD35A68D2
:1005C0006A602B6015605D60AC609A684FF0FF3127
:1005D000141B9C607162F8BD01F022FDE6E7B06279
:1005E000F561356208442F606F60A960BDE8F8408E
:1005F00001F006BDB8080020AFF30080AFF3008023
:100600001B4BDA69824210B410D0416802680A605C
:1006100002681C3300249A425160C46003D083688E
:1006200091680B4493605DF8044B7047184611685D
:1006300040F81C1F002481424860D46013D09268A7
:1006400088689C6A83184FF080428B60506A021B56
:100650009342E8D99B1A012B98BF022318445DF8F6
:10066000044B01F0DDBC5DF8044B01F0D1BC00BFD0
:10067000B8080020AFF30080AFF30080AFF3008034
:1006800010B4202383F31188037F072B0ED8DFE8F3
:1006900003F0270D0D2308040D08026A9368013347
:1006A000936090E80C001A60026853604FF0FF34CA
:1006B000002281680D4B046202771B689A688A42A7
:1006C000FBD25A684260036000211060586081F3D9
:1006D00011885DF8044B7047036A00221A60E5E751
:1006E000002383F311885DF8044B7047B80800209D
:1006F000034B00221B605B601B615B619A6070476B
:10070000B8080020AFF30080AFF30080AFF30080A3
:1007100000228168084B10B4044602771B689A686F
:100720008A42FBD25A6862602360204614605C6093
:100730005DF8044B704700BFB8080020AFF300809D
:10074000074B99691A6810B408771068186001247B
:100750004360147710465DF8044B9A61FFF7B0BD13
:10076000B8080020AFF30080AFF30080AFF3008043
:1007700030B54B1C87B012D00C4C0D4AA36905460E
:1007800001A8FFF7FDFE2846FFF7DAFF049B13B12F
:1007900001A8FFF735FFA369186A07B030BD034C05
:1007A000FFF7CEFFA369186A07B030BDB808002074
:1007B00081060008AFF30080AFF30080AFF3008044
:1007C000144B70B404469D690162A868A168814217
:1007D0004FF000020BD822771B689A689142FBD930
:1007E0005A686260236014605C6070BC70472A774E
:1007F0001A46126891688842FBD9506868600126E1
:100800002A60056055602677294620469C6170BCA9
:10081000FFF756BDB8080020AFF30080AFF30080AB
:10082000044B1A689B6990689B68984294BF0020AB
:1008300001207047B8080020AFF30080AFF30080BC
:100840000D4A1068036830B4012194695A6000258C
:100850000177A16813609061257700E01B689A68B2
:100860008A42FBD25A6862602360214614605C6051
:1008700030BCFFF725BD00BFB8080020AFF30080F3
:100880000D4A1068036830B4012194695A6000254C
:100890000177A16813609061257700E01B689A6872
:1008A0008A42FBD85A6862602360214614605C600B
:1008B00030BCFFF705BD00BFB8080020AFF30080D3
:1008C000044B1A689B6992689B689A4200D87047EB
:1008D000FFF7D6BFB8080020AFF30080AFF3008069
:1008E000FFF7CEBFAFF30080AFF30080AFF300801F
:1008F000F0B50D4CC16365698160002200F12801EB
:100900004FF0020E012700F124064561046180F8D2
:100910001CE087774277826342638261286160616D
:1009200046628162C162F0BDB8080020AFF300806A
:10093000F0B564390144104E059D7769C1600B64C0
:100940000E4B4D640B664FF0020E00238260C263B3
:10095000012500F1280200F124010661476180F8B9
:100960001CE0857743778363436383613861416229
:1009700070618262C262F0BDB8080020D90200082E
:10098000F8B50446202686F3118864390144134ED5
:10099000134D7769C1600B64069B4B6402230D669F
:1009A00000F1240E00250377012100F12803826065
:1009B000817706614761C2634577856345638561D9
:1009C00029463861C0F824E08362C3627061FFF792
:1009D000F7FE85F311882046F8BD00BFB808002057
:1009E000D9020008AFF30080AFF30080AFF30080BE
:1009F00008B5202383F31188FFF78AFE002383F3D1
:100A0000118808BDAFF30080AFF30080AFF3008022
:100A100010B5202383F31188084B9B69DC6B996820
:100A20008C4201D0814200D29860D863FFF748FF22
:100A3000002383F31188204610BD00BFB8080020B2
:100A4000202383F31188437F43F00403437700237B
:100A500083F31188704700BFAFF30080AFF30080CD
:100A600008B50146202383F311880820FFF780FE94
:100A7000002383F3118808BDAFF30080AFF300803B
:100A800008B5202383F311884FF08043596A411A37
:100A900002D00820FFF76CFE002383F3118808BD05
:100AA00008B5202383F31188064B1A689B69926866
:100AB0009B689A4201D3FFF7C3FE002383F311889A
:100AC00008BD00BFB8080020AFF30080AFF300807E
:100AD00038B50E4B9C69636A206204F124059D427F
:100AE00007D01A6862621846FFF712FE636AAB42CB
:100AF000F7D1637F9B0704D1636922691A61226978
:100B000053610F20BDE83840FFF71ABEB808002037
:100B1000202383F31188FFF7DBBF00BFAFF3008012
:100B200038B50446202383F31188037F0F2B07D0A9
:100B3000084B426A9B6909201A606362FFF700FE56
:100B4000256A002383F31188204600F0A9F828467F
:100B500038BD00BFB8080020AFF30080AFF30080BD
:100B600069B1084B10B4024644689B69042083E8CD
:100B70001400236053605DF8044BFFF7F9BD4FF09C
:100B8000FF307047B8080020AFF30080AFF300805B
:100B9000026890420AD010B414680460034663608F
:100BA000116210465DF8044BFFF7B2BD704700BFFD
:100BB00038B5036898420BD004460D461A68226087
:100BC000184654601D62FFF7A3FD23689C42F5D1CF
:100BD00038BD00BFAFF30080AFF30080AFF30080FB
:100BE000014B5B6883607047001000E0AFF300804A
:100BF0000F4B10495A688368F0B44F6FC66841685C
:100C0000D0E90445D31ADB1BE41845F10005013691
:100C10008B42C6608360C0E9044505D802689342F0
:100C200038BF0360F0BC70474360F0BC704700BF42
:100C3000001000E0B8080020AFF30080AFF30080A0
:100C4000D0B50C4C86B000234FF0FF32684600262A
:100C5000002763670193029303930092CDE9046731
:100C6000FFF7BEFF6846FFF7C3FF029B636706B04E
:100C7000D0BD00BFB8080020AFF30080AFF3008004
:100C8000202383F31188837F01338377002383F349
:100C900011887047AFF30080AFF30080AFF300809E
:100CA0000146202383F31188837F013BDBB28377E6
:100CB000002282F3118813B9037F0F2B00D07047F5
:100CC000437F03F00303012B02D0022B07D07047B0
:100CD000436902691A610269536101F079B8436995
:100CE00002691A610269006C536101F021B900BF09
:100CF000F0B583B016461F460D4601F021F898B1B5
:100D0000202383F31188089B009332463B462946F3
:100D1000FFF70EFE0123437700210446FFF750FD45
:100D2000002383F31188204603B0F0BDAFF30080A9
:100D30002DE9F04182B00E4617469846054601F06F
:100D4000DFF8A0B1202383F311886968CDF8008013
:100D50003B463246FFF7ECFD022343770564002152
:100D60000446FFF72DFD002383F31188204602B0CF
:100D7000BDE8F081AFF30080AFF30080AFF30080F7
:100D8000202383F31188044B1869837F0133837711
:100D9000002383F311887047B8080020AFF3008068
:100DA00010B5202383F31188074B04699C421DBFB3
:100DB000A37F0133A3770024002383F31188FFF777
:100DC0006FFF204610BD00BFB8080020AFF30080C1
:100DD0000060406081607047AFF30080AFF3008037
:100DE00070B5856881600135002D0CDC04466FF01C
:100DF00001066068436863601C60FFF789FC013589
:100E0000012D0662F5D170BDAFF30080AFF3008015
:100E100008B5202383F31188FFF7E2FFFFF750FDA9
:100E2000002383F3118808BDAFF30080AFF3008087
:100E3000202383F311888368013B002B836004DB4C
:100E40000020002383F31188704710B5084CA26975
:100E5000106241685160034610600A6005205A60C4
:100E6000FFF76EFCA369186A002383F3118810BD95
:100E7000B8080020AFF30080AFF30080AFF300802C
:100E8000202383F311888268531E002B836004DBC8
:100E90000020002383F31188704710B579B10A4A06
:100EA000926910624468034682E8180005202260B7
:100EB0005A60FFF75DFC002383F3118810BD826048
:100EC0004FF0FF30F7E700BFB8080020AFF3008015
:100ED00003468068421E002A9A6001DB00207047AA
:100EE00010B461B1094A926913625C68052082E816
:100EF000180022605A605DF8044BFFF739BC986017
:100F00005DF8044B4FF0FF30704700BFB808002079
:100F100008B5202383F3118883680133002B836095
:100F200003DD002383F3118808BD034600680268CF
:100F30001A6000215360FFF743FC002383F31188FC
:100F400008BD00BFAFF30080AFF30080AFF30080B7
:100F500083680133002B836000DD704703681A68E3
:100F600002600021506018461962FFF7D1BB00BF34
:100F700070B50C1E12DD0546002601E0013C0DD0C7
:100F8000AB680133002BAB60F8DC286803682B608A
:100F90005D60FFF7BDFB013C0662F1D170BD00BF93
:100FA00010B5202382B083F3118883680133002BAE
:100FB00083601DDD8B68013B002B8B6007DBFFF737
:100FC0007FFC0020002383F3118802B010BD0E4A7D
:100FD0004B689469052084E80A001C604C6021621B
:100FE000FFF7AEFB206A002383F3118802B010BD27
:100FF000024600680191036813605A60FFF788FB9E
:10100000002303620199D5E7B8080020AFF3008000
:101010000023006040608360704700BFAFF3008032
:10102000304B826870B59C69002A55D0A1689368DE
:101030008B42054606D2137F9160062B33D0072BD7
:101040001DD09BB12B4603E09968A268914202D360
:101050001B689D42F8D15A686260236014605C602E
:1010600025620620BDE87040FFF76ABB92E80A00DF
:101070001960116810464B60FFF74AFBE2E792E8FF
:101080000900186010684360166A334602E09868E9
:10109000884202D31B689E42F9D15968516013609F
:1010A0000A605A60CEE792E8090018601068436051
:1010B000166A334602E09868884202D31B689E4253
:1010C000F9D15968516013600A605A60B268A1682A
:1010D00093688B42AFD3B5E7A36BC3608460A06312
:1010E00070BD00BFB8080020AFF30080AFF30080F0
:1010F00008B5202383F31188FFF792FF002383F3C1
:10110000118808BDAFF30080AFF30080AFF300801B
:101110000346202282F31188826800201AB100233E
:1011200083F311887047054A92699A60916BD96080
:1011300001209363002383F311887047B8080020CF
:10114000164B70B59D69202383F311880468C3682A
:10115000AB6384421CD0E96B4BB11A68934203D055
:101160009268914238BF1146DB68002BF5D10346E7
:101170002268A66BA96020461A60002153609C601B
:10118000DE60A363FFF71CFB002383F3118870BDAF
:101190000023A360002383F3118870BDB8080020EA
:1011A000124B30B4044605689869E3688363A5422E
:1011B00017D0C16B4BB11A68934203D09268914229
:1011C00038BF1146DB68002BF5D12B68AA6B816014
:1011D000236028465C60A560E260AC6330BCFFF72A
:1011E00097BA0023AB6030BC704700BFB80800203E
:1011F000134A70B52023946983F31188A36BD3B18C
:1012000000260AE01168956B19604B609A60DD60FA
:101210009363FFF77DFAA36B4BB11A68D968A1639A
:1012200093421046EED19E60A36B002BF5D1E36B89
:10123000A360FFF745FB002383F3118870BD00BF57
:10124000B8080020AFF30080AFF30080AFF3008058
:1012500000604060704700BFAFF30080AFF30080D4
:1012600008B5202383F311880268904207D01168E3
:10127000016003464B6010460021FFF7A1FA0023EE
:1012800083F3118808BD00BFAFF30080AFF3008087
:101290000368984207D01A6802600021506018461F
:1012A0001962FFF735BA7047AFF30080AFF30080E3
:1012B00038B50446202383F311880068844218BFA0
:1012C0006FF0010508D0036823605C60FFF720FA27
:1012D00005622068A042F6D1FFF7F2FA002383F3FB
:1012E000118838BDAFF30080AFF30080AFF300800A
:1012F0000F4B70B59C69A66B05463046FFF750FF53
:1013000025622B4603E09968A268914202D31B68CC
:101310009D42F8D15A6862602360072014605C60C7
:10132000FFF70EFA246A3046FFF77AFE204670BDBA
:10133000B8080020AFF30080AFF30080AFF3008067
:1013400008B5202383F31188FFF7D2FF002383F32E
:10135000118808BDAFF30080AFF30080AFF30080C9
:10136000F8B5124CA3699E6B054630460F46FFF751
:1013700017FFA4692B46256203E09868A268904293
:1013800002D31B689D42F8D15A68626023603946D7
:10139000146007205C60FFF7EBF9431C044602D0A1
:1013A0003046FFF73DFE2046F8BD00BFB8080020DC
:1013B00008B5202383F31188FFF7D2FF002383F3BE
:1013C000118808BDAFF30080AFF30080AFF3008059
:1013D00030B4202484F31188064D0468AD690C6094
:1013E000002401604D608A600B61CC6084F3118839
:1013F00030BC7047B8080020AFF30080AFF3008026
:10140000202383F31188024602E08B4207D01A465C
:1014100013689842F9D1002383F3118870470B6851
:101420001360002383F31188704700BFAFF300807F
:10143000202383F31188054B9A69536B23EA00013B
:101440005163002282F3118818407047B8080020C9
:10145000202383F31188044B9A69536B184350631C
:10146000002383F311887047B8080020AFF3008091
:10147000436B027F19430A2A416309D00B2A00D02B
:101480007047036A8B43FBD100230362FFF740B927
:10149000036A1942F8D17047AFF30080AFF30080C0
:1014A00070B50468A0420FD006460D46E3682B4392
:1014B000E36015B12269134203D0A1686068FFF7A9
:1014C000D7FF2468A642F1D170BD00BFAFF3008002
:1014D00008B5202383F31188FFF7CAFFFFF7F0F95F
:1014E000002383F3118808BDAFF30080AFF30080C1
:1014F00008B5202383F31188FFF7D2FFFFF7E0F947
:10150000002383F3118808BDAFF30080AFF30080A0
:10151000C9B1F8B506460D460024012725FA04F3A3
:10152000DB0704D4013425FA04F3DB07FAD507FA04
:1015300004F3204625EA030556F824309847013481
:10154000002DEBD1F8BD7047AFF30080AFF3008002
:1015500038B50D4B9D69202383F311886B6B13EA1B
:10156000000406D1044628620A20FFF7E9F86B6BF5
:101570001C40624204EA020023EA00036B6300237A
:1015800083F3118838BD00BFB8080020AFF3008096
:1015900038B50C4B9D69202383F311886B6B13EADC
:1015A000000406D1044628620A20FFF7C9F86B6BD5
:1015B0001C4023EA04036B63002383F31188204655
:1015C00038BD00BFB8080020AFF30080AFF3008043
:1015D00038B50B4B04469D69202383F311886B6B50
:1015E00030EA030204D028620B20FFF7A9F86B6BE6
:1015F00023EA04036B63002383F31188204638BD7C
:10160000B8080020AFF30080AFF30080AFF3008094
:10161000124B70B520229D6982F311886A6B12EA21
:1016200000060ED119B981F31188084670BD2862F1
:1016300004460A20FFF79CF800280BDB6A6B04EADB
:1016400002067042304022EA00026A63002383F3FC
:10165000118870BD86F31188304670BDB80800202F
:10166000124B70B59E69202383F31188736B13EAC4
:1016700000040ED119B981F31188084670BD30629B
:1016800005460A20FFF774F800280ADB736B05EAA9
:10169000030423EA04037363002383F311882046C1
:1016A00070BD84F31188204670BD00BFB8080020CB
:1016B00038B5104B04469D69202383F311886B6B6A
:1016C00030EA03020BD0084611B980F3118838BD07
:1016D0002C620B20FFF74CF8002808DB6B6B23EA29
:1016E00004036B63002383F31188204638BD002078
:1016F000EBE700BFB8080020AFF30080AFF3008035
:1017000038B50E4B20229C6982F3118800F1280520
:101710002562C26A6260216325601460027FC46230
:101720000E2A07D00C20FFF70BF8206A002383F362
:10173000118838BDFEF7ECFFF4E700BFB8080020C1
:1017400010B5202383F311880B4CA269134653F87C
:10175000280F984208D0016891620D224B60002347
:10176000027783F3118810BD0E20FEF7E9FFA2690E
:10177000906A02F12803EEE7B8080020AFF300807A
:1017800008B5202383F31188FFF71AF8002383F3A9
:10179000118808BDAFF30080AFF30080AFF3008085
:1017A00010B50B4601EB8201416004460360C36043
:1017B000836011461C30FFF70BFB04F11000002181
:1017C000BDE81040FFF704BBAFF30080AFF300802B
:1017D00010B504461C3023686168A360C91AE36031
:1017E0008910FFF7FDFA04F110000021BDE8104058
:1017F000FFF7F6BAAFF30080AFF30080AFF30080DD
:1018000008B5202383F31188FFF7E2FFFFF758F8AC
:10181000002383F3118808BDAFF30080AFF300808D
:1018200070B5202304460E4683F3118811461C3000
:10183000FFF74EFB054678B9A2686168131D8B421D
:10184000A36028BF2368166004F1100028BFA360BE
:10185000FFF77EFBFFF734F8002383F31188284657
:1018600070BD00BFAFF30080AFF30080AFF3008026
:1018700038B5436A002B12DD84684568221D013BA0
:10188000AA42436228BF03688260216000F1100011
:1018900028BF40F8083CFFF75BFB002038BD4FF045
:1018A000FF3038BDAFF30080AFF30080AFF30080AE
:1018B00070B5202304460E4683F3118811461C3070
:1018C000FFF706FB054620B1002383F31188284665
:1018D00070BDE3682268043B9342E36002D2636810
:1018E000043BE3601E6004F11000FFF731FBFEF7DC
:1018F000E7FF002383F31188284670BDAFF3008013
:10190000426A002A11DDC36810B50468043B013A3D
:10191000A3424262C36002D24368043BC3601960C1
:101920001030FFF715FB002010BD4FF0FF3070475F
:1019300070B5202304460E4683F3118811461030FB
:10194000FFF7C6FA054680B9E36862681968043390
:101950009342E36028BF2368316004F11C0028BF74
:10196000E360FFF7F5FAFEF7ABFF002383F311887E
:10197000284670BDAFF30080AFF30080AFF3008066
:101980008369002B14DD5A1EC36810B5826142685A
:101990001C6804339342C36028BF03680C6000F1E5
:1019A0001C0028BF40F8103CFFF7D2FA002010BD01
:1019B0004FF0FF30704700BFAFF30080AFF30080FF
:1019C00030B4029C046200250A4485600261006014
:1019D0004060C16081614161C36130BC704700BF3C
:1019E0000021C2688160826142616FF00101FFF7EE
:1019F000DFB800BFAFF30080AFF30080AFF300802B
:101A0000836942699A4210B583680FD00133541C30
:101A1000836044611170426903699A4201D3C368CB
:101A200043610021FFF7B4F8002010BD002BEDD07A
:101A30006FF0030010BD00BFAFF30080AFF3008074
:101A400070B520230E46044683F31188C3692BB179
:101A5000984703E0FFF784F8002815DBA5683146B6
:101A60002046002DF6D0A2692169531C8B4205F156
:101A7000FF35A361A56028BFE368107828BFA36184
:101A8000002383F3118870BD85F3118870BD00BFFA
:101A90002DE9F04F044683B0894693461D46D0F8A1
:101AA0001C80202787F3118800260197B246B8F1E1
:101AB000000F05D02046C04702E0FFF751F8D8B923
:101AC000A76829462046002FF7D0A2697B1E511C2B
:101AD000A161A360137809F8013B2369A2699A42C6
:101AE00024BFE368A3618AF311880136B34505D0AA
:101AF000019B83F31188DAE787F31188304603B03E
:101B0000BDE8F08FAFF30080AFF30080AFF300804B
:101B100030B4029C04628D180561006040608260F0
:101B2000C16081614161C36130BC7047AFF3008027
:101B300010B40269C4688461121B44616FF0010132
:101B400082605DF8044BFFF733B800BFAFF300804D
:101B5000F8B504460F461646202383F3118803E0A8
:101B6000FEF7FEFF002818DBA56831462046002D51
:101B7000F6D06369013D5A1C6261A5601F7023693C
:101B800062699A4224BFE3686361E3690BB120464E
:101B90009847002080F31188F8BD85F31188F8BDBF
:101BA00038B582694369934283680ED00569511C38
:101BB000013383608161A942147801D3C3688361D2
:101BC0000021FEF7E5FF204638BD002BEED06FF078
:101BD000020038BDAFF30080AFF30080AFF30080A8
:101BE0002DE9F04F83B004460D4616460193D0F818
:101BF0001C804FF0200989F311880027BA46A3689A
:101C000005F1010B591E2046FBB16369A160591C07
:101C100061612978197023696169994224BFE36879
:101C20006361B8F1000F00D0C0478AF31188013E0C
:101C300007F1010713D089F31188A3685D46591E87
:101C400005F1010B2046002BDFD1019900932046BE
:101C5000FEF786FF009B0028D1D083F31188384619
:101C600003B0BDE8F08F00BFAFF30080AFF300809A
:101C7000054A064B0648074922F0070223F00703EE
:101C800002600B60704700BF2F170020000001208A
:101C9000940A0020900A0020AFF30080AFF3008088
:101CA00010B4202383F31188094C0A4B2268196869
:101CB000C31D23F00703891A8B429DBF9B18236025
:101CC00010460020002383F311885DF8044B704711
:101CD000940A0020900A0020AFF30080AFF3008048
:101CE000024A034B10681B68C01A7047900A002014
:101CF000940A0020AFF30080AFF30080AFF30080C0
:101D0000044B054A1A6003F1100000229A60DA6061
:101D1000FFF77EB9980A0020A11C0008AFF30080ED
:101D20000023083A81600360C36010304A600B6092
:101D3000FFF76EB9AFF30080AFF30080AFF3008020
:101D4000F8B5214E002818BF064606F110070731E6
:101D5000384621F0070506F10804FFF7C9F903E04A
:101D600043689D4212D9044620680028F8D13846BD
:101D7000FFF7E6F933682BB305F10800984708B37D
:101D80000660456000F108042046F8BD05F1080230
:101D9000934209D2036823600446384644F8086B2E
:101DA000FFF7CEF92046F8BD6FF00701491B00EBA5
:101DB000020E0B4401688150CEF80430C4F800E0F4
:101DC0004560E9E70024DFE7980A0020AFF30080D0
:101DD000F8B550F8085C05F110070646A0F10804B4
:101DE00008353846FFF784F92B46AB4204D0A342AE
:101DF00002D31B68AB42FAD11A681AB1944201D3DC
:101E00001346F2E746F8082C1C6056F8041C56F8F6
:101E1000085C01F10802A018A8420AD0596801F133
:101E200008021A44944212D03846BDE8F840FFF741
:101E300087B940680144083146F8041CA25846F8A6
:101E4000082C596801F108021A449442ECD156F862
:101E5000042C0A4408325A6056F8082C1A60384696
:101E6000BDE8F840FFF76CB9AFF30080AFF3008036
:101E700070B50F4C002818BF044604F11005284621
:101E80000E46FFF735F9A36873B10022144658686F
:101E90001B6801340244002BF9D106B13260284698
:101EA000FFF74EF9204670BD1A461C46F5E700BF05
:101EB000980A0020AFF30080AFF30080AFF30080FA
:101EC0000023416082600360704700BFAFF3008071
:101ED00072B130B42025002485F3118803680B60AB
:101EE000016084F311884368013A1944F4D130BC8D
:101EF000704700BFAFF30080AFF30080AFF3008006
:101F000008B52022034682F31188006828B10268D0
:101F10001A60002383F3118808BD9A68002AF8D05C
:101F200058689047002383F3118808BDAFF3008001
:101F3000202383F3118803680B600023016083F37F
:101F400011887047AFF30080AFF30080AFF30080DB
:101F5000064A536823F001035360EFF309836833A3
:101F600083F30988002383F31188704730EF00E082
:101F7000202383F31188124B5B6813F4006302D1B2
:101F800083F31188704710B5F1EE103AEFF309842E
:101F90000C4B4FF08072DB6844F8083C44F84C2C42
:101FA000A4F1680383F30988FEF73AFC18B1064BE5
:101FB00044F8503C10BD054B44F8503C10BD00BFE8
:101FC00000ED00E030EF00E0E9020008EC0200085C
:101FD00008B500F0E5F8054800F0C2F900F068F82F
:101FE00000F0A6FBBDE8084000F002B8B0610008B0
:101FF00000F08EB9AFF30080AFF30080AFF3008044
:102000004FF080430021022258631961DA60704763
:102010004FF080430022DA60704700BFAFF30080CA
:102020004FF0804358637047AFF30080AFF30080F8
:102030000C30FFF72DBD00BFAFF30080AFF3008081
:102040000C304FF0FF33FFF723BD00BFAFF300802C
:102050003030FFF7C5BD00BFAFF30080AFF30080A5
:1020600030304FF0FF33FFF7BBBD00BFAFF3008050
:102070000C30FFF7E5BC00BFAFF30080AFF300808A
:102080000C304FF0FF31FFF7DBBC00BFAFF3008037
:102090003030FFF75DBD00BFAFF30080AFF30080CD
:1020A00030304FF0FF32FFF753BD00BFAFF3008079
:1020B00000F0D6BAAFF30080AFF30080AFF300803A
:1020C00070B50E4B044682B040F8043B01260094E4
:1020D00015460B46606004F1540104F10C002672B1
:1020E0001022FFF76DFC00942B4604F1640104F10B
:1020F00030001022FFF70CFD02B070BD80610008B7
:1021000010B52023044683F3118800F0B9FA0223A6
:102110002372002383F3118810BD00BFAFF300804A
:1021200038B5436904460D463BB1294604F10C001D
:10213000FFF766FC00280BDB38BD04210844FFF7DD
:10214000AFF9294604F10C00FFF75AFC0028F3DA36
:10215000201D8021BDE83840FFF7A2B9AFF3008011
:1021600043099B0010B403F1604300F1604404F59F
:10217000614403F56143090100F01F00012202FAE6
:1021800000F0C9B284F80013C3F8800118605DF84C
:10219000044B7047AFF30080AFF30080AFF30080D3
:1021A000164B4FF0FF311A69002210B419611A6101
:1021B000586959615A61186A114C60F08050186270
:1021C0001A62586A59625A62196C41F08051196456
:1021D000216841F480712160196F01F44071B1F5FB
:1021E000007F03D04FF4803119671A67044A5DF805
:1021F000044B536823F40073536070470038024067
:1022000000700040AFF30080AFF30080AFF30080B8
:102210002C492D4B4FF080504FF4004208641A6057
:102220000B6843F001030B600A68264B9007FBD54F
:102230009A6822F003029A609A689A6019468B683D
:10224000204A13F00C03FAD1116801F0F901116072
:102250009360136843F4803313601168194B89034A
:10226000FBD55A6F42F001025A675A6F1549900721
:10227000FBD5164B4B600B68134A43F080730B6021
:1022800053685904FCD50F490A680E4B9201FBD5DF
:102290000F4A1049996040F2027111609A6842F049
:1022A00002029A601A469368064903F00C03082B51
:1022B000F9D14B6C43F480434B644B6E43F4804341
:1022C0004B667047003802400070004008544107D8
:1022D000003C024000100838AFF30080AFF30080EC
:1022E0004FF080431A69920701D4FFF741BE10B541
:1022F00000241C61202383F31188FEF7D1F884F3B6
:102300001188BDE81040FFF733BE00BFAFF3008077
:102310000F4A1048136C70B443F0010313648168D2
:102320004FF080430022012441F0010142F2CF0628
:102330004FF0FF3581609E620821DD621C209A61AA
:102340005A63DA605A605C611C6070BCFFF708BFBA
:1023500000380240002004E0AFF30080AFF30080BB
:10236000F0B43A4E3A4D376B3A4C3B493B4A3C4B02
:1023700047F01F073763376D47F01F07376546681B
:102380006E608668AE60C668EE6006696E6146691A
:102390002E6286696E6206682E60056A6560456A0F
:1023A000A560856AE560C56A6561056B2562456B58
:1023B0006562C5692560C46B4C60046C8C60446CBC
:1023C000CC60846C4C61C46C0C62046D4C62846B98
:1023D0000C60816D5160C16D9160016ED160416E84
:1023E0005161816E1162C16E5162416D1160426F27
:1023F0005A60826F9A60C26FDA60D0F880205A61AA
:10240000D0F884201A62D0F888205A62026F1A60CD
:10241000D0F89020C3F8042CD0F89420C3F8082CEE
:10242000D0F89820C3F80C2CD0F89C20C3F8142CBA
:10243000D0F8A020C3F8202CD0F8A420C3F8242C76
:10244000D0F88C20C3F8002CF0BC70470038024054
:10245000000002400004024000080240000C02405C
:1024600000100240AFF30080AFF30080AFF30080B4
:102470002DE9F04F4FF00F0C02F0030EC2F380076E
:10248000C2F3C106C2F341150024C2F3C3124FF0D8
:1024900001094FF0030830E0D0F820B02BEA030325
:1024A00043EA0A030362436809FA04FA23EA0A03C7
:1024B0003B4343606300D0F808A008FA03F3DB4312
:1024C0000AEA030A4AEA060AC0F808A0D0F80CA0F3
:1024D00003EA0A0A4AEA050AC0F80CA0D0F800A0EC
:1024E00003EA0A0343EA0E030360490819D07F0098
:1024F000B600AD004FEA8E0E013404F007039B00D6
:1025000011F0010F02FA03FA0CFA03F3EDD0072CD5
:10251000C2D9D0F824B02BEA030343EA0A0343628A
:10252000C1E7BDE8F08F00BFAFF30080AFF30080DC
:10253000024AD36843F08003D360704700440040F0
:10254000F8B5434E756FEF682B68DA059CB24FD42F
:10255000202383F3118814F02F0F08D129E0A0065F
:1025600069681DD42C68A4B214F02F0F21D0230762
:10257000F5D014F0080F0CBF00218021E00748BF00
:1025800041F02001A20748BF41F04001630748BF66
:1025900041F480712F48FEF783FFA0066968E1D5FA
:1025A000C9B22B48FFF7BCFD2C68A4B214F02F0F62
:1025B000DDD1002383F31188390601D5220626D404
:1025C000630611D5202383F31188726CB36C204805
:1025D0009A4229D04FF6BF733B406FF04002EB6048
:1025E00000232A6083F31188BDE8F840FFF7C0BCE0
:1025F000202383F311884FF40071301DFEF750FF44
:102600006FF480732B60002383F31188A0E72023ED
:1026100083F311881048FFF7C3FA00280CDB6860C9
:10262000002383F31188CBE7836B002BD2D00430D7
:102630001021FEF735FFCDE708210648FEF730FFF1
:102640004FF63F733B4043F04003EB60E8E700BFC9
:10265000B80A0020BC0A0020E80A0020AFF300807E
:1026600010B5044C044A20460021FFF729FD034B16
:10267000636710BDB80A00203125000800440040FF
:1026800038B51F4C037A002918BF0C46012B0546AC
:1026900022D06B6F1B4A93422BD002F5806293428B
:1026A00027D02168184AB2FBF1F29A60A288E0882C
:1026B000218942F4045240F0400042F02C0241F0E3
:1026C000010192B280B289B2002418615961DA60C6
:1026D0001C601A685B6838BD0C4B9842D9D10C4A13
:1026E000136C43F4003313640C212620FFF738FDEC
:1026F000CFE72168074AB2FBF1F29A60D6E700BF44
:10270000A06100080010014080DE8002B80A0020AD
:102710000038024000BD0105AFF30080AFF3008038
:10272000FFF776BDAFF30080AFF30080AFF300801A
:10273000704700BFAFF30080AFF30080AFF30080BD
:10274000014B01221A70704745140020AFF300803E
:1027500070B5094E4C243068074D03682D219B68E5
:102760009847013CF7D128680449036802221B6896
:10277000BDE87040184700BF74140020C062000814
:1027800010B370B5134A84B06D466C46A2FB0013BB
:10279000DB0803EB8301A0EB410000F13001C9B27B
:1027A00004F8011B1846002BF0D1AC420AD90A4E9E
:1027B000013C01E014F8011D306803689B689847EC
:1027C000AC42F7D104B070BD034B186803683021E8
:1027D0009B681847CDCCCCCC74140020AFF300809C
:1027E000017859B138B5064D0446286803689B68DE
:1027F000984714F8011F0029F7D138BD704700BF72
:1028000074140020AFF30080AFF30080AFF30080BA
:1028100070B5017889B10A4D0446286803689B6841
:10282000984714F8011F0029F7D128680549036863
:1028300002221B68BDE870401847014DF5E700BF54
:1028400074140020C0620008AFF30080AFF3008072
:10285000202383F31188044B1A68511C19601070EF
:10286000002383F31188704748140020AFF30080E1
:1028700059B910B40649074C074A01232370106068
:102880000B7018465DF8044B7047002318467047DC
:10289000441400208814002040140020AFF300806E
:1028A000F0B40E4E0E4F35683B4605E013F8014B71
:1028B00011F8012B944207D1AB42F7D30B781BB927
:1028C00037601846F0BC7047064C0749074A012399
:1028D000237010600B701846F0BC7047481400203D
:1028E0007814002088140020441400204014002094
:1028F00010B4202383F311884FF080440023646ACE
:1029000083F31188641A521A944206D3054C06497F
:10291000064A012323700B70106018465DF8044BC3
:10292000704700BF88140020441400204014002089
:1029300038B5064C04F1140554F8043B18460BB1A5
:10294000FEF77EF8AC42F7D138BD00BF601400201E
:1029500070B5074C002604F1140554F8040B18B1A7
:10296000FEF7DEF844F8046CAC42F6D170BD00BF4F
:1029700060140020AFF30080AFF30080AFF300805D
:1029800008B50120FEF76CF8202383F311884FF07F
:1029900080420023506A83F3118808BDAFF30080A2
:1029A00010B542F2107404FB00F00D490D4B00F21B
:1029B000E734A1FB042400221A70A409202383F326
:1029C00011880948C3680BB1FDF71AFE21460023A0
:1029D000064A0548FDF7D4FD002383F3118810BD96
:1029E000D34D6210451400204C14002041270008EC
:1029F0002DE9F04F9F4CA04D206085B09F48FFF718
:102A000007FF9F48FFF704FF9E48FFF701FF2A21B9
:102A1000206803689B68984715F8011F0029F7D1C3
:102A200099489A4DFFF7F4FE2A21206803689B68B5
:102A3000984715F8011F0029F7D19548954DFFF7E4
:102A4000E7FE2A21206803689B68984715F8011F54
:102A50000029F7D19048914DFFF7DAFE2A2120682E
:102A600003689B68984715F8011F0029F7D18C4827
:102A70008C4DFFF7CDFE2A21206803689B6898479C
:102A800015F8011F0029F7D18748884DFFF7C0FED0
:102A90002A21206803689B68984715F8011F0029C0
:102AA000F7D18348834DFFF7B3FE2A2120680368DE
:102AB0009B68984715F8011F0029F7D17E487F4D84
:102AC000FFF7A6FE2A21206803689B68984715F83F
:102AD000011F0029F7D17A4B7A4802937A4B019172
:102AE0000393FFF795FE6548DFF888B1774FFFF74E
:102AF0008FFE774B01991970019B01330193043FBD
:102B00004FF0000857F8043F002B00F08780714D0C
:102B1000FFF71EFE2D21206803689B68984715F873
:102B2000011F0029F7D101986B4DFFF729FEDBF853
:102B3000000003682E219B6808F101089847404671
:102B4000FFF71EFE2021206803689B68984715F850
:102B5000011F0029F7D13B681D68297839B1206829
:102B600003689B68984715F8011F0029F7D15B4857
:102B7000DFF890915A4E5B4DFFF74AFE4FF4FA6032
:102B8000FDF76EFF584AD7F800A0356000231360A8
:102B900053609360D3601361DAF8042089F8003041
:102BA00002B19047DAF80C309847DAF8083003B1F0
:102BB0009847FFF7CDFE99F80030002B38D0DFF8AA
:102BC00048912D21206803689B68984719F8011FD8
:102BD0000029F7D1454BDFF834911868FFF7D0FD95
:102BE0002021206803689B68984719F8011F002975
:102BF000F7D13368AB4209D93A4D206815F8011B6B
:102C000003689B68984733689D42F6D33848FFF7BE
:102C1000FFFD57F8043F002B7FF479AF039B5BB1B6
:102C20001F46029B1A4652F8043F0393029263E741
:102C30003048FFF7EDFD65E7FFF78AFD2E4D0F48A1
:102C4000FFF7E6FD4621206803689B68984715F862
:102C5000011F0029F7D11E4B1B782BB9274805B05F
:102C6000BDE8F04FFFF7D4BD254805B0BDE8F04FF3
:102C7000FFF7CEBD74140020C46200082C6C00085D
:102C8000A4630008C0630008E8630008D862000875
:102C9000F0630008EC6200080864000800630008A4
:102CA0001464000814630008206400082863000806
:102CB0002C6400083C63000844640008506300086A
:102CC0008462000874640008E0640008D06A0008A8
:102CD000881400206463000874630008C46300085B
:102CE00048140020781400206014002040140020B4
:102CF000C8630008CC63000894630008D863000828
:102D0000E063000844140020786300089063000822
:102D1000F0B5274F274EBB69274D9A68274B30687F
:102D2000274C83B0053A00934FF4E8712B46FDF72A
:102D300027FEBB6923499A68736820600091043AB2
:102D400018464FF4E8712B46FDF71AFEBA69B368CE
:102D500092681D4960600091033A18464FF4E8718B
:102D60002B46FDF70DFEBA69F36892681749A0601B
:102D70000091023A18464FF4E8712B46FDF700FE29
:102D8000BA69336992681249E060013A00911846C5
:102D90004FF4E8712B46FDF7F3FD2061FFF7D8FDF6
:102DA0000C49012003B0BDE8F040FFF779BD00BF3A
:102DB000B808002060620008E12D000814650008D2
:102DC000601400200065000804650008086500081C
:102DD0000C65000810650008AFF30080AFF30080B9
:102DE0000078FFF735BD00BFAFF30080AFF3008080
:102DF000F0B52B4F2B4EBB692B4D9A682B4B70684F
:102E00002B4C83B0043A00934FF4E8712B46FDF746
:102E1000B7FDBB6927499A68336860600091053A3D
:102E200018464FF4E8712B46FDF7AAFDBA693369DD
:102E30009268214920600091013A18464FF4E871E8
:102E40002B46FDF79DFDBA69F36892681B49206126
:102E50000091023A18464FF4E8712B46FDF790FDB9
:102E60002023E06083F31188BB69B0689A68144B33
:102E70000093033A2B464FF4E871FDF759FD002308
:102E8000A06083F31188A068FDF7B2FDFFF760FD35
:102E90000C49012003B0BDE8F040FFF701BD00BFC1
:102EA000B808002060620008E12D000800650008F5
:102EB00060140020146500080C650008086500080F
:102EC0000465000810650008AFF30080AFF30080D0
:102ED000F8B5494EB3699C68651C2846FDF798FD16
:102EE000011BB1FA81F1074649090120FFF7C0FC37
:102EF00000B1F8BDB3699968491BB1FA81F10220AC
:102F00004909FFF7B5FC0028F3D13846FDF780FDED
:102F1000291AB1FA81F149090320FFF7A9FC002819
:102F2000E7D1B3699968091BB1FA81F10420490915
:102F3000FFF79EFC0028DCD1202383F31188B269BF
:102F400093680233936080F31188B3699968A71C72
:102F5000C91BB1FA81F149090520FFF789FC002856
:102F6000C7D12846FDF754FD011BB1FA81F149098B
:102F70000620FFF77DFC0028BBD1B3699968C91B07
:102F8000B1FA81F107204909FFF772FC0028B0D19E
:102F9000B369D96B491BB1FA81F108204909FFF7E0
:102FA00067FC0028A5D1E71C3846FDF731FD281A3B
:102FB000414241410920FFF75BFC002899D1B369E8
:102FC0009968CA1B514251410A20FFF751FC002861
:102FD0008FD1B369D96BCB1B594259410B20FFF7F5
:102FE00047FC002885D1202383F31188B3699C60B6
:102FF000DC6380F311887CE7B8080020AFF3008021
:1030000070B5FFF7BDFC202686F311884FF0804590
:1030100000236C6A83F311884FF47A70FDF720FD6A
:1030200004F2EB3204F57A710120FFF761FC00B184
:1030300070BD86F311886C6A80F311884FF47A7042
:10304000FDF70EFD04F2EB3204F57A710220FFF772
:103050004FFC0028ECD186F311886C6A80F311884C
:1030600042F21070FDF7FCFC04F51C5211461031C1
:1030700013320320FFF73CFC0028D9D186F31188D6
:103080006C6A80F3118804F57A752846FDF7F8FC20
:10309000294604F2EB320420BDE87040FFF728BC5B
:1030A0002DE9F043484E494FB369D7F800809A683C
:1030B000DFF83C91464B474D474C83B005324FF407
:1030C000E871CDF800904046FDF75AFCB369796885
:1030D0009A68424B28600132084600934FF4E87129
:1030E0003B4BFDF74DFCB369B9689A683C4B68608F
:1030F0000332084600934FF4E871354BFDF740FC6E
:10310000B369F9689A68374BA8600432084600939F
:103110004FF4E8712E4BFDF733FCB36939699A68B7
:10312000314BE8600232084600934FF4E871284BB7
:10313000FDF726FC28612046FDF7EAFE2046FDF754
:10314000E7FE2046FDF7E4FE2046FDF7E1FE2046BF
:10315000FDF7DEFEFFF7FCFB24490120FFF7A0FB93
:1031600010B103B0BDE8F083B269194B9268CDF895
:1031700000900746053240464FF4E871FDF700FC29
:103180002026286086F3118802212046FDF7F0FEF4
:10319000FDF796FB87F31188FFF7DAFB86F31188BA
:1031A000A168A1F10101B1FA81F102204909FFF7FB
:1031B0005FFB20B980F3118803B0BDE8F08387F38B
:1031C000118803B0BDE8F083B808002060620008F1
:1031D0002132000860140020000800200865000863
:1031E0000465000800650008146500081065000803
:1031F0000C650008AFF30080AFF30080AFF30080F0
:1032000010B5044C2046FDF713FE2046BDE81040E3
:10321000FDF77EBE00080020AFF30080AFF3008012
:1032200010B504460348FDF703FE2078BDE81040C2
:10323000FFF70EBB00080020AFF30080AFF3008063
:1032400000210148FDF7C4BD00080020AFF3008055
:10325000FFF7F6BFAFF30080AFF30080AFF300805D
:10326000FFF7EEBFAFF30080AFF30080AFF3008055
:1032700008B54FF4FA70FDF7F3FB202383F31188B0
:103280000448FDF765FEFDF71BFB002383F311885F
:1032900008BD00BF00080020AFF30080AFF300803E
:1032A00070B54E4C82B000212046FDF7E9FDA0F13B
:1032B000FF31B1FA81F149090120FFF7D9FA08B1CC
:1032C00002B070BD2168091BB1FA81F102204909E1
:1032D000FFF7CEFA0028F3D1A168B1FA81F14909CC
:1032E0000320FFF7C5FA0028EAD13D4B3D4A9B6910
:1032F00011689A683C4B0090013A08464FF4E87117
:10330000FDF73EFB394B41F2883118602046FDF74E
:10331000B7FD0546FFF71CFBB5FA85F14909042006
:10332000FFF7A6FA0028CBD12168091BB1FA81F179
:1033300005204909FFF79CFA0028C1D1A168B1FA1C
:1033400081F149090620FFF793FA05460028B7D115
:10335000FFF716FB202383F311884FF080435E6A4A
:1033600085F3118841252846FFF772FA4FF4FA7168
:103370001A48FDF785FDA0F1FF31B1FA81F1490945
:103380000720FFF775FA00289AD12168091BB1FAC6
:1033900081F108204909FFF76BFA002890D1A16854
:1033A000B1FA81F149090920FFF762FA0135EDB25E
:1033B000002885D1462DD6D10D490A20FFF770FA95
:1033C00000287FF47DAF06F6D81206F6C4110B2054
:1033D00002B0BDE87040FFF78BBA00BF00080020C4
:1033E000B8080020606200087132000860140020F4
:1033F00010650008AFF30080AFF30080AFF30080EA
:1034000010B5204B204A9B6910689A681F4B204CCE
:1034100082B00021013200914FF4E871FDF7B0FA5B
:103420001C4B214618602046FDF7BAFD2168091B98
:10343000B1FA81F101204909FFF71AFA08B102B087
:1034400010BDA168B1FA81F149090220FFF710FA15
:103450000028F4D121462046FDF7A2FD2168091B72
:10346000B1FA81F103204909FFF702FA0028E6D1F9
:10347000A168B1FA81F14909042002B0BDE8104009
:10348000FFF7F6B9B80800206062000801320008B2
:103490000008002060140020AFF30080AFF300802C
:1034A00008B5202282F311888368002B05DDFDF723
:1034B00007FA002383F3118808BDFDF749FDFDF7E6
:1034C000FFF9002383F3118808BD00BFAFF300802C
:1034D00070B586B003A80021FDF77AFC03A800218F
:1034E000FDF796FC202585F3118805990029CCBFAE
:1034F000002101210120FFF7BBF920B1002383F354
:10350000118806B070BD044680F31188404B414AD3
:103510009B6910689A68404B03A90091013A4FF4E7
:10352000E871FDF72DFA3D4B186003A8FDF780FC0C
:1035300085F3118805990029CCBF002101210220C3
:10354000FFF796F918B184F3118806B070BD80F3C7
:10355000118885F31188059B002B24DDFDF7B0F958
:10356000002484F31188202686F311880599A1424E
:103570004FF00300D4BF00210121FFF779F9054680
:103580000028E0D180F3118886F311880599A1F114
:103590000101B1FA81F104204909FFF769F930B15D
:1035A00085F31188ADE703A8FDF7D2FCD6E780F3D9
:1035B000118886F31188059B002B25DDFDF780F926
:1035C000002484F31188202686F311880599A142EE
:1035D0004FF00300D4BF00210121FFF749F9054650
:1035E0000028B0D180F3118886F311880599A1F1E4
:1035F0000101B1FA81F105204909FFF739F90028E5
:10360000CED180F311887CE703A8FDF7A1FCD5E7B4
:10361000B808002060620008A1340008601400208F
:10362000F0B52B4F2B4EBB692B489C682B4D83B0BC
:10363000FDF75EFD2A4B0093621C2A4B30684FF465
:10364000E871FDF79DF97168274B2860A21C0846B8
:1036500000934FF4E871234BFDF792F9B168234BC7
:103660006860E21C084600934FF4E8711D4BFDF7BB
:1036700087F9F1681E4BA860221D084600934FF49D
:10368000E871184BFDF77CF931691A4BE860621D4F
:10369000084600934FF4E871124BFDF771F9286169
:1036A0000D48FDF74DFDFFF753F9BB699968091BFC
:1036B000B1FA81F101204909FFF7DAF808B103B046
:1036C000F0BD0D49022003B0BDE8F040FFF7E8B8B7
:1036D000B8080020606200080C0800206014002078
:1036E000146500080137000800650008046500083B
:1036F000086500080C65000810650008AFF300803D
:1037000038B5064C05462046FDF7F2FC2878FFF751
:103710009FF82046BDE83840FDF712BD0C08002098
:1037200038B5064C05462046FDF7E2FC2878FFF741
:103730008FF82046BDE83840FDF702BD1C08002088
:1037400008B50448FDF764FC0348BDE80840FDF7F0
:103750005FBC00BF0C0800201C080020AFF30080F5
:103760000148FDF755BC00BF0C080020AFF30080F6
:10377000FFF7F6BFAFF30080AFF30080AFF3008038
:1037800010B5064C40F2DC50FDF76AF92046FDF713
:10379000AFFC2046BDE81040FDF7D2BC0C0800206D
:1037A00010B5064C4FF4FA70FDF75AF92046FDF7B4
:1037B0009FFC2046BDE81040FDF7C2BC1C0800205D
:1037C0002DE9F0468E4D8F4EAB6932689C688E4B6A
:1037D0008E4F85B004F101091046039200934A46CA
:1037E0008B4B4FF4E871FDF7CBF87668894B386066
:1037F00004F1020A4FF4E871524600933046864BBA
:10380000FDF7BEF878608548FDF772FCAB699968F2
:10381000091BB1FA81F101204909FFF729F810B11C
:1038200005B0BDE8F0864FF47A70FDF719F9AB6981
:103830009968C9EB0101B1FA81F102204909FFF74A
:1038400017F80028ECD17648FDF752FCAB6999686F
:10385000C9EB0101B1FA81F103204909FFF708F82A
:103860000028DDD14FF47A70FDF7FAF8AB6999685A
:10387000CAEB0101B1FA81F104204909FEF7F8FF12
:103880000028CDD16648FDF75BFCAB699968C9EBB0
:103890000101B1FA81F105204909FEF7E9FF00288D
:1038A000BED14FF47A70FDF7DBF8AB699968C9EBCC
:1038B0000101B1FA81F106204909FEF7D9FF00287C
:1038C000AED1FDF795FCAB699968091BB1FA81F19E
:1038D00007204909FEF7CCFF0028A1D1FFF738F8EF
:1038E000504B00934A464A4B03984FF4E871FDF75A
:1038F00047F84D4B38604FF4E87100935246464B01
:103900003046FDF73DF878604448FDF7F1FBAB69C0
:103910009968091BB1FA81F108204909FEF7A8FF4F
:1039200000287FF47DAF4FF47A70FDF799F8AB690A
:103930009968C9EB010CDCF1000141EB0C01092095
:10394000FEF796FF00287FF46BAF3548FDF7D0FBFC
:10395000AB699968C9EB010EDEF1000141EB0E0184
:103960000A20FEF785FF00287FF45AAF4FF47A70E3
:10397000FDF776F8AB699968CAEB010779424FF019
:103980000B007941FEF774FF064600287FF448AF2C
:10399000202383F311882248FDF702FCFCF790FFF7
:1039A00086F31188AB699968C9EB010671427141D0
:1039B0000C20FEF75DFF00287FF432AF4FF47A70E1
:1039C000FDF74EF8AB699968C9EB010251425141CC
:1039D0000D20FEF74DFF00287FF422AFFDF708FC15
:1039E000AB6999680B1B594259410E20FEF740FF05
:1039F00000287FF415AF05B0BDE8F046FEF7A8BF7C
:103A0000B808002060620008086500086014002003
:103A1000A13700080C650008813700081C08002049
:103A20000C0800200065000804650008AFF3008062
:103A3000F8B52B4D2B4CAB6920469E68FDF768FB13
:103A400001460120FEF714FF00B1F8BD2046FDF746
:103A50005FFB80F00101C9B20220FEF709FF0746B3
:103A60000028F2D1202383F311882046FDF798FB2C
:103A700087F311882168091BB1FA81F103204909F4
:103A8000FEF7F6FE0028E0D1A168B1FA81F14909FC
:103A90000420FEF7EDFE0028D7D1AB699968891B99
:103AA000B1FA81F105204909FEF7E2FE0028CCD1E8
:103AB0002046FDF71DFBFDF79BFB2168091BB1FAB2
:103AC00081F106204909FEF7D3FE0028BDD1A16887
:103AD000B1FA81F149090720BDE8F840FEF7C8BEF8
:103AE000B80800200C080020AFF30080AFF300807E
:103AF000F0B52F4B2F4F9B692F4D9E682F4B386889
:103B00002F4C83B0721C00934FF4E8712B46FCF7E6
:103B100037FF7B682B492060B21C009118464FF498
:103B2000E8712B46FCF72CFFBB6827496060F21C4C
:103B3000009118464FF4E8712B46FCF721FFFB6813
:103B40002249A060321D009118464FF4E8712B46BF
:103B5000FCF716FF3B691E49E060721D0091184694
:103B60004FF4E8712B46FCF70BFF2023206183F311
:103B70001188184C2046FDF78BFB2046FDF788FB8B
:103B80002046FDF785FB2046FDF782FB2046FDF72A
:103B90007FFBFCF795FE002383F31188FEF7D8FE28
:103BA0000D49012003B0BDE8F040FEF779BE00BF2B
:103BB000B808002060620008E13B000814650008B6
:103BC000601400200065000804650008086500080E
:103BD0000C6500082C08002010650008AFF3008079
:103BE00038B5084C05462046FDF782FA0648FDF731
:103BF000A7FB2878FEF72CFE2046BDE83840FDF7ED
:103C00009FBA00BF0C0800202C080020AFF30080F2
:103C100008B50448FDF71CFB0348BDE80840FDF764
:103C2000F7B900BF2C0800200C080020AFF300807B
:103C3000FFF7EEBFAFF30080AFF30080AFF300807B
:103C400008B50548FDF704FB0448FDF7E1F9044811
:103C5000BDE80840FDF7DCB92C0800200C08002066
:103C60001C080020AFF30080AFF30080AFF30080AA
:103C7000F0B5244B244F9B69244D9E68244B386833
:103C8000244C83B0721C00934FF4E8712B46FCF770
:103C900077FE7B6820492060B21C009118464FF4E3
:103CA000E8712B46FCF76CFEBB681C496060F21C97
:103CB000009118464FF4E8712B46FCF761FEFB6853
:103CC0001749A060321D009118464FF4E8712B4649
:103CD000FCF756FE3B691349E060721D00911846DF
:103CE0004FF4E8712B46FCF74BFE20610E48FDF7C0
:103CF000DFFAFEF72DFE0D49012003B0BDE8F040CC
:103D0000FEF7CEBDB808002060620008E13B000865
:103D100014650008601400200065000804650008B0
:103D2000086500080C6500082C08002010650008D4
:103D3000F0B51B4B1B4E9B6930689D681A4B1B4CA2
:103D40001B4F83B06A1C00934FF4E871194BFCF7CA
:103D500017FE7168184B2060AA1C00930846174B89
:103D60004FF4E871FCF70CFEB168154B6060EA1C7B
:103D700000930846134B4FF4E871FCF701FEA06076
:103D80003846FDF76DFA3846FDF76AFAFEF7E0FDB2
:103D90000D49012003B0BDE8F040FEF781BD00BF32
:103DA000B8080020606200080C650008601400205C
:103DB0002C080020D13D000804650008E13B000804
:103DC000086500082137000890660008AFF30080FE
:103DD00070B50C4C0C4D06462046FDF789F9284677
:103DE000FDF786F94FF0FF310848FDF7E1FA30782A
:103DF000FEF72EFD2846FDF7A3F92046BDE87040EA
:103E0000FDF79EB91C0800200C0800202C0800209B
:103E100010B5184A184B916918688A68174B82B018
:103E2000013200914FF4E871FCF7AAFD144B1860C1
:103E3000FDF786FC046B2146FDF7A2FCE0B2FEF71D
:103E400007FDFDF77DFC046B2146FDF799FCE0B210
:103E5000FEF7FEFCFDF774FC046B2146FDF790FCB9
:103E6000E0B2FEF7F5FC0749012002B0BDE81040C2
:103E7000FEF716BDB808002060620008913E0008F9
:103E80006014002090660008AFF30080AFF300805C
:103E900010B541210446FDF733FC20464221FDF7D1
:103EA0002FFC20464321BDE81040FDF729BC00BF90
:103EB0002DE9F041202382B083F31188CB4E716A43
:103EC000A1F10501B1FA81F101204909FEF7D0FC09
:103ED000002840F0188180F311884224C34D214608
:103EE0004FF0FF322846FDF79BFCB0FA80F14909FC
:103EF0000220FEF7BDFC013480B9462CEED14121F1
:103F00004FF0FF322846FDF7D3FCB0FA80F14909A3
:103F10000320FEF7ADFC002800F0FB8002B0BDE8F6
:103F2000F08185F3118887F31188A169B1FA81F1D5
:103F300049091F20FEF79CFC002840F09C8285F375
:103F40001188E168A368CB1A594259413846FEF7F7
:103F50008FFC0028E2D187F3118845212046FDF728
:103F6000CFFCB0FA80F149092120FEF781FC00283E
:103F7000D4D144212046FDF7C3FCB0FA80F14909B1
:103F80002220FEF775FC0028C8D143212046FDF70A
:103F9000B7FCB0FA80F149092320FEF769FC00283C
:103FA000BCD142212046FDF7ABFCB0FA80F14909B3
:103FB0002420FEF75DFC0028B0D18C4C4121204626
:103FC000FDF79EFC002383F31188B0FA80F14909C4
:103FD0002520FEF74DFC0028A0D1E168A368C3EBC3
:103FE0000108D8F1000141EB08012620FEF740FC52
:103FF000002893D1074605244FF02008202688F397
:1040000011887A4D01A92846FDF7BAFC87F311887B
:10401000B0FA80F149092720FEF72AFC00287FF436
:104020007DAF9DF80400FEF713FC013CE6D170491A
:104030002820FEF735FC00287FF470AF86F3118846
:10404000696AA1F1050CDCF1000141EB0C012920AA
:10405000FEF70EFC002840F0C58084F3118886F33B
:104060001188A969B1FA81F149092A20FEF700FCFB
:10407000002840F0B78084F31188E968AB68C3EB8F
:10408000010EDEF1000141EB0E012B20FEF7F0FBEB
:1040900000287FF443AF2846FDF7B2FB86F3118872
:1040A000696A4F1F794279412C20FEF7E1FB002815
:1040B00040F0988084F3118886F31188A969B1FAD9
:1040C00081F149092D20FEF7D3FB002840F08A80BA
:1040D00084F3118886F311882968AB68CA1A5142A3
:1040E00051412E20FEF7C4FB00287BD184F31188B8
:1040F00086F311882968EB68CB1A59424FF02F00DC
:104100005941FEF7B5FB002383F3118802B0BDE8E7
:10411000F081012258212846FDF782FBA0F1FF31F2
:10412000B1FA81F149090420FEF7A2FB04460028F8
:104130007FF4F4AE202787F3118858212846FDF735
:1041400097FB014684F31188A1F1FF31B1FA81F1A7
:1041500005204909FEF78CFB00287FF4DFAE012221
:1041600058212846FDF7A4FBA0F1FF31B1FA81F1F7
:1041700049090620FEF77CFB044600287FF4CEAEFA
:1041800087F3118858212846FDF7BAFB014684F3CE
:104190001188A1F1FF31B1FA81F107204909FEF739
:1041A00067FB804600287FF4B9AE87F31188696AFF
:1041B000B1FA81F149090820FEF75AFB044610B113
:1041C00088F31188AAE680F3118887F31188A9691A
:1041D000A1F1050EDEF1000141EB0E010920FEF711
:1041E00047FB38B184F3118898E600BF34080020FB
:1041F0001065000880F3118887F31188E968AB68BF
:10420000CC1A61424FF00A006141FEF731FB0023F6
:1042100000287FF479AF83F31188052505E09DF828
:104220000400FEF715FB013D0FD0944C01A94FF09F
:10423000FF322046FDF77CFBB0FA80F149090B20E4
:10424000FEF716FB0028EAD068E68D490C20FEF741
:1042500027FB00287FF462AE47214FF0FF32204653
:10426000FDF7DEFAB0FA80F149090D20FEF700FBF8
:1042700000287FF453AE01A94FF0FF322046FDF72E
:1042800057FBB0FA80F149090E20FEF7F1FA002839
:104290007FF444AE2168A368CA1A514251410F20ED
:1042A000FEF7E6FA00287FF439AE2168E368CB1AFE
:1042B000594259411020FEF7DBFA00287FF42EAE58
:1042C00001A901222046FDF733FB00F10108D8F1D6
:1042D000000141EB08011120FEF7CAFA00287FF423
:1042E0001DAE202787F3118801A92046FDF748FB62
:1042F000014685F3118801F1010CDCF1000141EB6D
:104300000C011220FEF7B4FA00287FF407AE87F301
:104310001188616AA1F1050EDEF1000141EB0E0189
:104320001320FEF7A5FA00287FF4EDAE002787F3EF
:104330001188202585F31188B169504CB1FA81F1BB
:1043400049091420FEF794FA064610B187F3118844
:10435000E4E580F3118885F31188E168A368CF1A3A
:10436000794279411520FEF783FA10B186F311885E
:10437000D4E580F3118885F3118841212046FDF7AB
:1043800077FAB0FA80F149091620FEF771FA002891
:104390007FF4C4AD42212046FDF76AFAB0FA80F1FD
:1043A00049091720FEF764FA00287FF4B7AD4321CE
:1043B0002046FDF75DFAB0FA80F149091820FEF7B2
:1043C00057FA00287FF4AAAD44212046FDF750FAA1
:1043D000B0FA80F149091920FEF74AFA064600288A
:1043E0007FF49CAD45212046FDF742FA86F3118803
:1043F000B0FA80F149091A20FEF73AFA00287FF452
:104400008DADE168A368CC1A614261411B20FEF7C3
:104410002FFA00287FF482AD2E46804605252027FE
:1044200086F31188154C01A92046FDF7A9FA88F3F7
:104430001188B0FA80F149091C20FEF719FA00280A
:104440007FF46CAD9DF80400FEF702FA013DE6D161
:104450000B491D20FEF724FA00287FF45FAD87F397
:104460001188616A4A1F514251411E20FEF700FA2D
:1044700000283FF456AD85F311884FE5340800203D
:1044800010650008AFF30080AFF30080AFF3008049
:10449000052202490248FDF783B900BF300B002016
:1044A00034080020AFF30080AFF30080AFF300804A
:1044B0004320FEF7CDB900BFAFF30080AFF300801B
:1044C0004220FEF7C5B900BFAFF30080AFF3008014
:1044D0004120FEF7BDB900BFAFF30080AFF300800D
:1044E00010B51F4C8AB0204669464FF0FF330122B9
:1044F0002460FCF76DFF204605A94FF0FF33022230
:10450000FCF766FF2168091B18BF01210120FEF797
:10451000AFF908B10AB010BD69462046FCF770FF3C
:104520002168091B18BF01210220FEF7A1F900280C
:10453000F0D105A92046FCF763FF2168091BB1FAF9
:1045400081F103204909FEF793F90028E2D1072100
:104550000448FCF7DDFF04490420FEF7A1F9D9E780
:104560005C0800207068000890660008AFF30080C7
:104570004FF0FF30FCF75CBFAFF30080AFF300807B
:10458000FFF7F6BFAFF30080AFF30080AFF300801A
:10459000FFF7EEBFAFF30080AFF30080AFF3008012
:1045A0002DE9F04F07208DB0FCF752FF4FF0FF30A0
:1045B000FCF7CEFFA0F10101B1FA81F14909012018
:1045C000FEF756F910B10DB0BDE8F08F4FF0FF3097
:1045D000FCF7BEFFA0F10201B1FA81F14909022006
:1045E000FEF746F90028EED14FF0FF30FCF7B0FFA0
:1045F000A0F10401B1FA81F149090320FEF738F96D
:104600000028E0D14FF0FF30FCF712FFB0FA80F144
:1046100049090420FEF72CF904460028D3D1FEF7FF
:10462000AFF94FF0200989F311884FF08048D8F88E
:10463000245084F31188764FDFF8F0A1B969DAF8D5
:1046400000608A68734B0091013A4FF4E87130467C
:10465000FCF796F9704C20604FF0FF30FCF778FFC4
:1046600005F22622834605F5FA710520FEF740F98A
:104670000028A8D1ABF10101B1FA81F14909062066
:10468000FEF7F6F800289ED14FF0FF30FCF7D0FE81
:10469000B0FA80F149090720FEF7EAF8002892D124
:1046A000FEF756F90520FCF7D3FE4FF0FF30FCF77C
:1046B0006FFF451F694269410820FEF7D9F80028BD
:1046C00081D14FF0FF30FCF7B3FEB0FA80F1490919
:1046D0000920FEF7CDF8834600287FF474AFFEF77B
:1046E0004FF989F31188D8F824508BF31188B969F0
:1046F000484B8A680091013A4FF4E8713046FCF764
:104700003FF920604FF0FF30FCF742FF05F2262210
:10471000064605F5FA710A20FEF7EAF800287FF44C
:1047200052AF701E414241410B20FEF7A1F8002814
:104730007FF449AF4FF0FF30FCF77AFEB0FA80F11A
:1047400049090C20FEF794F8814600287FF43BAF1E
:10475000324E334DFEF7FCF8304602A94FF0FF33DE
:10476000012236602D60FCF733FE284607A94FF082
:10477000FF330422FCF72CFEFEF702F9202383F31B
:104780001188D8F8248089F31188BA69254B92687A
:10479000DAF800000093013A4FF4E871224BFCF77D
:1047A000EFF820600520FCF713FF08F2262208F539
:1047B000FA710D20FEF79CF800287FF404AF4FF04B
:1047C000FF30FCF735FEB0FA80F149090E20FEF704
:1047D0004FF800287FF4F7AEFEF7BAF802A930468A
:1047E000FCF70EFE07A92846FCF70AFE31688A1B73
:1047F000514251410F20FEF73BF800287FF4E3AE11
:1048000029684B1B594259411020FEF731F8DAE66E
:10481000B808002061480008601400205C080020EF
:10482000600800200C65000831480008606200083C
:1048300008B500210648FCF75BFE4FF4FA70FCF760
:104840000FF900210348BDE80840FCF751BE00BF46
:104850005C08002060080020AFF30080AFF3008008
:1048600010B504464FF4FA70FCF7FAF8204601211F
:10487000BDE81040FCF72CBEAFF30080AFF3008022
:1048800008B500214FF0FF30FCF7C2FEB0FA80F10E
:1048900049090120FDF7ECFF00B108BD01464FF0CA
:1048A000FF30FCF7DDFEB0FA80F149090220FDF788
:1048B000DFFF0028F1D101464FF0FF30FCF7F8FE92
:1048C000B0FA80F149090320FDF7D2FF0028E4D1B6
:1048D0000A214FF0FF30FCF79BFEB0FA80F1490946
:1048E0000420FDF7C5FF0028D7D10A214FF0FF3083
:1048F000FCF7B6FEB0FA80F149090520FDF7B8FFD4
:104900000028CAD10A214FF0FF30FCF7D1FEB0FADF
:1049100080F149090620BDE80840FDF7A9BF00BFA6
:1049200070B582B0FDF7DCF901A90020FDF7A0FA0F
:1049300010210020FDF704FA011C054618BF0121D3
:104940000120FDF795FF08B102B070BD044628466E
:10495000FDF73EFA6FF0FF012046FDF7F1F9B0FADE
:1049600080F149090220FDF783FF0028ECD101A95D
:104970007B48FDF77DFA10217948FDF7E1F9102118
:1049800006467748FDF7DCF9102105467448FDF727
:10499000D7F904463046FDF71BFA2846FDF718FA0A
:1049A0002046FDF715FA69466D48FDF761FAA0F15A
:1049B0000101B1FA81F149090320FDF759FF0028EF
:1049C000C2D110216648FDF7BBF9102104466448A6
:1049D000FDF7B6F9102105466148FDF7B1F9FDF77D
:1049E000F7F92846FDF7F4F92046FDF7F1F9694695
:1049F0005B48FDF73DFAA0F10101B1FA81F14909E7
:104A00000420FDF735FF00289ED111215448FDF701
:104A100097F9102104465248FDF792F905462046C1
:104A2000FDF7D6F969464E48FDF722FAA0F10201DA
:104A3000B1FA81F149090520FDF71AFF002883D159
:104A400010214748FDF77CF9694604464448FDF7C4
:104A50000FFA012800F0818069464148FDF708FA05
:104A6000A0F10201B1FA81F149090620FDF700FF2A
:104A700000287FF469AF2846FDF7AAF92046FDF724
:104A8000A7F969463648FDF7F3F9461E71427141B0
:104A90000720FDF7EDFE00287FF456AF10213048C7
:104AA000FDF74EF9102105462D48FDF749F904465A
:104AB0002846FDF78DF969462948FDF7D9F9851E85
:104AC000694269410820FDF7D3FE00287FF43CAF1E
:104AD00020212348FDF734F9FDF77AF92046FDF748
:104AE00077F969461E48FDF7C3F901384142414153
:104AF0000920FDF7BDFE00287FF426AF694618485F
:104B0000FDF7B6F900991648FDF71AF9694604460B
:104B10001348FDF7ADF9B0FA80F149090A20FDF715
:104B2000A7FE00287FF410AF2046FDF751F9694633
:104B30000B48FDF79DF9421E514251410B20FDF7F4
:104B400097FE00287FF400AF9DE80A00CB1A594277
:104B500059410C20FDF78CFEF6E6014685E700BFC3
:104B600090140020AFF30080AFF30080AFF300801B
:104B70004FF4116201490248FDF7D2B8300B002012
:104B800090140020AFF30080AFF30080AFF30080FB
:104B900000207047AFF30080AFF30080AFF30080D8
:104BA00000224FF4E8710148FDF78AB9640800203B
:104BB00038B52B4B2B481D6805222946FDF788F98F
:104BC00005242848FDF79CF9011C18BF012101208C
:104BD000FDF74EFE90BB013CF3D12248FDF790F962
:104BE000B0FA80F149090220FDF742FE30BB1C4CAF
:104BF0001C48294604F11005FDF79AF9A54206D094
:104C000054F8041F1748FDF793F9A542F8D105247D
:104C10001448FDF775F9011C18BF01210320FDF7A9
:104C200027FE58B9013CF3D10E48FDF769F9B0FAF7
:104C300080F149090420FDF71BFE00B138BD1021A9
:104C4000094A0848FDF73CF90648FDF759F9B0FA5A
:104C500080F149090520BDE83840FDF709BE00BFD5
:104C60006062000864080020914B0008AFF30080E8
:104C700070B5344B34489B69344C9D6884B003A9AB
:104C8000FDF7F6F8324B00936A1E324B2E484FF474
:104C9000E871FCF72DF8304B2060AA1E00934FF40A
:104CA000E8712C4B2848FCF723F802A960602648DD
:104CB000FDF7DEF802992448FDF742F8274B0093F0
:104CC0004FF4E8710646EA1E224B1F48FCF710F825
:104CD000A0603046FDF77CF8216821B1616811B110
:104CE000A16831B300210120FDF7C2FD08B104B075
:104CF00070BDFDF72DFE1A490220FDF7D1FD0028F9
:104D0000F5D102A91048FDF7B3F8A0F10101B1FAFD
:104D100081F149090320FDF7ABFD0028E7D1029995
:104D2000039BC91AB1FA81F149090420FDF7A0FDDE
:104D3000DDE7E368002BD6D12169B1FA81F1490999
:104D4000D1E700BFB8080020C01400206014002084
:104D50000C650008714D000808650008046500082E
:104D600050690008AFF30080AFF30080AFF300801C
:104D70000078FDF76DBD00BFAFF30080AFF300809A
:104D80004FF4116201490248FCF7CABF300B002002
:104D9000C0140020AFF30080AFF30080AFF30080B9
:104DA000FFF7EEBFAFF30080AFF30080AFF30080FA
:104DB000314B9B6970B5314C9D6804F1100654F875
:104DC000041B2F48FDF7B4F8A642F8D12D4B2E4A0C
:104DD0002B482E4C691EFBF7ABFF2D4B20602A4A57
:104DE0002748A91EFBF7A4FF2A4B6060264A2448E7
:104DF000E91EFBF79DFF284BA060234A2048291F8E
:104E0000FBF796FF691FE060244B1F4A1C48FBF725
:104E10008FFF2168206141B1616831B1A16821B182
:104E2000E16811B1B0FA80F149090120FDF720FDD8
:104E300000B170BDFDF78CFD19490220FDF730FD72
:104E40000028F6D104240E48FDF75AF8011C18BFBB
:104E500001210320FDF70CFD0028EAD1013CF2D12D
:104E60000748FDF74DF8B0FA80F149090420BDE884
:104E70007040FDF7FDBC00BFB8080020606200086C
:104E8000B01400200C650008714D0008601400206B
:104E9000086500080465000800650008146500083E
:104EA00054690008AFF30080AFF30080AFF30080D7
:104EB00000224FF4E8710148FDF702B8B014002059
:104EC00038B50546FBF75CFF002403461846AB42A5
:104ED00008BF44F00104FBF763FF03460028F5D147
:104EE000204638BDAFF30080AFF30080AFF3008001
:104EF00010B5484B48499A6948489268484B82B077
:104F0000013A00914FF4E871FBF7F2FE04460120EC
:104F1000A17F091AB1FA81F14909FDF7A9FC08B18D
:104F200002B010BD2046FBF7ABFEA17F0220091A9C
:104F3000B1FA81F14909FDF79BFC0028F0D1204628
:104F4000FBF7AEFEA17FA1F10101B1FA81F10320CF
:104F50004909FDF78DFC0028E2D12046FFF7B0FF9C
:104F600001460420FDF784FC0028D9D12046FFF734
:104F7000A7FF01460520FDF77BFC0028D0D1204685
:104F8000FBF78EFEA17FB1FA81F149090620FDF7FA
:104F90006FFC0028C4D1217FB1FA81F149090720B3
:104FA000FDF766FC0028BBD12046FFF789FF0146CC
:104FB0000820FDF75DFC0028B2D12046FFF780FFF6
:104FC00001460920FDF754FC0028A9D14FF4FA70DE
:104FD000FBF746FD217FA1F10F03594259410A20F9
:104FE000FDF746FC00289BD12046FFF769FF0146EC
:104FF0000B20FDF73DFC002892D12046FFF760FF13
:1050000080F00101C9B20C2002B0BDE81040FDF7EC
:105010002FBC00BFB80800200C650008C014002099
:10502000714D0008AFF30080AFF30080AFF3008054
:10503000704700BFAFF30080AFF30080AFF3008094
:105040004FF4FA610148FCF7FBBC00BF9408002054
:1050500000B5064A064B1168064883B0002200924C
:105060000422FCF7ADFC03B05DF804FB60620008AD
:105070003150000894080020AFF30080AFF30080A7
:105080004FF4FA6200210148FCF762BD700800206D
:1050900000B5064A064B1168064883B0002200920C
:1050A0000422FCF735FD03B05DF804FB60620008E4
:1050B0003150000870080020AFF30080AFF300808B
:1050C0002DE9F041202482B084F31188904B996837
:1050D000B1FA81F149090120FDF7CAFBF0B9064692
:1050E00080F3118884F311884124894D21460134CD
:1050F0002846E4B2FCF784FC452CF6D1002383F368
:105100001188202383F311886A69AB699A423AD0E7
:1051100031460220FDF7ACFB044628B1002383F39F
:10512000118802B0BDE8F08180F31188202383F359
:10513000118877482146FCF763FC043014BF002136
:1051400001210320FDF794FBC0B980F311880424EA
:105150006F4D4FF0FF312846FCF772FCC0B2FDF7EF
:1051600077FB013CF4D1202686F31188A968B1FAB7
:1051700081F149090420FDF77BFB48B184F31188D4
:1051800002B0BDE8F081AE68003618BF0126BFE767
:1051900084F311885F490520FDF782FB0028C0D108
:1051A00086F3118841245A4D214601342846E4B241
:1051B000FCF726FC452CF6D1002383F31188564ECC
:1051C000082271682846FCF763FCA0F10401B1FADB
:1051D00081F149090620FDF74BFB04460028A0D1C8
:1051E000202787F31188A968B1FA81F149090720BE
:1051F000FDF73EFB0028C1D180F3118887F31188A9
:105200004124434D214601342846E4B2FCF7F8FB23
:10521000452CF6D1002383F311887468DFF8F880F9
:10522000214628460222FCF733FCA0F10201B1FA24
:1052300081F149090820FDF71BFB00287FF471AFBD
:105240000346214602222846FCF722FCA0F1020177
:10525000B1FA81F149090920FDF70AFB0646002849
:105260007FF45FAF202787F31188A968B1FA81F135
:1052700049090A20FDF7FCFA044610B186F31188AB
:105280004FE780F3118887F3118801462846FCF721
:10529000B7FB2846FCF7A4FB84F3118887F3118839
:1052A000A968B1FA81F149090B20FDF7E1FA064638
:1052B00000287FF463AF80F31188184BD8F8000002
:1052C0009A69174B9268009601324FF4E871FBF728
:1052D00057FB144B186087F31188A968B1FA81F164
:1052E00049090C20FDF7C4FA0028C7D180F31188C2
:1052F000FDF72EFB28460A21FCF7A2FB431C59426E
:1053000059410D2002B0BDE8F041FDF7B1BA00BF30
:10531000940800205469000860620008B808002062
:105320004150000860140020AFF30080AFF300800C
:105330002DE9F043202383B083F31188854B9969CD
:105340005A6991425DD000210120FDF791FAB8BB66
:1053500080F3118841247F4D214601344FF0FF3204
:105360002846E4B2FCF7F4FB452CF4D1202686F362
:105370001188A968B1FA81F149090220FDF778FA8C
:105380000746E8B980F31188042481464FF02008CD
:1053900086F311886F4D2846FCF702FC89F31188CB
:1053A000C0B2FDF755FA013CF0D188F311886A6963
:1053B000AB699A422AD039460320FDF759FA28B141
:1053C000002383F3118803B0BDE8F08380F31188D4
:1053D00061490420FDF764FA04460028F3D1202631
:1053E00086F311885B4D2846FCF7DAFB033014BFC7
:1053F000002101210520FDF73BFA60B184F31188FB
:10540000E1E79968003118BF01219DE7AF680037D7
:1054100018BF0127CFE780F31188504F7C680346FF
:10542000214608222846FCF7DBFBA0F10401B1FA73
:1054300081F149090620FDF71BFA80460028C2D1F8
:1054400086F31188A968B1FA81F149090720FDF7AF
:105450000FFA814610B188F31188B4E780F3118800
:105460003F4B38689A693F4B9268CDF80090013203
:105470004FF4E871FBF784FA3B4B186086F3118810
:10548000E9682B69AA685B1A991AA1F10401B1FABB
:1054900081F149090820FDF7EBF9074610B189F3BE
:1054A000118890E780F31188FDF752FA86F311888E
:1054B0002846FCF73DFB87F3118886F3118805F138
:1054C00008010EC99B1A591AB1FA81F1490909203C
:1054D000FDF7CEF9034610B187F3118873E780F327
:1054E0001188022221462846FCF77AFB0238414205
:1054F00041410A20FDF7BCF9034600287FF463AF61
:10550000214602222846FCF76BFB821E5142514184
:105510000B20FDF7ADF900287FF455AF86F3118815
:10552000A968B1FA81F149090C20FDF7A1F9002819
:105530007FF446AF002181F311880A220548FCF769
:1055400007FB431C594259410D2003B0BDE8F0430D
:10555000FDF78EB9700800205469000860620008E9
:10556000B80800208150000860140020AFF30080CC
:10557000202383F3118862B672B683F3118862B672
:10558000002383F3118862B6704700BFAFF3008039
:1055900010B5202383F31188002484F3118883F34A
:1055A0001188FAF7BDFFFAF7CBFF84F3118810BD1D
:1055B00038B5202484F311880120FAF711FF002365
:1055C00083F3118880F00101C9B20120FDF750F981
:1055D00000B138BD054684F311880220FAF700FFB8
:1055E00085F3118880F00101C9B20220FDF740F96E
:1055F00005460028EDD184F311880420FAF7F0FE67
:1056000085F3118880F00101C9B20320FDF730F95C
:1056100005460028DDD184F311880820FAF7E0FE62
:1056200085F3118880F00101C9B20420BDE838403B
:10563000FDF71EB9AFF30080AFF30080AFF3008039
:1056400010B586B0FAF76CFFFAF77AFF202484F3DE
:105650001188FAF765FFFAF773FF002383F31188C7
:10566000EFF312830BB984F31188EFF3128313B9AC
:10567000202383F31188002383F31188202282F3EF
:105680001188EFF312820AB183F31188EFF31283CA
:1056900013B1002383F3118800230493202383F3A1
:1056A0001188049B01AC13B12046FAF7A9FF2046EC
:1056B00000230C4A0121FAF763FF002484F31188C8
:1056C0000A20FBF7CDF9202383F31188049984F392
:1056D0001188B1FA81F149090120FDF7C9F806B036
:1056E00010BD00BF91550008AFF30080AFF30080FC
:1056F000704700BFAFF30080AFF30080AFF30080CE
:1057000010B52F482F4CFDF76BF84FF4EC70FDF7F8
:1057100037F82046FDF77CF82B48FDF761F8442068
:10572000FDF72EF82046FDF773F82848FDF758F8E6
:105730001420FDF725F82046FDF76AF82448FDF708
:105740004FF80C20FDF71CF82046FDF761F82148C2
:10575000FDF746F80420FDF713F82046FDF758F84A
:105760001D48FDF73DF81420FDF70AF82046FDF727
:105770004FF81A48FDF734F81020FDF701F82046DD
:10578000FDF746F81648FDF72BF80820FCF7F8FF60
:105790002046FDF73DF81348FDF722F82420FCF7DA
:1057A000EFFF2046FDF734F80F48FDF719F82820E1
:1057B000FCF7E6FF2046BDE81040FDF729B800BF22
:1057C000406B0008506B0008586B0008686B0008BD
:1057D000786B0008886B0008986B0008A86B0008BD
:1057E000B86B0008C86B0008D86B0008AFF30080E6
:1057F00010B5FBF7A5FF046B2146FBF7C1FF002C9A
:10580000F7D110BDAFF30080AFF30080AFF300809D
:105810002DE9F041144B154A9B69D2F800809D6830
:10582000134F82B0FDF7ACF84FF47A70FDF7B8F87B
:105830000024013526460F4B00962A464FF4E871A6
:105840004046FBF79DF83B780134002BF3D00A4823
:10585000FCF7C6FF2046FCF793FF084802B0BDE8FE
:10586000F041FCF7D5BF00BFB80800206062000817
:1058700045140020815A0008E86B0008F86B000806
:1058800070B50546FDF77CF84FF47A70FDF788F89F
:10589000074E002401212846FBF732FF33780134FC
:1058A000002BF7D028460021FBF72AFF204670BDC9
:1058B00045140020AFF30080AFF30080AFF3008009
:1058C00010B5134B134A9B6910689A68124B82B04B
:1058D0000021013A00914FF4E871FBF751F80F4BAA
:1058E0001860FFF7CDFF0446FDF732F80C48FCF7CF
:1058F00077FF2046FCF744FF0A48FCF771FF600081
:10590000FCF73EFF084802B0BDE81040FCF780BF3E
:10591000B808002060620008F157000860140020F9
:10592000E86B0008046C0008106C0008AFF30080FE
:1059300010B5134B134A9B6910689A68124B82B0DA
:105940000021013200914FF4E871FBF719F80F4B79
:105950001860FFF795FF0446FCF7FAFF0C48FCF7C8
:105960003FFF2046FCF70CFF0A48FCF739FF6000B8
:10597000FCF706FF084802B0BDE81040FCF748BF3E
:10598000B808002060620008F15700086014002089
:10599000E86B0008046C0008106C0008AFF300808E
:1059A0002DE9F0412C4F2D4EBB6930689A682C4B85
:1059B0002C4CDFF8C08082B00025013200954FF4F6
:1059C000E871FAF7DDFFBA69736892682060023AFD
:1059D000009518464FF4E8714346FAF7D1FFBA69CB
:1059E000B36892686060033A009518464FF4E87116
:1059F0004346FAF7C5FFBA69F3689268A060043AB3
:105A0000009518464FF4E8714346FAF7B9FFBA69B2
:105A100033699268E060053A4FF4E87118460095E2
:105A20004346FAF7ADFF20612068FFF729FF0446DF
:105A3000FCF78EFF0C48FCF7D3FE2046FCF7A0FED7
:105A40000A48FCF7CDFE6000FCF79AFE084802B059
:105A5000BDE8F041FCF7DCBEB80800206062000839
:105A6000F157000860140020E86B0008046C00087F
:105A7000106C0008815A0008AFF30080AFF300807B
:105A8000FBF746B8AFF30080AFF30080AFF30080C0
:105A90002DE9F047264B274A9B6910689A68264BE8
:105AA000DFF8A49082B0002501324FF4E871009530
:105AB000FAF766FF214B04461860FCF761FF4FF4CC
:105AC0007A70FCF76DFFAA464FF02008202788F374
:105AD000118800212046FAF773FE20460021FAF7CC
